:020000040800F2
:10000000D0130020A1010008590E0008570E000867
:1000100000000000000000000000000000000000E0
:100020000000000000000000000000005D0E00085D
:1000300000000000000000005B0E00085F0E0008DA
:10004000B301000800000000B3010008B30100087C
:10005000B3010008B3010008B3010008B3010008B0
:1000600000000000B3010008B3010008B30100085C
:10007000B3010008B3010008B3010008000000004C
:10008000B3010008B3010008B3010008B301000880
:10009000B3010008B3010008B3010008B301000870
:1000A000B3010008B3010008B3010008B301000860
:1000B000B3010008B301000800000000B30100080C
:1000C00000F002F800F040F80CA030C808382418FE
:1000D0002D18A246671EAB4654465D46AC4201D180
:1000E00000F032F87E460F3E0FCCB6460126334272
:1000F00000D0FB1AA246AB463343184764170000F2
:1001000084170000103A02D378C878C1FAD8520791
:1001100001D330C830C101D504680C6070470000BD
:100120000023002400250026103A01D378C1FBD813
:10013000520700D330C100D50B6070471FB500F0E7
:100140004DF91FBD10B510BD00F05AF91146FFF76B
:10015000F5FF01F05DFB00F072F903B4FFF7F2FF69
:1001600003BC00F079F9000070B505460C46164650
:1001700002E00FCC0FC5103E102EFAD2082E02D38B
:1001800003CC03C5083E042E07D301CC01C5361F9E
:1001900003E021782970641C6D1C761EF9D270BDB5
:1001A0000748804707480047FEE7FEE7FEE7FEE70F
:1001B000FEE7FEE704480549054A064B7047000084
:1001C0006D0E0008C1000008D00D0020D0130020E3
:1001D000D00F0020D00F002010B5202A04DB0846E5
:1001E000203AD040002110BD0B462024D340D040FF
:1001F000A21A91400843194610BDF8B5042A2CD321
:10020000830712D00B78491C0370401C521E8307D1
:100210000BD00B78491C0370401C521E830704D07E
:100220000B78491C0370401C521E8B079B0F05D096
:10023000C91ADF002023DE1B08C90AE0FFF794FF7C
:10024000F8BD1D4608C9FD401C46B4402C4310C0F3
:10025000121F042AF5D2F308C91A521EF0D40B78E3
:10026000491C0370401C521EEAD40B78491C0370D1
:10027000401C012AE4D409780170F8BD002203096A
:100280008B422CD3030A8B4211D300239C464EE0B1
:1002900003460B433CD4002243088B4231D303096D
:1002A0008B421CD3030A8B4201D394463FE0C3091F
:1002B0008B4201D3CB01C01A524183098B4201D337
:1002C0008B01C01A524143098B4201D34B01C01A22
:1002D000524103098B4201D30B01C01A5241C3089A
:1002E0008B4201D3CB00C01A524183088B4201D309
:1002F0008B00C01A524143088B4201D34B00C01AF5
:100300005241411A00D201465241104670475DE009
:10031000CA0F00D04942031000D34042534000228C
:100320009C4603098B422DD3030A8B4212D3FC2235
:10033000890112BA030A8B420CD3890192118B42B4
:1003400008D3890192118B4204D389013AD09211CA
:1003500000E08909C3098B4201D3CB01C01A524185
:1003600083098B4201D38B01C01A524143098B424E
:1003700001D34B01C01A524103098B4201D30B0137
:10038000C01A5241C3088B4201D3CB00C01A52415C
:1003900083088B4201D38B00C01A5241D9D2430843
:1003A0008B4201D34B00C01A5241411A00D2014680
:1003B000634652415B10104601D34042002B00D5EA
:1003C0004942704763465B1000D3404201B50020AC
:1003D000C046C04602BD70477047704770B5064CB6
:1003E0007C44064D7D4403E0206800198047241DAD
:1003F000AC42F9D170BD00009C1400009C140000B8
:10040000754600F025F8AE46050069465346C0081B
:10041000C000854618B020B5FFF7CCFE60BC0027B1
:100420004908B6460026C0C5C0C5C0C5C0C5C0C5C0
:10043000C0C5C0C5C0C5403D49008D46704710B518
:100440000446C046C0462046FFF787FE10BD0000A8
:1004500000487047700D002001491820ABBEFEE730
:10046000260002007047000070B5054600F0C4F990
:100470000646104C0AE0681C08D0002D04D000F09D
:10048000BBF9801BA84201D9032070BDE068C007FA
:10049000F1D1E068800601D52020E060E068C00668
:1004A00002D4E068400703D500F072FF012070BD60
:1004B000002070BD0020024070B5040024D002204E
:1004C000214620310D464870226811680F48A36804
:1004D0000140606826691843E36833431843636941
:1004E0001843A3691843E369184308431060204682
:1004F00000F03CFF0020A062E06220636063A06324
:1005000001216970287070BD012070BD0FC0FFFF10
:10051000F8B504468C46203001780025012909D021
:100520000126067041780027012905D007700225B1
:100530002846F8BD0220F8BD02214170A76320685B
:1005400001684908490001606146204600F0FAFE52
:100550002068016831430160EAE70000F8B505460C
:1005600023480F46017E012601290BD00121017687
:100570002868204C012807D02046FFF775FF002887
:1005800013D030E00220F8BD2046FFF76DFF0028B1
:1005900029D100F04BFF2046FFF766FF06461648BC
:1005A00001690422914301611DE00020C0433860CD
:1005B0006C6812E0204600F09FFD0E48FFF754FFE4
:1005C00006460D48026902218A430261002E01D0CD
:1005D0003C6008E00120C0022418A868C1026868D5
:1005E0000818A042E6D80248002101763046F8BD3E
:1005F0000801002050C300000020024003480169A8
:100600008022114301610020704700000020024059
:10061000F0B51FB407461A480024017E15461E4651
:10062000012907D0012101761648FFF71DFF002898
:1006300003D020E0022005B0F0BD012F02D0022F30
:1006400000D00427220128463146FFF7C5FD81B2BC
:1006500001986200101800F0B7FE0A48FFF704FF87
:1006600009490A69520852000A61002803D1641C32
:10067000E4B2BC42E6D3024900220A76DBE700007E
:100680000801002050C30000002002400548016915
:10069000090605D5044941600449416000207047BE
:1006A000012070470020024023016745AB89EFCD50
:1006B000F8B500238DE001249C40A44622407DD063
:1006C0004C68022C01D0122C0CD1DC08A400271895
:1006D0003C6A5D07ED0E0F26AE40B4430E69AE4096
:1006E00026433E6205685E000324B4400F79A543AB
:1006F000BF07BF0FB7402F4307604D68012D05D0DE
:10070000022D03D0112D01D0122D0ED18568CF6896
:10071000A543B7402F43876047686546AF430D79CF
:10072000ED06ED0F9D403D434560C568A5438C68CF
:10073000B4402C43C4604C68E40049D5284CA569FA
:1007400001263543A561A4699D0834400094254CD9
:10075000AD002F19BC689D072E0F0F25B540AC4387
:100760000925ED06A84201D100250FE01E4DA84243
:1007700001D101250AE01D4DA84201D1022505E065
:100780001B4DA84201D1032500E00525B5402543B6
:10079000BD60184C25684E689543F60300D5154397
:1007A000256065684E689543B60300D515436560BE
:1007B000A5684E689543F60202D500E008E01543AF
:1007C000A560E5684E689543B60200D51543E5601F
:1007D0005B1C0A681446DC4000D06CE7F8BD0000E2
:1007E00000100240000001400004004800080048DA
:1007F000000C0048000401400148006870470000F8
:100800000001002002480168491C01607047000097
:100810000001002010B50648016810221143016054
:10082000002000F007F800F016F8002010BD0000CE
:100830000020024010B5044600F0B2F87D21C90046
:10084000FFF71CFD00F0B4FA00222146501E00F014
:100850000DF8002010BD7047C106C90E0120884068
:10086000014908607047000000E100E010B500F0A9
:10087000BBFD10BDF8B5054644480E460068C007EC
:10088000C00FB0420AD241480168490849003143CB
:1008900001600068C007C00FB0425CD128783C4CB2
:1008A000800705D56068F0218843A9680843606027
:1008B0002878C0073FD06868012813D02168022833
:1008C00013D08907002946DA616889088900014345
:1008D0006160FFF791FF6968074601290DD0022981
:1008E00017D024E021688903ECE78901EAE7FFF7E4
:1008F00083FFC11B2748814217D860680007800F1B
:100900000128F4D117E0FFF777FFC11B214881428E
:100910000BD860680007800F0228F4D10BE0FFF7C6
:100920006BFFC11B1B48814201D90320F8BD6068E1
:100930000007800FF3D115480168C907C90FB142FC
:100940000BD9016849084900314301600068C007BC
:10095000C00FB04201D00120F8BD2878400706D56D
:100960006068072109028843E9680843606000F075
:100970002DF86168084A0906090F515CC84007490B
:1009800008600020FFF756FF0020F8BD002002405D
:1009900000100240881300004818000804010020DD
:1009A0000148006870470000040100200448054920
:1009B00000684968044A4905490F515CC8407047BE
:1009C00004010020001002405818000810B510A3C0
:1009D0000FCB88B06C460FC411A30FCB0FC41449C2
:1009E0004A680C201346034012480FD0042B0DD048
:1009F000082B0BD193021B0F6C46E45CC96A04AB55
:100A00000907090F595CFFF739FC604308B010BDB6
:100A100002030405060708090A0B0C0D0E0F10103F
:100A20000102030405060708090A0B0C0D0E0F103E
:100A30000010024000127A00FEB504460078D24D44
:100A4000C00749D068680007800F012820D0686877
:100A50000007800F022804D16868C003800F0228B5
:100A600016D0012062680004012A18D08100002AF3
:100A700001D0052A17D02A6882432A602868884353
:100A80002860606800281BD0FFF7B6FE064613E01A
:100A90002868800320D56068002876D01CE029688B
:100AA00001432960EDE72A680A432A60F7E7FFF768
:100AB000A3FE801B642869D828688003F7D50BE063
:100AC000FFF79AFE064604E0FFF796FE801B6428B7
:100AD000F1D828688003F7D4207801268007002801
:100AE0003DDA68680007800F13D068680007800F40
:100AF000022804D16868C003800F012809D0E0688B
:100B0000002828681CD030432860FFF775FE074690
:100B10000BE0286880070BD5E068012835D107E095
:100B2000FFF76AFEC01B0228C5D828688007F7D5E2
:100B30002868F82188432169C900084328600EE02D
:100B4000400840002860FFF757FE074604E0FFF723
:100B500053FEC01B0228AED828688007F7D420783F
:100B6000000723D5E0690028686A10D03043686226
:100B7000FFF742FE074604E0FFF73EFEC01B0228D7
:100B800099D8686A8007F7D510E0FAE0A4E0400839
:100B900040006862FFF730FE074604E0FFF72CFED6
:100BA000C01B022887D8686A8007F7D420780427FA
:100BB0004007002860DA00200190E869C00008D4EE
:100BC000E969B8060143E961E96901400120009142
:100BD00001906E480168C90511D40168821511435E
:100BE0000160FFF709FE009005E0FFF705FE0099A0
:100BF000401A642870D865480068C005F5D5A0681B
:100C000001280AD0002801D0052810D0286A400801
:100C100040002862286AB84301E0286A304328620D
:100C2000A068002812D0FFF7E7FD00900AE0286ACC
:100C300038432862F1E7FFF7DFFD0099411A544875
:100C4000814249D8286A8007F5D50DE0FFF7D4FD29
:100C5000009006E0FFF7D0FD0099411A4C48814210
:100C60003AD8286A8007F5D40198002804D0E969A9
:100C7000012000078143E9612078C00635D560690D
:100C800001280CD0401D686B23D038436863686B23
:100C9000400840006863FFF7AFFD064622E0686B3E
:100CA00038436863686B30436863FFF7A5FD064609
:100CB00004E0FFF7A1FD801B02285BD8686B80076A
:100CC000F7D5686BF8218843A169C90008436863B8
:100CD0000BE0B8436863F4E74CE0FFF78DFD801B41
:100CE000022847D8686B8007F7D4206A002846D0CE
:100CF00069680907890F022943D0012636060228B0
:100D0000286805D0B0432860FFF776FD044633E03D
:100D1000B0432860FFF770FD074604E0FFF76CFD65
:100D2000C01B022826D828688001F7D4E86AE16A47
:100D3000000900010843E862616AA06A0843696823
:100D40007B22D203914308436860286830432860BF
:100D5000FFF752FD044604E0FFF74EFD001B02289A
:100D600008D828688001F7D509E0FFF745FD001B8A
:100D7000022801D90320FEBD28688001F5D4002097
:100D8000FEBD0120FEBD00000010024000700040CA
:100D900088130000042204490428086902D0904303
:100DA000086170471043FBE700E000E07047000077
:100DB000094910B5401E884201D9012010BD074CD9
:100DC00060610321081F00F00FFB0020A0610720D5
:100DD0002061002010BD0000FFFFFF0000E000E0E8
:100DE00010B5FFF7E3FF10BD70B5040005D0254630
:100DF0006035687A002802D006E0012070BD00202E
:100E00002872204600F026F82420687220680168C5
:100E1000490849000160204600F0C8F80128EDD0DB
:100E2000606A002802D0204600F052F8206841682D
:100E30000122D202914341602068816808229143D7
:100E4000816020680168012211430160204600F0A2
:100E5000A4F870BD7047FEE770477047704710B543
:100E6000FFF7D0FCFFF7BCFF10BD0000154801687C
:100E70000122114301604168134A11404160016839
:100E8000124A1140016001680122920491430160FD
:100E900041683F22120491434160C16A0909090176
:100EA000C162016BFF22943291430163016B802286
:100EB00011430163416B490849004163002181608E
:100EC00070470000001002400CB8FF08FFFFF6FE5C
:100ED00010B5818CC90707D001684A6801235B04FB
:100EE0009A43836A1A434A60818C890707D501684F
:100EF0004A6801231B049A43C36A1A434A60818CDF
:100F0000490707D501684A6801239B049A43036B8C
:100F10001A434A60818C090707D501684A68012392
:100F2000DB039A43436B1A434A60818CC90607D599
:100F30000268916801231B039943836B19439160F5
:100F4000818C890607D501688A6801235B039A436F
:100F5000C36B1A438A60818C490612D503685A68AC
:100F600001210905046C8A4322435A60026C8A42BB
:100F700007D10268516803235B059943436C194309
:100F80005160818C090607D501684A680123DB049A
:100F9000806C9A4302434A6010BD0021C166202242
:100FA000603042728272017208467047F8B504469A
:100FB0002369A268E5691A43636910202B43002165
:100FC00025681A432B680E46434F3B4013432B6062
:100FD00023685A6803252D03AA43E5682A435A600B
:100FE000236AA26925681A43AB680B273F02BB43FB
:100FF0001343AB60394A2568954210D1384A126BC9
:101000009207920F14D0012A05D0022A05D0032A94
:101010000FD102200DE004200BE0082009E0314A46
:10102000954205D0304A954202D0304A954200D1CF
:1010300000200122E369D203934226D1042819D06B
:1010400004DC00280BD0022802D10BE0082817D0BE
:1010500001260A0912010807400F104331E0FFF78B
:10106000A5FC09E06168224A48088018FFF706F9E4
:1010700081B2EEE7FFF7AAFC616840004A08F4E796
:101080006168012248081204EFE7042811D004DC4B
:10109000002807D0022802D107E0082814D0012632
:1010A0003046F8BDFFF782FC05E06168114A480848
:1010B0000CE0FFF78BFC61684A088018FFF7DEF848
:1010C00080B22168C860EBE7616848088018FFF7C4
:1010D000D5F880B2E860E3E7F369FFEF003801403C
:1010E000001002400044004000480040004C004016
:1010F0000024F40000127A00064A0021D16106495A
:101100000A6902231A430A614861086940221043B0
:1011100008617047080100200020024010B590B01F
:1011200001200104022409910090019008940521F6
:101130000390C9040B900A916846FFF77DFC0028D4
:1011400000D0FEE707200C9000200E900F900D9429
:1011500001210CA8FFF78EFB002800D0FEE7FFF767
:101160001FFC7D21C900FFF789F8FFF721FE04204D
:10117000FFF710FE00221146501EFFF777FB10B05C
:1011800010BD0000F0B506463548A3B082690121C4
:1011900089030A43826182690A4005924269C90053
:1011A0000A43426142690A400592426901210A43A9
:1011B000426140690291084005900320400200907E
:1011C0000220019003200390049109206946C00683
:1011D000FFF76EFA002523480690E12040020C95A7
:1011E00007900C200A950B90089509950F9506A875
:1011F000FFF7FAFDF41DFF34FA34A5641A48E564DC
:10120000606465658020A56520652020E06500029A
:1012100020669120800030180746FFF74DF91248EC
:10122000143820601020A560606025616561A561AB
:101230008020E561E0602046FFF73EF901220021B1
:101240000A20FFF713FB0A20FFF706FB0549FF23DF
:101250000133324624313846FFF75AF923B0F0BD46
:10126000001002400038014030000240F7B505464A
:10127000FF30FF300230406C16464068FF220132DA
:10128000111A0520C0012F1838690C1A01D5A418AD
:1012900001E0002C08D0B44200DA2646884205DA84
:1012A0004119324601980BE00020FEBD141A411985
:1012B00022460198FEF7A1FF0198321B001929462A
:1012C000FEF79BFF386980193861FF2802DDFF387F
:1012D000013838613046FEBD05210022C9014118A0
:1012E0000A61CA608A607047F8B51E460F46144608
:1012F00000250CE00023394602202268FFF788F918
:10130000002802D00020C043F8BD241D2D1DB54289
:10131000F0DB3046F8BD10B5FFF7B8F910BD1FB5CA
:10132000002001AB009007C3694601A8FFF716F93A
:10133000002800D0009804B010BD10B5FFF75EF98A
:1013400010BD704730B5056C0124AC40C56B6C60B6
:10135000046863604368102B036803D099600068D9
:10136000C26030BD9A600068C16030BD10B50446EF
:101370000068054940181421FEF780FF80002064B2
:101380000248E06310BD0000F8FFFDBF000002400E
:1013900010B50B4A0020D168CB060A4904D5C869AC
:1013A00002231843C8611020D3685B0705D5CB69B9
:1013B00001242343CB6104210843D06010BD000009
:1013C000002002400801002010B5054B0022DA6120
:1013D000044A1369012423431361018010BD0000F6
:1013E00008010020002002408307FF22DB0E9A4004
:1013F0008907090E994000280BDA0007000F08380A
:10140000830808489B001818C36993430B43C361C2
:101410007047830804489B001B18186890430843D2
:101420001860704700ED00E000E400E0064900208D
:10143000C861064801690422114301610169402223
:1014400011430161704700000801002000200240A4
:101450000121C90240184068C068704710B51446A1
:10146000090108181A462146FEF7C7FE002010BDE4
:101470000122D2028018016000207047034600203C
:1014800010B50246890803E094001C596040521CC4
:101490009142F9D810BD7CB504460D466846FFF769
:1014A00050FF6846FFF737FF0120C00226180122CF
:1014B00068463168FFF733FF2B462246684631689D
:1014C000FFF712FF6846FFF738FF00207CBD0000E1
:1014D00070B50121C9024018416800230F4C0A6809
:1014E000581EA24219D1002295004C59521C63404B
:1014F000052AF9D34A699A420FD100238D681A460A
:10150000AD084C6803E09600A6597340521C954202
:10151000F9D80969994200D1002070BD5A5AAA55DC
:101520007CB50C4612490022216011468D0063599A
:10153000491C5A400529F9D30121C9024518686898
:1015400042616846FFF7FDFE6846FFF7E4FE0122B0
:1015500068466968FFF7E3FE182322466846696813
:10156000FFF7C2FE6846FFF7E8FE00207CBD0000E2
:101570005A5AAA5510B50446FFF7AAFF002802D010
:101580000020C04310BD0120C00220184068FF2287
:101590000132540541682046FEF72FFE06CC72B694
:1015A00081F308880548016889088900016001689D
:1015B0000323194301609047002010BD0000014043
:1015C00002490A1482185160704700000038000870
:1015D00030B5042A07DB8B78DC06E40E102C0DDC1A
:1015E000231D934201DD002030BD0D19E21C00F0E7
:1015F000DAF8E978884201D1201D30BD012030BDE4
:10160000F8B59C46114B0646186A142407466043F9
:101610001C46803C0419781C069D1862082801D1DC
:1016200000201862EA202070480162702843A070F0
:101630002A466146E01CFEF7E0FDEA1C21463046E2
:1016400000F0B1F86119C870281DF8BD480D0020E0
:10165000F3B5887889B04006800F0C460027012535
:10166000CE1C030000F0B4F8072D050D1A212F3B06
:101670002D002448FFF77EFF401C22D168460571EB
:1016800007E020483168FFF7F3FE401CF6D06846BB
:1016900007710095627801AB00210FE0617810239B
:1016A000E21C1848FFF7DAFEF1E71648FFF7D0FE14
:1016B000019004200090627801AB01460998FFF781
:1016C0009FFF0BB0F0BD0F483168FFF7D7FE716880
:1016D0008842D3D10B483168FFF7DDFED7E7306889
:1016E000039070680490B0680590F068069002A9B5
:1016F0000448FFF715FF0348FFF7EAFE0028C6D0AD
:10170000BCE7000028010020FEB507461546481931
:10171000FE1DF936029043E0FF21306801310C1ABA
:101720000299A54209DD491BC0192246FEF765FD55
:10173000306800192D1B306008E0491BC0192A468B
:10174000FEF75BFD306840190025306000243068EA
:1017500003E0395DEA2902D0641CA042F9DCA04212
:1017600011D03919021B38460191FFF731FF009063
:10177000002808D0052804DD38460199FFF768FFE6
:1017800000982418E3E7002C0CD03068011B0020DF
:1017900003E02218BA5C3A54401C8842F9DB3160FD
:1017A000002DB9DCFEBD10B50020034602E0CC5C84
:1017B00060405B1C9342FADB10BD00000022FF2159
:1017C00001310A5001494A620A627047480D0020FF
:1017D00030B47446641E2578641CAB4200D21D46AA
:1017E000635D5B00E31830BC1847000010B5054886
:1017F000FFF7E6FE00210448FFF76EFD0348FFF700
:10180000DDFF10BD2801002030090020C40B00209E
:10181000C0B0FEF7FFFFFFF781FCE1214902084855
:10182000FFF7B0FCFF240134224669460448FFF765
:101830001DFD021EF8DD69460248FFF765FFF3E76C
:1018400030090020C40B0020000000000000000050
:101850000102030406070809000000000102030456
:10186000841800080001002008000000040100089E
:101870008C18000808010020C81200002001000890
:0C1880006DFFFFFF0000000000127A0066
:04000005080000C12E
:00000001FF
