:020000040800F2
:10000000607E00206D030008750300089D2700082E
:10001000E1270008D90C0008154100080000000085
:100020000000000000000000000000003D02000889
:10003000590D000800000000F502000859030008EF
:100040008703000887030008870300088703000868
:100050008703000887030008870300088703000858
:100060008703000887030008870300088703000848
:100070008703000887030008870300088703000838
:100080008703000887030008870300088703000828
:100090008703000887030008870300088703000818
:1000A0008703000887030008870300088703000808
:1000B00087030008870300088703000887030008F8
:1000C00087030008870300088703000887030008E8
:1000D00087030008870300088703000887030008D8
:1000E00087030008870300088703000887030008C8
:1000F00087030008870300088703000887030008B8
:1001000087030008870300088703000887030008A7
:100110008703000887030008870300088703000897
:100120008703000887030008870300088703000887
:100130008703000887030008870300088703000877
:100140008703000887030008870300080D280008BC
:100150008703000887030008870300088703000857
:100160008703000887030008870300088703000847
:1001700087030008870300088703000800000000C9
:100180008703000887030008870300088703000827
:100190008703000887030008870300088703000817
:1001A000000000000000000087030008DFF820D0F6
:1001B00000F098FC00F066FC06F06CFD002103489E
:1001C00006F0BCFD06F078FDFEE70000B40100205B
:1001D000607E002080F309887047EFF30980704744
:1001E000684680F3098804480078C00714BF0220DD
:1001F000032080F314887047A87E0008DFF818C039
:10020000EFF305831B0618BF6047EFF31483DB078A
:1002100008BF604700DF7047376E0008DFF818C07E
:10022000EFF305831B0618BF6047EFF31483DB076A
:1002300008BF604700DF70471D700008EFF30980BA
:10024000816911F8021CE1BB90E80F1010B5E0477E
:10025000BDE81040EFF3098C8CE80700214B93E8D0
:100260000600914208BF704741B91EF0100F16D129
:100270001D49086820F00100086010E01EF0100F12
:1002800006BF2CED108A0120002081F825002CE902
:10029000F00FC1F828C00CB407F0C2F90CBC1A600A
:1002A000D2F828C0BCE8F00F92F8250000280EBF55
:1002B0006FF0020E6FF0120EBCEC108A8CF30988FE
:1002C000704710B5094A1268914209D8084C54F891
:1002D000214090E80F10A047EFF3098C8CE80F0045
:1002E00010BD0000EC01002034EF00E0600B0008BE
:1002F000600B000810B507F057F8BDE81040154B2B
:1003000093E80600914208BF7047EFF3098C1EF096
:10031000100F06BF2CED108A0120002081F8250067
:100320002CE9F00FC1F828C00CB407F079F90CBC27
:100330001A60D2F828C0BCE8F00F92F82500002817
:100340000EBF6FF0020E6FF0120EBCEC108A8CF331
:1003500009887047EC01002010B507F029FACCE7B6
:1003600010B506F067FD07F023FAC6E70648804798
:1003700006480047FEE7FEE7FEE7FEE7FEE7FEE78A
:10038000FEE7FEE7FEE7FEE74D290008AD010008A5
:100390002DE9F34F84B004984068009048680190BC
:1003A0000498B0F800E04588DFEDFE0A00200290D6
:1003B000B0EE600AAE4506D108884988884204BF7D
:1003C0007146864504D06FF0020006B0BDE8F08F9C
:1003D00001985FEA010C18BFB7EE001A3DD000BFCC
:1003E000BEEB0C0117D0B1F1004F80F01F82002945
:1003F00011DD021F11F0010F1CBFC2ED010A121D19
:100400004B1006D0C2ED010AC2ED020A08325B1E93
:10041000F8D100EB8100BCF10102A0EC011A19D067
:10042000B2F1004F80F00882002A13DD031F12F0A2
:10043000010F1CBFC3ED010A1B1D511008D000BFE6
:10044000C3ED010AC3ED020A491E03F10803F7D107
:1004500000EB8200BCF1010CC2D14FF00008039503
:10046000002D14BFB0EE602A002000F0BF8100BF55
:10047000009908FB05F001EB800B0199DBED002AE8
:1004800001EB80000346F0EE421AC64552D9AEEBAE
:100490000802ABEB850112F0010F17D001EB8501CB
:1004A00091ED000AB5EEC00AF1EE10FA07DDB4EEE8
:1004B000E10AF1EE10FA09DDF0EE401A06E0B1EEC5
:1004C000400AF4EEC01AF1EE10FAF5D3521031D012
:1004D00001EB850C9CED000AB5EEC00AF1EE10FAB6
:1004E00005DDB4EEE10AF1EE10FA09DD06E0B1EE49
:1004F000400AF4EEC01AF1EE10FA01D2F0EE401A02
:1005000001EBC50191ED000AB5EEC00AF1EE10FA5B
:1005100005DDB4EEE10AF1EE10FA09DD06E0B1EE18
:10052000400AF4EEC01AF1EE10FA01D2F0EE401AD1
:10053000521ECDD1F5EEC01AF1EE10FA00F0738123
:10054000F5EEC02A0126F1EE10FA0099D4BFB1EE03
:10055000620AB0EE620AB4EE610AF1EE10FA1CBF54
:10056000AEEB0802B2F1010C47D005FB08F201EB3B
:10057000820292ED001A00BFB0EE410A05FB06F4BC
:10058000B5EEC00A00EB8404F1EE10FACCBFF0EE39
:10059000400AF1EE400AF4EE610AF1EE10FA28D1B9
:1005A000B5EB080C11D0BCF1004F7DD2BCF1000FAF
:1005B0000BDD00BF92ED000AD1ED000ABCF1010C89
:1005C000E2EC010AA1EC010AF4D129000ED0B1F14C
:1005D000004F6AD2002909DD94ED000AD0ED000A2F
:1005E000491EE4EC010AA0EC010AF5D101200290B9
:1005F0000BE0761CBCF1010CBED10298012804D09E
:10060000F5EEC02AF1EE10FA7ED09BED000AB5EBB4
:1006100008009A465946064622D0B0F1004F74D2DF
:1006200000281DDD091F10F0010F06D0F0EE400A72
:1006300080EEA01A81ED011A091D401010D000BFF4
:10064000D1ED010A401E80EE801A81ED011A91ED74
:10065000021AC1EE000AC1ED020A01F10801EFD150
:10066000280026D0B0F1004F7ED2002821DDAAF16B
:10067000040110F0010F06D0D1ED010A80EE801ABE
:1006800081ED011A091D401013D000BFD1ED010A00
:10069000401E80EE801A81ED011AD1ED020A80EE33
:1006A000801A81ED021A01E0CBE0D6E001F10801E9
:1006B000ECD1DDE900124FF000095FEA0E0773D0BC
:1006C000C14504BF01EB860102EB850274D091EDB8
:1006D000000ADC465046331E35D01C46B6F1004FAA
:1006E0007ED2002C2FDD0B1FABF1040C16F0010F96
:1006F0000FD0F0EE400ADCED011AB0EE601A00EE09
:10070000E11A83ED011A01E08DE0B1E01B1D0CF14F
:10071000040C741015D000BFD3ED010A9CED011A32
:1007200040EE410AC3ED010AD3ED020A9CED021A24
:100730000CF1080C40EE410AC3ED020A0833641EB6
:10074000EAD101EB86012B0036D0B3F1004F72D213
:10075000002B31DDA2F1040CAAF1040013F0010F0B
:100760000CD0DCED010A00E08BE090ED011A001DD9
:1007700040EE410ACCED010A0CF1040C5C1019D0DA
:10078000DCED010A90ED011A40EE410ACCED010AC0
:10079000DCED020A90ED021A083040EE410ACCED81
:1007A000020A03E0000000000DE005E0641E0CF109
:1007B000080CE5D102EB830201EB88017F1E09F1F1
:1007C00001097FF47DAF009808F10108001D009039
:1007D0000398401E03907FF44BAE0299012900E07C
:1007E00058E004BF06B0BDE8F08F00BFB5EEC00A08
:1007F000F1EE10FA7FF4E9AD04990EFB05F3002B3E
:100800004A684FF000010BD902EB810C9CED000A05
:10081000B5EEC00AF1EE10FA02D1491C8B42F3D8B2
:100820008B427FF4D2AD6FF00400CEE5E0EC010A1C
:10083000491EFBD1EFE538E0E0EC010A521EFBD186
:1008400008E692ED000AD1ED000ABCF1010CE2ECE1
:10085000010AA1EC010AF4D1B7E694ED000AD0ED4B
:10086000000A491EE4EC010AA0EC010AF5D1BDE63C
:10087000D1ED000A401E80EE801AA1EC011AF7D1DA
:10088000EEE6D3ED000A401E80EE801AA3EC011ABA
:10089000F7D10EE7BCEC011AD1ED000A5B1E40EE69
:1008A000410AE1EC010AF5D14DE7B0EC011AD2EDB5
:1008B000000A5B1E40EE410AE2EC010AF5D17BE73B
:1008C0002DE9F04F82B04668536801930588478848
:1008D0004B88002000900888874201BFB2F800C012
:1008E0006545528893421EBF6FF0020002B0BDE81A
:1008F000F08F9FED412A4FEA970EC7F3400B00BFE0
:10090000DDE9000202EB800A4A6898464FF00009D0
:10091000B0EE420AB4465FEA0E0025D092ED001A0E
:10092000DCED001A02EB8302DCED010A01EE810A24
:1009300092ED001A02EB8302401ED2ED001A02EB88
:10094000830200EE810A9CED021ADCED030A00042A
:100950000CF1100C000C01EE210A92ED001A02EBD2
:10096000830200EE810AD9D117F0030026D0ACF142
:100970000404A2EB830210F0010F08D002EB830203
:10098000D4ED010A92ED001A241D00EE810A5FEAFF
:100990000B0013D002EB830CD4ED010A9CED001A7E
:1009A00002EBC302401E00EE810AD4ED020A92ED72
:1009B000001A04F1080400EE810AEBD109F10100EC
:1009C000AAEC010A1FFA80F9486800EB8902A8F135
:1009D00001001FFA80F8B8F1000F99D1009806EBDA
:1009E0008706184480B20090681E05042D0C87D13C
:1009F00002B00020BDE8F08F000000002DE9F05F9C
:100A00000546002092469B4688460646814640247D
:100A10001BE0284641464746224600F052F853461E
:100A20005A46C01A914110D311461846224600F08A
:100A300039F82D1A67EB01084F46224601200021A4
:100A400000F030F817EB00094E41201EA4F101041C
:100A5000DFDC484631462A464346BDE8F09F40EA7F
:100A600001039B0703D009E008C9121F08C0042A2C
:100A7000FAD203E011F8013B00F8013B521EF9D213
:100A80007047000070B5054C054D03E02068204418
:100A90008047241DAC42F9D170BD0000207F0008C2
:100AA000247F0008202A04DB203A00FA02F100200B
:100AB00070479140C2F1200320FA03F3194390409C
:100AC0007047202A04DB203A21FA02F00021704707
:100AD00021FA02F3D040C2F12002914008431946A6
:100AE00070470000064C074D06E0E06840F0010347
:100AF00094E8070098471034AC42F6D3FFF75AFB4E
:100B0000007F0008207F000870B58C1810F8015B8A
:100B100015F0070301D110F8013B2A1106D110F896
:100B2000012B03E010F8016B01F8016B5B1EF9D19A
:100B30002B0705D40023521E0DD401F8013BFAE720
:100B400010F8013BCB1A921C03E013F8015B01F88B
:100B5000015B521EF9D5A142D8D3002070BD000020
:100B60000000000010B5806B90F83D10252906D0DC
:100B70005FF0150180F83D1000F09EF910BD3521A1
:100B8000F8E710B5806B042180F83D10016C41F04E
:100B90000201016400F092F910BD10B5806B00F005
:100BA0008CF910BD4A4910B5D1F8042322F4403223
:100BB000C1F80423D1F8042343681A43C1F804237D
:100BC00001684A6822F480724A6001684A680369D1
:100BD00042EA03224A6001684A6822F040724A6091
:100BE00001684A6883681A434A6001688A6822F487
:100BF00000628A6001688A68C3681A438A60C16AB1
:100C00006FF07062D14201688A6822F070628A6077
:100C100001688A680CD0C36A1A438A6001688A68CE
:100C200022F040528A6001688A68036B1A4301E02F
:100C300022F040528A6001688A6822F002028A60CB
:100C400001688A68836942EA43028A60416A00292E
:100C500001684A6815D042F400624A6001684A6837
:100C600022F460424A6001684B684FF46044826A33
:100C700094FAA4F4B4FA84F4521EA24013434B60D5
:100C800002E022F400624A600168CA6A22F470023B
:100C9000CA620168CA6A038C0E4C04EB03531A4300
:100CA000CA6201688A6822F400728A6001688A68F0
:100CB000C36942EA43228A6001688A6822F480623A
:100CC0008A6001688A68406942EA8020886010BDB5
:100CD000002001400000F0FF014805F01BFAFEE78C
:100CE00040030020002070470349024808600020AC
:100CF0007047000098090020FC00002010B503F0A8
:100D00000FFA002010BD000001681823CAB2103A83
:100D1000B2FBF3F2054B6FF30901032A9B5C4365B9
:100D200000D9091D0165084670470000E67E0008ED
:100D300030B50468256825F4802525600468636063
:100D40008368402B036803D099600068C26030BD9F
:100D50009A600068C16030BD014805F0DBF9FEE72C
:100D60004003002078B50024009490F83C20012A2C
:100D700019D0012280F83C200A6807230568092A57
:100D800013D9EE680A3A02EB420293409E43EE60AA
:100D90000B788A680A3B03EB43039A400368DD68DB
:100DA0002A43DA6010E0022078BD2E6902EB42028D
:100DB00093409E432E610A788B6802EB4202934077
:100DC000026815692B4313614A681F23072A13D24F
:100DD00005686E6B521E02EB820293409E436E6367
:100DE0000A8893B20A79521E02EB8202934002688B
:100DF000556B2B43536327E005680D2A12D22E6BE7
:100E0000D21F02EB820293409E432E630B790A8825
:100E1000DB1F92B203EB83039A4003681D6B2A43E6
:100E20001A6311E0EE6A0D3A02EB820293409E4390
:100E3000EE620B790A880D3B92B203EB83039A4072
:100E40000368DD6A2A43DA62174A0368934208D1CD
:100E50000B68122B05D1D2F8043343F48003C2F897
:100E60000433036893421BD1104B0D689D4201D09F
:100E7000112D15D1D2F8045345F40005C2F80453DE
:100E8000096899420CD10A490A4A0968B1FBF2F192
:100E900001EB8101490000E0491E00910029FBD1CE
:100EA00080F83C40002078BD002001401200001076
:100EB000CC01002040420F0070477047704770B56A
:100EC000040004D094F83D00002510B106E0012094
:100ED00070BD84F83C50204600F00EF8022084F8E3
:100EE0003D002046FFF75EFE2564012084F83D00AA
:100EF00084F83C50002070BD70470000F8B5002514
:100F00000446009590F83C000E46012826D00120AA
:100F100084F83C002068416841F0806141602068AD
:100F2000816841F480718160A16B1B481346C863DE
:100F3000A16B1A4832460864A16B1948886421687D
:100F4000A06B4C3100F06EF8122084F83D0084F85C
:100F50003C5020688168C90702D011E00220F8BD2A
:100F6000816841F0010181600E480F490068B0FBC3
:100F7000F1F000EB400000E0401E00900028FBD1A3
:100F80002068816811F0405F03D1816841F08041A1
:100F900081600020F8BD0000650B00089B0B000875
:100FA000830B0008CC01002040420F0070B5040004
:100FB0001AD00220636A84F8350022681168184844
:100FC0000140D4E901052843D4E9035635432843B9
:100FD00065692843A5692843E5692843256A2843AC
:100FE0000843042B02D005E0012070BDD4E90B13A7
:100FF00019430843106022685069616A20F00700B5
:101000000843042901D1A16A084350612046FFF733
:101010007BFE0020E064012084F83500002070BDD4
:101020003F8010F070B5044690F8340001281ED0BF
:10103000012084F83400022084F835002068056817
:1010400025F0010505602046FFF772FE2068016863
:1010500041F01E0101602068416941F08001416159
:101060002068016841F001010160002070BD02208C
:1010700070BD31B500F0F8F8044600F0F5F80099BD
:10108000001B8842F9D338BD2DE9F84FDFF890B145
:1010900000224FF001084FF0030A4FF00F090BF147
:1010A000040E00BF0B6808FA02F42340A3426ED17D
:1010B0004D68022D01D0122D0ED1D50800EB850C04
:1010C000DCF820505607F70E09FA07F6B5430E690B
:1010D000BE402E43CCF82060066855000F790AFA0E
:1010E00005FC07F0030726EA0C06AF40374307600C
:1010F0004E68012E05D0022E03D0112E01D0122EE3
:101100000ED18768CE6827EA0C07AE403E43866062
:101110004668A6430C79C4F30014944034434460F9
:10112000C4688E6824EA0C04AE402643C6604C684E
:10113000E4006FD53B4C256845F480452560246864
:1011400022F0030504F480440094374C2E19D6F89D
:10115000084895072F0F09FA07F5AC43334DA8420D
:1011600001D100252EE0324DA84201D1012529E010
:10117000304DA84201D1022524E02F4DA84201D1D3
:1011800003251FE02D4DA84202D104251AE041E0BD
:101190002B4DA84201D1052514E02A4DA84201D1CA
:1011A00006250FE0284DA84201D107250AE0274D6A
:1011B000A84201D1082505E0254DA84201D1092505
:1011C00000E00A25BD402543C6F80858DBF800407A
:1011D0005D464E689C43F60300D51C432C60DEF848
:1011E000004075464E689C43B60300D51C432C60F6
:1011F0000B4D08352C684E689C43F60200D51C4305
:101200002C60074D0C352C684E689C43B60200D507
:101210001C432C60521C102AFFF444AFBDE8F88F29
:10122000003C0140443802400030014000000240D0
:101230000004024000080240000C0240001002407E
:101240000014024000180240001C0240002002402E
:101250000024024042694A40426170470AB18161FC
:1012600070470904FBE70000014800687047000070
:10127000E80100200B4810B5016841F400710160DD
:10128000016841F480610160016841F4807101608E
:10129000032000F049F80F2000F006F800F015F8E0
:1012A000002010BD003C024010B5044600F094FD43
:1012B0004FF47A71B0FBF1F001F044F900222146BD
:1012C000501E00F011F8002010BD08B5002000905D
:1012D00008BD00F01F02012191404009800000F18B
:1012E000E020C0F800117047F0B40E4B1B680C46AC
:1012F000C3F30223C3F10705042D00D90425191DEA
:10130000072901D2002300E0DB1E012606FA05F1C1
:10131000491E214099409E40761E16403143F0BC44
:1013200001F064BA0CED00E0064900F0070208681D
:101330004FF6FF03184040EA0220034A10430860BA
:10134000704700000CED00E00000FA050068416203
:1013500000207047F0B500680023446A31B1856A07
:101360004FF4827604EB15444D1E0AE044EA024134
:1013700081620FE006EB8307C7595B1C04EB17443F
:10138000DBB2AB42F6DB4FF4807303EB810144EA3E
:10139000024242500020F0BDD0F8B40301F0E9BF92
:1013A000C1EBC10200EB8202D0F8B403526C01F031
:1013B0005BBFC1EBC10200EB8202D0F8B403D2F8EC
:1013C000E82101F0A1BFD0F8B40301F0D4BF10B5FB
:1013D00004460A460B0601F07F00C0EBC00104EB97
:1013E000810101D5383101E001F5EE710870D009B5
:1013F000487094F88003012809D0012084F8800304
:10140000206802F0A3FA002084F8800310BD0220B7
:1014100010BD70B50A460446090602F07F0005D5E6
:10142000C0EBC00104EB8101383105E0C2EBC20121
:1014300004EB810101F5EE7100258D700870D00973
:10144000487094F88003012809D0012084F88003B3
:10145000206802F032FC84F88053002070BD022026
:1014600070BD70B504460D460E0601F07F00C0EB5E
:10147000C00104EB810101D5383101E001F5EE71C5
:10148000ED0908704D708A60CB7000D0C8800025CF
:10149000022B00D10D7194F88003012809D001209E
:1014A00084F88003206802F0A5F9284684F8805368
:1014B00070BD022070BD000070B504460E4601F0FC
:1014C0007F00C0EBC00104EB81010025C1F8E821D9
:1014D000C1E97C3581F8DD5181F8DC01206901F535
:1014E000EE71012800D10A6194F8800301280DD023
:1014F000012084F880037006227C206808D002F066
:101500003DFC00BF84F88053002070BD022070BDF8
:1015100002F014FBF6E770B50D460446090605F027
:101520007F0005D5C0EBC00104EB8101383105E037
:10153000C5EBC50104EB810101F5EE7101228A7052
:101540000870E809487094F88003012807D084F8EF
:101550008023206802F0E3FB680602D007E0022047
:1015600070BD217C04F56172206802F087FB0020C9
:1015700084F8800370BD70B504460E4601F07F000C
:10158000C0EBC00104EB810100254A64C1E91335B9
:10159000012381F8393001F8380F2069012800D182
:1015A0000A6194F8800301280BD084F88033700618
:1015B000227C206807D002F0E1FB84F880530020F1
:1015C00070BD022070BD02F0B9FAF6E72DE9F84FC0
:1015D000044600680026054602F024FD002875D167
:1015E000206802F048FD002870D0206802F043FD1A
:1015F000800704D52068416901F00201416120683B
:1016000002F039FD010304F561704FF0010B4FF05A
:10161000000A00904DD5206802F00FFD074646E015
:10162000F80742D0F1B2206802F01DFD8046C007E5
:1016300028D005EB4611C1F808BB2069012811D15B
:10164000C6EBC60004EB8000D1F8101BD0F8E421F3
:10165000C1F31201511AC0F8F411D0F8E811114485
:10166000C0F8E811F1B22046FFF7A3FE2069012877
:1016700008D13EB9D4F8F00120B920680121009AC0
:1016800002F0FCFA5FEA087007D5204600F073FA12
:1016900005EB46110820C1F8080B5FEAC86004D5C5
:1016A00005EB46111020C1F8080B7F08761C002FAF
:1016B000B6D1206802F0DFFC40034FF040095ED550
:1016C000206802F0B3FC0746002656E07BE1F807ED
:1016D00051D0F1B2206802F0B7FC8046C00724D098
:1016E000D5F834180BFA06F08143C5F8341805EB29
:1016F0004610C0F808B92069012807D1C6EBC6001A
:1017000004EB8000D0E9102111444164F1B220467D
:10171000FFF746FE2069012807D136B9E06C20B9F1
:1017200020680121009A02F0A9FA5FEA087004D546
:1017300005EB46110820C1F808095FEAC86004D526
:1017400005EB46111020C1F808095FEA486003D58F
:1017500005EB4611C1F808995FEA887004D505EBDE
:1017600046110220C1F808095FEA086003D5314636
:10177000204601F051F87F08761C002FA7D1206881
:1017800002F079FC00280DDAD5F8040820F00100F9
:10179000C5F80408204600F0CDF92068416901F041
:1017A00000414161206802F066FC00050BD5D5F8C8
:1017B0000808C00702D0204600F0F9F92068416906
:1017C00001F400614161206802F055FCC0044CD571
:1017D000D5F8040820F00100C5F8040800212068AD
:1017E00002F0F0FB0020FF2107E000BF05EB4012F4
:1017F000C2F80819C2F8081B401C62688242F5D87A
:101800004FF0FF30C5F81808D5F81C0840F001105B
:10181000C5F81C08206B60B1D5F8840840F00B00B7
:10182000C5F88408D5F8440840F00B00C5F8440812
:101830000BE0D5F8140840F00B00C5F81408D5F8F3
:10184000100840F00B00C5F81008D5F8000820F487
:10185000FE60C5F80008217C2068009A02F00EFAAC
:101860002068416901F480514161206802F003FC65
:1018700080041CD5206801F0FDFF2068C16821F4B8
:101880007051C160206802F0AFFB58B30320C4F868
:101890001490E0602068C16841F4A051C160204606
:1018A00000F038F92068416901F400514161206875
:1018B00002F0E1FBC00640D52068816921F01001EB
:1018C0008161D5F8208008F00F00C0EBC00004EB68
:1018D0008007C8F3434007F5EE7702280CD00628AE
:1018E0001CD025E04FF40070C4F80CA060612068A3
:1018F000C16841F41051D1E747F6F07118EA010FC1
:1019000016D0C8F30A1290462846F96802F0B7FBD1
:10191000F8684044F860B869404408E00822284666
:10192000009902F0ACFBB969C8F30A100844B86129
:101930002068816941F010018161206802F09BFB01
:10194000000707D5204600F000F92068416901F042
:1019500008014161206802F08EFBC00208D5F1B297
:10196000204600F032F82068416901F4801141619D
:10197000206802F080FB800208D5F1B2204600F01A
:1019800028F82068416901F400114161206802F0E3
:1019900072FB400007D52046FFF7FEFC2068416936
:1019A00001F080414161206802F065FB40070AD5E3
:1019B00020684568680702D52046FFF704FD2068C7
:1019C000416829434160BDE8F88FD0F8B40301F0C5
:1019D0001DBDD0F8B40301F01BBD0000F0B58BB005
:1019E00004004FF0000556D0032084F88103204600
:1019F00000F054F8206802F09BF804F1100128224E
:101A00000F466846FFF72BF894E80F0001F04CFFF3
:101A10000021206802F043FB01260020C5EBC50130
:101A200004EB810181F8396001F8385FCD80C8701E
:101A30008860C8606D1C48610F2DEFD300214FF402
:101A4000827300BFC1EBC10204EB820203EB81058C
:101A500082F8DD0182F8DC11D18782F8DF01C2F85B
:101A6000E401C2F8E801C2F8F00122685051491CB3
:101A70000F29E7D3282239466846FEF7F0FF94E89D
:101A80000F0001F0B3FF84F88163206801F0A1FF2B
:101A900000200BB0F0BD0120FBE7000000B500689E
:101AA00087B0B0F1A04F2ED11848016841F08001F5
:101AB0000160164800211030026842F48042026042
:101AC000006800F4804005901048001F026842F052
:101AD00001020260006800F0010005904FF4C05060
:101AE00000900220CDE901010A20CDE903106946EA
:101AF0000748FFF7C9FA002211464320FFF7F4FB1D
:101B00004320FFF7E6FB07B000BD00003438024079
:101B10000000024010B50446C068012100B9002150
:101B2000D4F8B40301F0B8FCD4F8B403BDE8104015
:101B300001F081BC0168D1F8002E22F00102C1F849
:101B4000002ED0F8B40301F095BCD0F8B40301F036
:101B500097BC10B5044690F88003012809D00120F5
:101B600084F88003206802F0B0FA002084F8800333
:101B700010BD022010BDD0F8B42300F561711046ED
:101B800001F094BC10B5044690F8800301280CD0F5
:101B9000012084F88003206801F00FFF206802F024
:101BA000FBF9002084F8800310BD022010BD10B5A1
:101BB0000446D0F8B40301F0B4FC2068D0F8001E4D
:101BC00041F00101C0F8001E10BD00002DE9F05FDA
:101BD000DFF8FCA104460F46DAF80000DFF8F481D4
:101BE00000F00F017B4807F0FF0941F2883508F14A
:101BF0000808B94262D28AF80090DAF8001001F0C1
:101C00000F01B9427ED12178890707D5D8F8002085
:101C1000A36822F0F0021A43C8F800202178C9070F
:101C20002ED0616801291AD002291BD0032919D0AE
:101C300000688007002865DAD8F80000464620F0E2
:101C400003000843C8F80000FFF70EFB0746606872
:101C5000012810D002281AD003281ED029E00068DD
:101C60008003E7E700688001E4E700BFFFF7FCFAC4
:101C7000C01BA84259D83068C0F381000128F5D1B3
:101C800089E000BFFFF7F0FAC01BA8424DD83068CA
:101C9000C0F381000228F5D17DE03068FFF7E4FA57
:101CA000C01BA842F9D940E0FFF7DEFAC01BA842EA
:101CB0003BD8306810F00C0FF6D16CE02178890722
:101CC00007D5D8F80020A36822F0F0021A43C8F81C
:101CD00000202178C9074CD06168012928D0022949
:101CE00029D0032927D000688007002849DAD8F8CE
:101CF000002022F003020A43C8F80020FFF7B4FADC
:101D0000064600E03DE0606801281DD0022829D089
:101D1000032838D0AB464546286810F00C0F28D071
:101D2000FFF7A2FA811B5945F6D90320BDE8F09FC1
:101D300000688003D9E700688001D6E7FFF794FACE
:101D4000811B594502D9F0E7AB4645462868C0F3E8
:101D500081000128F2D10CE0FFF786FA811B59457A
:101D600002D9E2E7AB4645462868C0F38100022865
:101D7000F2D18AF80090DAF8000000F00F00B842C3
:101D800009D00120D2E744462068FFF76DFA801B96
:101D9000A842F9D9C9E72078400707D5D8F800103C
:101DA000E26821F4E0511143C8F8001020780007E0
:101DB00008D5D8F80010226921F4604141EAC20137
:101DC000C8F800100F20FFF76FFA0020AEE7000000
:101DD000003C02400038024010B500F043F80849CA
:101DE0000968F02292FAA2F201F0F001B2FA82F24E
:101DF000D140044A515CC8400349086010BD00004E
:101E000008380240EE7E0008CC01002010B5FFF734
:101E1000E3FF074909684FF4E05292FAA2F201F495
:101E2000E051B2FA82F2D140024A515CC84010BD82
:101E300008380240EE7E000810B5FFF7CDFF0749D5
:101E400009684FF4604292FAA2F201F46041B2FADA
:101E500082F2D140024A515CC84010BD08380240AD
:101E6000EE7E000830B51948006810F00C011848E3
:101E700012D0184C04290ED008290DD11349091F7E
:101E80000A6802F03F030A68550247F6C07204D59B
:101E9000B4FBF3F003E0204630BDB0FBF3F00B6879
:101EA0000968134092FAA2F2B2FA82F2D340584380
:101EB0004FF4403292FAA2F201F44031B2FA82F2C7
:101EC000D140491C4900B0FBF1F030BD0838024058
:101ED0000024F400001BB7002DE9F84F04460078F9
:101EE000DFF81C83C74DC0074FF000064BD0D8F871
:101EF00000104046C1F38101012908D00068C0F3F9
:101F0000810002280AD1281D0068400206D52868F1
:101F1000800338D56068002871D034E0DFF8E4A28F
:101F20000AF1020A8AF80060FFF79EF9814641F241
:101F3000883705E0FFF798F9A0EB0900B8427DD893
:101F400028688003F6D420798AF80000606868B1B8
:101F5000FFF78AF9814605E0FFF786F9A0EB090053
:101F6000B842ECD828688003F6D50CE0FFF77CF97E
:101F7000814605E0FFF778F9A0EB0900B842DED80A
:101F800028688003F6D420789F4F80074FF0010B1C
:101F900045D5D8F80010404611F00C0F4FF0F80A64
:101FA00009D00068C0F3810002280BD19448001FBB
:101FB0000068400206D42868800714D5E06801282C
:101FC0001DD110E0E068D8B1C7F800B0FFF74CF9B8
:101FD000814605E0FFF748F9A0EB09006428AED878
:101FE00028688007F6D528689AFAAAF22169B2FA19
:101FF00082F220F0F8009140084328600FE0FCE0F6
:102000003E60FFF731F9814606E000BFFFF72CF98B
:10201000A0EB0900642811D828688007F6D420783E
:10202000000729D5DFF8D8A1784861690AF16C0A60
:1020300099B1C0F800B0FFF717F900E086E08146DB
:1020400006E000BFFFF710F9A0EB090064287DD877
:10205000DAF800008007F5D50EE00660FFF704F916
:10206000814605E0FFF700F9A0EB090064286DD870
:10207000DAF800008007F5D4207840075AD5604888
:102080003830016841F0805101600068DFF880A1BC
:1020900000F080500090DAF8001041F48071CAF826
:1020A0000010FFF7E1F8814606E000BFFFF7DCF81B
:1020B000A0EB0900642849D8DAF80000C005F5D57E
:1020C000DFF83C9109F1680989F80060FFF7CCF866
:1020D00041F2883A009005E0FFF7C6F80099411AEE
:1020E000514533D8D9F800008007F5D4207A89F813
:1020F0000000A06878B1FFF7B7F8009006E000BFD5
:10210000FFF7B2F80099411A51456ED8D9F800008E
:102110008007F5D50EE0FFF7A7F8009006E000BFB6
:10212000FFF7A2F80099411A51455ED8D9F800008E
:102130008007F5D4A069E8B3D8F80010C1F3810195
:1021400002295AD002283E6605D000E04DE0FFF794
:102150008BF804464CE0FFF787F8064605E000BF21
:10216000FFF782F8801B64283FD828688001F7D4E5
:10217000D4E90701084347F6C07292FAA2F2616AF5
:10218000B2FA82F29140A26A4FF0FF3303EB52029F
:102190004FF4403393FAA3F3B3FA83F39A40114315
:1021A00008434FF0706292FAA2F2E16AB2FA82F248
:1021B000914000E01FE008431149091F0860C7F87B
:1021C00060B0FFF751F8044605E000BFFFF74CF898
:1021D000001B642809D828688001F7D50BE000BFF0
:1021E000FFF742F8001B642802D90320BDE8F88FEE
:1021F00028688001F4D40020F8E70120F6E7000009
:10220000083802400038024000004742800E474232
:102210000070004070B5040004D094F8510000250F
:1022200010B106E0012070BD84F85050204600F047
:1022300033F8022084F851002068016821F0400141
:102240000160D4E901010843D4E9031211430843B2
:1022500061690843218B01F400710843E169084377
:10226000216A0843A16A084321680860A069042123
:1022700001EA1040616A0843216848602168E06A09
:1022800008612068C16921F40061C16165650120B0
:1022900084F85100002070BD70472DE9F8430446D2
:1022A00090F85100DDF82080012801D022287ED14D
:1022B00069B162B15BB194F85000012877D0012672
:1022C00084F8506094F85100012803D005E0012003
:1022D000BDE8F883322084F8510000256565A263CB
:1022E000A387E3872163A386E386A564E564A06AE8
:1022F0004FF40057B84209D12068016821F4005119
:1023000001602068016841F40051016020680168A3
:10231000490603D4016841F040010160E0684FF4D0
:102320008271B0F5006F606807D0002867D08842DE
:102330006ED1E08E012862D06AE020B188420CD1D3
:10234000E08E012809D1206B21680088C860206BCD
:10235000801C2063E08E401EE086E08E80B9A06A7B
:10236000B84244D12068016841F4805101603EE0E8
:102370002068C068A16B0880A06B801CA0639EE0F1
:10238000434600220221204600F091FA002874D131
:10239000206B21680088C860206B801C2063E08E61
:1023A000401E0004000CE08609D1A06A00E0C7E0EE
:1023B000B84204D12068016841F48051016043466D
:1023C00000220121204600F072FA00286FD1206817
:1023D000C068A16B0880A06B801CA063E08F401ECA
:1023E000E087E08E0028CBD1606800286AD14346A0
:1023F00000220121204600F05AFAF0BBB8E7206B1A
:10240000411C216321680078C860E08E401EE08690
:10241000E08E98B9A06AB84204D12068016841F4FE
:1024200080510160434600220121204600F03FFA1E
:1024300018BB2068C068A16B087040E043460022CA
:102440000221204600F033FAB8B9206B411C216309
:1024500021680078C860E08E401E0004000CE08611
:1024600007D1A06AB84204D12068016841F48051C4
:10247000016000224346012100E018E0204600F000
:1024800016FAA0B92068C168A06B421CA263017053
:10249000E08F401EE087E08E0028CFD1606888B9C9
:1024A000434600220121204600F001FA08B1032032
:1024B0000EE72068C168A06B421CA2630170E08F28
:1024C000401EE087A06AB84210D143460022012195
:1024D000204600F0ECF918B1606D40F002000FE00A
:1024E0002068C068ADF80000BDF800004346012236
:1024F0008021204600F0DBF920B1606D40F0200023
:102500006065D4E784F8516020688168A26AC1F3ED
:102510000011BA4210D179B1616D41F002016165DB
:10252000016821F4005101602068016841F4005104
:10253000016084F85050CAE684F850500020C7E685
:102540000220C5E610B5401EB0F1807F01D3012006
:1025500010BD4FF0E02460610F21601700F046F9D4
:102560000020A06107202061002010BD70B5044646
:1025700090F838000D4601280DD0012684F8386007
:10258000022084F8390042B1042A18D0082A2AD03F
:102590000C2A4DD139E0022070BD206800F06CFAA1
:1025A0002068816941F0080181612068816921F01A
:1025B00004018161206881692A69114311E0206862
:1025C00000F086FA2068816941F400618161206829
:1025D000816921F480618161206881692A6941EA09
:1025E0000221816124E0206800F0A4FA2068C1691A
:1025F00041F00801C1612068C16921F00401C16195
:102600002068C1692A69114311E0206800F0C2FA0C
:102610002068C16941F40061C1612068C16921F489
:102620008061C1612068C1692A6941EA0221C161F2
:1026300084F83960002084F8380070BD10B50400BB
:1026400003D094F8390010B107E0012010BD00203C
:1026500084F83800204600F00CF8022084F8390095
:10266000211D206800F09CF9012084F83900002029
:1026700010BD704710B504460068012200F0F0F963
:1026800008492068884202D00749884203D1416C3A
:1026900041F4004141642068016841F0010101609A
:1026A000002010BD0000014000040140704770B5DB
:1026B000040004D094F83900002510B106E0012090
:1026C00070BD84F83850204600F020F8022084F8CD
:1026D00039002068C16821F40051C160204600F033
:1026E000B1FA2068016921F49041016120684169D3
:1026F00021F02A0141612068C16841F40051C160A4
:10270000E563012084F83900002070BD70470000A7
:1027100070B5044690F83900012801D0122832D152
:1027200069B362B394F8380001282CD0012084F8F2
:102730003800A162A2850025E56394F839001228CB
:102740001FD0222084F83900636B1048D863636B74
:102750000F481864636B0F48986408461346666B0D
:10276000216802463046091DFEF75CFC206841697D
:1027700041F04001416184F83850002070BD0120D3
:1027800070BD3220DEE7022070BD0000052C00087D
:102790003B2C0008E52B000870477047014803F008
:1027A000B9FCFEE74003002010B5002208490948A3
:1027B00000F037FD0849074800F0D7FE07490548F3
:1027C00000F06EFBBDE81040024800F01BBF0000A7
:1027D000000100209809002034010020EC000020B6
:1027E000014803F097FCFEE7400300200907090EAB
:1027F000002806DA00F00F0000F1E02080F8141D38
:10280000704700F1E02080F8001470470148FEF79F
:10281000DDBE0000BC0B00202DE9F84F0F46C1EBD8
:10282000C70100EB810582460668D5E91301441A09
:10283000286C3835A04200D20446E01CC11700EBDA
:1028400091704FEAA00806EB471919E0441AA868EE
:10285000A04200D20446E01CC11700EB91704FEA81
:10286000A0089AF810000090A3B2FAB23046E968C6
:1028700001F03CFCE8682044E860A8692044A861B5
:10288000D9F8180981B2414505D9D5E90501814238
:1028900001D20028DAD1002C06DC0120D6F8341849
:1028A000B8408143C6F834180020BDE8F88F2DE900
:1028B000F0471D4690460E460446FEF7D5FC0746F7
:1028C0005FEA08004FF000084FF4005A4FF001098A
:1028D00026D034E0681C23D025B1FEF7C5FCC01B10
:1028E000A8421DD92068416821F0E00141602068BC
:1028F000016821F040010160A06A504509D12068BB
:10290000016821F4005101602068016841F4005120
:10291000016084F8519084F850800320BDE8F0876E
:102920002068806836EA0000D4D10DE0681C06D02B
:10293000002DD7D0FEF798FCC01BA842D2D8206843
:10294000806836EA0000F1D00020E7E7104801680F
:1029500041F4700101600F48016841F0010101601C
:102960000C4A00210832116002680B4B1A400260C9
:10297000031D0A4A1A60026822F480220260054898
:102980000C30016002495806803908607047000029
:1029900088ED00E000380240FFFFF6FE1030002412
:1029A000F0B50268234B244D244E254F254C4FF0A3
:1029B000804C984209D0604507D0A84205D0B0426B
:1029C00003D0B84201D0A04204D122F0700E4A6870
:1029D00042EA0E0298421BD0604519D0A84217D097
:1029E000B04215D0B84213D0A04211D0164DA84223
:1029F0000ED0164DA8420BD0154DA84208D0154D4B
:102A0000A84205D0144DA84202D0144DA84203D1CB
:102A100022F44075CA682A4302608A68C2620A6862
:102A20008262984201D0A04201D10969016301216B
:102A30004161F0BD0000014000040040000800407A
:102A4000000C0040000401400040014000440140EF
:102A50000048014000180040001C004000200040D9
:102A600010B50123046A8B409C430462036A8A40C8
:102A70001343036210BD000030B5026A22F0010268
:102A80000262026A436884690D6824F07304254376
:102A900022F002048A6822430B4CA04202D00B4C65
:102AA000A0420BD122F00804CA6823F440732243E9
:102AB0004C6922F004021C438B6923434360856107
:102AC00049684163026230BD0000014000040140DA
:102AD00030B5026A22F010020262026A4368846919
:102AE0000D6824F4E64444EA05248D6822F02002AF
:102AF00042EA05120D4DA84202D00D4DA8420ED15A
:102B0000CD6822F0800242EA05124D6923F4406349
:102B100043EA85038D6922F0400243EA850343605E
:102B2000846149688163026230BD00000000014099
:102B30000004014030B5026A22F480720262036A26
:102B40004268C46923F4007324F073050C682C43B5
:102B50008D6843EA05230D4DA84202D00C4DA842D2
:102B60000ED1CD6823F4006343EA05234D6922F4B6
:102B7000405242EA05128D6923F4806342EA05124D
:102B80004260C4614968C163036230BD0000014016
:102B90000004014030B5026A22F480520262046AE5
:102BA0004268C3690D6823F4E64343EA05238D6850
:102BB00024F4005444EA0534084DA84202D0084DDC
:102BC000A84204D14D6922F4804242EA8512426053
:102BD000C36149680164046230BD00000000014027
:102BE0000004014010B5806B0021C185C184012122
:102BF00080F83910C16B41F01001C163FFF756FD39
:102C000010BD000010B50146806B09680968C90550
:102C10000ED40021C18501684A6922F040024A6150
:102C200090F83910322906D05FF0010180F8391090
:102C3000FFF7B2FD10BD1221F8E710B5806BFFF76A
:102C4000ACFD10BD2DE9F04101680446086920F48F
:102C50004052E068104308612268D06849F20C6174
:102C600088432369A168E569194363692B431943C4
:102C70000143D1602168486920F44072A069104383
:102C80004861E26964263225B2F5004F49494A4855
:102C900022681DD0824201D08A426AD1FFF7CCF867
:102CA00000EBC00101EB00106168B0468900B0FB89
:102CB000F1F1B1FBF8F6FFF7BFF800EBC00101EB53
:102CC000001061688900B0FBF1F7FFF7B5F869E023
:102CD000824201D08A4219D1FFF7AEF800EBC00161
:102CE00001EB00106168B0464900B0FBF1F1B1FBA7
:102CF000F8F6FFF7A1F800EBC00101EB00106168E6
:102D00004900B0FBF1F7FFF797F818E0FFF77EF8FE
:102D100000EBC00101EB00106168B0464900B0FB58
:102D2000F1F1B1FBF8F6FFF771F800EBC00101EB30
:102D3000001061684900B0FBF1F7FFF767F800EB9E
:102D4000C00101EB001061685FEA4101B0FBF1F1E5
:102D5000B1FBF8F06FF01801484307EB800005EB7A
:102D60000011B1FBF8F0216866F31F108860BDE820
:102D7000F081FFF74BF800EBC00101EB0010616838
:102D8000B0468900B0FBF1F1B1FBF8F6FFF73EF871
:102D900000EBC00101EB001061688900B0FBF1F7A6
:102DA000FFF734F800EBC00101EB00106168890007
:102DB000CCE700000014014000100140D0F81802D8
:102DC000002180F850100846704770B50446402135
:102DD000D4E98650C2682846904740232A460121FC
:102DE000204600F021FB002070BD10B50446812173
:102DF00000F033FA0121204600F02FFAD4F818022F
:102E000050B1D4F81C0204F506748068804720682D
:102E100003F058FD00202060002010BD10B5D0F850
:102E20001842E16C012907D1D0F81C024021C26888
:102E3000204690470020E064002010BD2921018039
:102E4000004870476C0100200A210180004870474B
:102E5000A401002070B506460025402303228121ED
:102E600000F0D8FA402303220121304600F0D2FAC4
:102E7000542003F0CDFEC6F8180278B104460020B5
:102E800084F85000D6F81C02406880474023224650
:102E90000121304600F0C8FA284670BD0125FBE745
:102EA00002460220002902D00020C2F81C127047FE
:102EB00010B5134690F8FC41D0F81822032C09D124
:102EC00092F8504034B9012482F850400A468121DA
:102ED00000F030FB002010BD70B500220D78D0F856
:102EE0001832144615F0600526D0202D4CD14A78B2
:102EF000921E0A2A1CD2DFE802F010081B1B1B1BC3
:102F00001B140C05887818643EE0012203F140018F
:102F100031E04888000A586436E0012203F1440198
:102F200029E00122DA648A79194600F053F82BE08F
:102F300000F045F8022070BD4D78062D04D00A2D12
:102F40001CD00B2D20D11DE04B882225B5EB132F73
:102F500007D1CA88262A00D92622D0F81C120C686C
:102F600008E02125B5EB132F04D1CA88074C092AA4
:102F700000D90922214600F047F805E0012203F1BB
:102F80004801F8E788789864002070BD9801002017
:102F900010B5D0F8142252689047002010BD134697
:102FA00010B50A46002100F03FFA002010BD13467C
:102FB00010B50A46002100F0BDFA002010BD10B582
:102FC0000446802100F09FFA2046BDE81040002111
:102FD00000F099BA10B50323C0F80821C0F8F43105
:102FE000C0F80C2113460A46002100F01DFA00200B
:102FF00010BD10B505210023C0F8F4111A4619467A
:1030000000F012FA002010BD10B502238261C0F852
:10301000F431C26113460A46002100F08BFA002009
:1030200010BD10B504210023C0F8F4111A4619464A
:1030300000F080FA002010BD10B50A46024903A036
:1030400000F0CCF8004810BD740F00204B30352044
:10305000436F6E6669670000122008800048704761
:103060002001002010B50A46024903A000F0B6F87E
:10307000004810BD740F00204B303520496E746538
:103080007266616365000000042008800048704794
:103090001C01002010B50A46024903A000F09EF86A
:1030A000004810BD740F002057494B495541560048
:1030B00010B50A46024903A000F090F8004810BD80
:1030C000740F00204B30352063616D657261207094
:1030D0006C6174666F726D0010B50A46024903A0F8
:1030E00000F07CF8004810BD740F00203030303004
:1030F000303030303030314100000000F8B5044647
:1031000048880D46010A08294BD2DFE801F04A043D
:1031100009174A4A4048D4F81012207C0A6832E065
:10312000207C02260028D4F8140205D0C16A684623
:1031300088470146467041E0816AF8E7C0B2062838
:103140002FD2DFE800F003080D12171CD4F810127C
:10315000207C4A6817E0D4F81012207C8A6812E0BC
:10316000D4F81012207CCA680DE0D4F81012207C2C
:103170000A6908E0D4F81012207C4A6903E0D4F808
:103180001012207C8A6969469047014616E0207C2F
:1031900038B9D4F81402416B68468847F5E7207CBB
:1031A00020B129462046FFF70AFFF8BDD4F81402E3
:1031B000016B68468847014607204870BDF800004B
:1031C0000028F2D0EA88002AEFD0824200D90246D5
:1031D000ADF800202046FFF717FFF8BD70B50023BB
:1031E00000281DD00446002502E06D1CEDB2641CD1
:1031F0002678002EF9D1022404EB45041480CC5427
:103200005B1C0322CA5400245B1C06E0CA545B1CEE
:10321000DAB28C54521CD3B2401C0278002AF5D189
:1032200070BD10B580B1D0F8143213B10023C0F8CE
:10323000143209B1C0F81012012180F8FC1102709B
:1032400000F0A4F8002010BD022010BD10B5D0F889
:103250002002FEF7DEF8002010BD10B5D0F82002E5
:10326000FEF7B5F8002010BD2DE9F04117460446E1
:1032700041B1D4F814024269EAB394F8FC0103287E
:103280003DD03EE0D4F8F411002504F114000229E9
:103290002CD1D0E902639E4207D9F31A83609AB217
:1032A00039462046FFF783FE20E04068B0FBF3F18B
:1032B00003FB110169B998420BD3D4F8F811884285
:1032C00007D2002211462046FFF771FEC4F8F851DC
:1032D0000CE0D4F81402C16829B194F8FC01032869
:1032E00001D1204688472046FFF783FE94F800026C
:1032F000012806D100E004E084F8005201E02046F5
:1033000090470020BDE8F08170B51546044641B1F4
:10331000D4F8140282693AB394F8FC01032824D04B
:1033200025E0D4F8F41104F5827003291FD1D0E907
:1033300002218A420BD9531A83600846834200D384
:1033400003469AB229462046FFF729FE0FE0D4F83B
:103350001402016929B194F8FC01032801D1204627
:1033600088472046FFF75DFE01E020469047002099
:1033700070BD0020704710B5012180F8FC11D0F815
:103380001422017952689047002010BD10B50178D1
:10339000012926D029BB14490222C1F8B403C0F880
:1033A00020124FF0A0400860072048600020C1E9CB
:1033B0000320C1E90502C8610862C8620863486366
:1033C0000846FEF70BFB80210748FDF7BFFF4022B0
:1033D00000210548FDF7BEFF802201210248FDF7CC
:1033E000B9FF002010BD0000BC0B00200A0601F050
:1033F0007F01D0F82002C1EBC10100EB810002D5B2
:1034000090F83A00704790F8DE017047002070474E
:103410000020704710B51C461346D0F82002224603
:10342000FEF71FF8002010BD10B5D0F82002FEF7FF
:1034300043F8002010BD70B5002204464023114619
:10344000FFF7E8FF40252B46002280212046C4F8E4
:103450001051FFF7DFFF0120256284F8FC01D4F84A
:10346000180228B1D4F81402217942682046904706
:10347000002070BD90F8FD1180F8FC11002070470D
:1034800010B590F8FC11032904D1D0F81412C969C1
:1034900001B18847002010BD01740020704710B5AD
:1034A000D0F82002FEF755FB002010BD70B5044691
:1034B00000F50270054600F044F80120C4F8F4015C
:1034C000B4F80E02C4F8F80194F8080210F01F01D5
:1034D0000AD001290DD0022910D000F08001204629
:1034E00000F011F8002070BD2946204600F08FF84A
:1034F000F8E72946204600F063F9F3E7294620461D
:1035000000F0FEF8EEE710B5D0F82002FEF703F861
:10351000002010BD10B5D0F82002FEF733FB0020CC
:1035200010BD90F8FC1180F8FD11042180F8FC1109
:103530000020704710B5D0F82002FEF71CF80020DC
:1035400010BD0A7802704A7842708A78CB7802EB14
:10355000032242800A794B7902EB032282808A7926
:10356000C97902EB0121C18070470246002011B1E8
:10357000C2F8141270470220704710B5D0F8142218
:1035800002241AB11268904700B90024204610BDE9
:1035900070B50E461A4D897804462970012928D83D
:1035A00094F8FC01022802D0032822D105E099B149
:1035B0000320616084F8FC0109E091B160688842F1
:1035C0000AD0C1B22046FFF7E3FC297861602046AB
:1035D000FFF7D3FF02280CD02046BDE87040FFF76C
:1035E00020BD022084F8FC0120466160FFF7D0FC7A
:1035F000F2E731462046BDE87040FFF7E0BC00002E
:103600003201002010B5FFF785FF002010BD2DE925
:10361000F04100264B78012532460A2B43D2DFE8E1
:1036200003F03C584251420805422A27FFF766FD45
:1036300063E004468888C8B9C888B8B9887800F0BB
:103640007F0794F8FC01032810D084F8FE713946F6
:103650002046FFF724FF2046FFF7E3FC1FB10220BE
:1036600084F8FC0149E084F8FC5146E020461AE069
:10367000FFF78EFF41E0CB88012B14D190F8FC318D
:10368000022B02D0032B0ED104E08260012200F154
:10369000080114E00122011D11E090F8FC21022A2A
:1036A00004D0032A02D0FFF78AFC26E0C560D0F8D8
:1036B000041209B10321C160022200F10C01FFF7DD
:1036C000A3FC1AE004464888012816D1C4F8045225
:1036D0000BE0044690F8FC01022801D00328C5D174
:1036E0004888012809D1C4F80422D4F81402826859
:1036F000204690472046FFF794FC3046BDE8F08115
:1037000070B50D46044609796878002678B301281B
:1037100016D0032836D194F8FC01022817D00328CC
:103720002CD1688828B921B1802902D02046FFF722
:10373000EAFED4F81402294682682046904712E037
:1037400094F8FC01022802D0032817D103E0C9B184
:1037500080291BD116E06888A0B9480603D020460E
:10376000FFF774FDE5E72046FFF75BFC0AE0FFE7A3
:1037700094F8FC01022807D003280BD029462046E4
:10378000FFF71DFC304670BD4806FBD02046FFF712
:10379000BAFEF7E7080601F07F0004EB001501D53B
:1037A000143501E005F582752046FFF71FFE00B1D4
:1037B00001202860022229462046FFF725FCE1E788
:1037C00070B5054690F8FC010C4603280DD1207910
:1037D00001280AD8D5F81402826828469047E08864
:1037E00030B92846FFF71DFC02E02846FFF7E7FB4B
:1037F000002070BD30B54C781D4B01220D78AA40D9
:10380000012CD0F81C4818D044EA0242C0F81C2809
:103810000A7800EB4210D0F8002B12040BD4D0F839
:10382000002B0C89C4F30A042243C97843EA81417E
:103830000A43C0F8002B002030BD92B21443C0F8F8
:103840001C480C7800EB4410D0F800291204F2D484
:10385000D0F800290D89C5F30A052A43C9788904DF
:1038600041EA84510A431A43C0F80029E3E7000003
:1038700000800010D0F800196FF30A01C0F8001999
:10388000D0F80818C1F34101022905D1D0F8001978
:1038900041F00301C0F80019D0F8041841F4807118
:1038A000C0F804180020704770B50446049D0699BE
:1038B0000D9801290CD0E06840F04000E0602046FF
:1038C00000F028F84FF48030A063012D16D01DE0E1
:1038D000A16B21F48031A163E1680D4A1140E160E0
:1038E000E16821F44011E160012803D1E06840F46F
:1038F0008010E060204600F00DF8E6E7A06840F098
:103900000C00A060A06840F02000A060002070BD06
:10391000BFFFBDFF01220C4902E0521C8A420BD8B6
:103920000369002BF9DA026942F001020261012207
:1039300004E0521C8A4201D9032070470369DB0767
:10394000F7D1002070470000400D030030B54D78DE
:1039500001220C7802FA04F3012DD0F83C4816D06D
:1039600024EA0343C0F83C38D0F81C380C78A24055
:1039700023EA0242C0F81C28097800EB4110D0F875
:10398000001B21F40041C0F8001B002030BD9BB299
:103990009C43C0F83C48D0F81C380C78A24092B246
:1039A0009343C0F81C38097800EB4110D0F8001997
:1039B00021F40041C0F80019E7E710B5D0F8041869
:1039C00021F00201C0F804180320FDF752FB00208B
:1039D00010BD10B5D0F8041841F00201C0F8041869
:1039E0000320FDF746FB002010BD00002DE9F04745
:1039F0000E460446DDE90A0A0025DDF83C80089FF2
:103A0000A16B41F40021A163B8F1000F03D1A16BB8
:103A100041F40011A1634FF00009C4F8009ED4F8EE
:103A20000018C4F80018012804D0D4F8000840F0A9
:103A3000030004E0D4F800080BB140F00100C4F822
:103A400000081021204600F0BDFA204600F0AAFA36
:103A50004846C4F81098C4F814984FF0FF31C4F8E1
:103A60001818C4F81C984FF0904CFF2310E000BFCA
:103A700004EB4511D1F80029002A02DAC1F800C987
:103A800001E0C1F80009C1F81009C1F808396D1C3E
:103A9000AE42EDD800210FE004EB4112D2F8005BFA
:103AA000002D02DAC2F800CB01E0C2F8000BC2F828
:103AB000100BC2F8083B491C8E42EDD8D4F8101800
:103AC00021F48071C4F81018012F0AD11449C4F8E8
:103AD0003018D4F83018134A1143C4F83018D4F809
:103AE0003018A0616FF0804060611FB9A06940F09C
:103AF0001000A061A0690C490843A061BAF1000F51
:103B000003D0A06940F00800A061B8F1010F03D113
:103B1000A06906490843A0610020BDE8F0870000C5
:103B2000000180000300010000383C8004000040D8
:103B3000816821F0010181600020704730B54D7827
:103B40004D4C0B7800EB4313012D28D0D3F8105BBC
:103B50006FF31205C3F8105B0B7800EB4313D3F837
:103B6000105B2540C3F8105B4B690BB18B684B6150
:103B70000B7800EB4313D3F8104B44F40024C3F844
:103B8000104B0B7800EB4313D3F8104B8D68C5F343
:103B900012052C43C3F8104B012A5CD061E04D693B
:103BA000002DD3F810593BD06FF31205C3F810590C
:103BB0000B7800EB4313D3F810592540C3F8105984
:103BC0004C698B689C4200D94B610B7800EB431326
:103BD000D3F8104944F40024C3F810490B7800EBE3
:103BE0004313D3F810494D69C5F3120554EA05048F
:103BF000C3F81049012A27D04A693AB1D0F83428CD
:103C00000C780123A3401A43C0F83428097800EB4C
:103C10004110D0F8001941F00441C0F8001929E022
:103C20002540C3F810590B7800EB4313D3F8104923
:103C300044F40024C3F810490B7800EB4313D3F885
:103C400010496FF31204D3E70B7800EB43130A69B2
:103C5000C3F81429DAE70B7800EB4313CA68C3F8FA
:103C6000142B097800EB4110D0F8001B41F00441FF
:103C7000C0F8001B002030BDFFFF07E00023C0F8A4
:103C8000103BD0F8103B43F40023C0F8103BD0F8B1
:103C9000103B43F01803C0F8103BD0F8103B43F042
:103CA000C043C0F8103B012905D1C0F8142B4FF0D8
:103CB0008021C0F8001B002070474B780A7800EB89
:103CC0004212012B0BD0D2F8003B23F40013C2F8B0
:103CD000003BCA78032A17D0022A15D01DE0D2F87B
:103CE000003923F40013C2F80039CA78032A01D03E
:103CF000022A12D1097800EB4110D0F8001941F0E6
:103D00008051C0F8001908E0097800EB4110D0F8A4
:103D1000001B41F08051C0F8001B002070474B7819
:103D20000A7800EB4212012B14D0D2F8003B002B92
:103D300005DBD2F8003B23F08043C2F8003B097852
:103D400000EB4110D0F8001B41F40011C0F8001B3B
:103D500000207047D2F80039002B05DBD2F800397B
:103D600023F08043C2F80039097800EB4110D0F805
:103D7000001941F40011C0F80019E9E778B54E7850
:103D80006FF06045834C0B7800EB4313012E2FD06E
:103D9000D3F8106B6FF31206C3F8106B0B7800EBBF
:103DA0004313D3F8106B2640C3F8106B4B69002BFC
:103DB0007DD08C6823445B1EB3FBF4F39BB20C787C
:103DC00000EB4414D4F8106B05EAC3452E43C4F845
:103DD000106B0C7800EB4414D4F8105B8E685E43D3
:103DE000C6F312031D43C4F8105B012A73D0B2E07E
:103DF0004E6966B3D3F810696FF31206C3F8106901
:103E00000B7800EB4313D3F810692640C3F8106910
:103E10004C698B681C44641EB4FBF3F305EAC3448D
:103E20000B7800EB4313D3F810592C43C3F8104917
:103E30000B7800EB4313D3F810494D69C5F3120515
:103E40002C43C3F81049CB78012B16D027E0D3F8C8
:103E500010592540C3F810590B7800EB4313D3F8E1
:103E6000104944F40024C3F810490B7800EB4313C5
:103E7000D3F810496FF312040FE00B7800EB4313F3
:103E8000D3F8104924F0C044C3F810490B7800EB74
:103E90004313D3F8104944F00054C3F81049012AE1
:103EA00012D0CB78012B17D04B692BB300E037E051
:103EB000D0F834380D780124AC402343C0F83438AE
:103EC000CB78012B08D017E00C7800EB44140B6979
:103ED000C4F81439F4E738E0D0F80838DB050B787B
:103EE00000EB4313D3F8004902D444F0005401E03E
:103EF00044F08054C3F800490B7800EB4313D3F827
:103F0000004944F00444C3F80049CB78012B3ED16A
:103F100000928A8A93B20A78C96800F0E7F836E01E
:103F20000B7800EB4313D3F8104B8D68C5F31205E3
:103F30002C43C3F8104B0B7800EB4313D3F8104B12
:103F400044F40024C3F8104B4FE70B7800EB431305
:103F5000CA68C3F8142BCA78012A0FD1D0F80828F0
:103F6000D2050A7800EB4212D2F8003B02D443F0AB
:103F7000005301E043F08053C2F8003B097800EBA6
:103F80004110D0F8001B41F00441C0F8001B002094
:103F900078BD0000FFFF07E0816841F0010181600A
:103FA00000207047002110220261054A491C9142FD
:103FB00001D9032070470369DB06F7D4002070475E
:103FC000400D03000022202343EA811101610549CD
:103FD000521C8A4201D90320704703699B06F7D41B
:103FE00000207047400D03000021D0F8082812F08F
:103FF000060F15D0D0F80828C2F34102012A0CD0D0
:10400000D0F80828C2F34102032A06D0D0F80808E5
:10401000C0F34100022802D002E0032100E00221A7
:1040200008467047406900F001007047D0F8181842
:10403000D0F81C08084080B27047D0F81818D0F8A3
:104040001C080840000C7047D0F81038D0F834280D
:10405000CA4002F0010243EAC21200EB4110D0F85C
:1040600008091040704700EB4111D1F8081BD0F847
:10407000140808407047416980690840704710B5CE
:1040800003460020D21C920803F5805303E01C680D
:1040900041F8044B401C9042F9D3084610BD10B5BE
:1040A000C26822F0C042C260012901D021B107E0FC
:1040B000C16841F0005102E0C16841F08041C16037
:1040C0003220FCF7D6FF002010BDD0F8002822F4E3
:1040D000FE62C0F80028D0F800284FF4FE6303EA1F
:1040E00001110A43C0F800280020704730B50024B1
:1040F000039D6DB9DB1C9B0800EB023000F580507E
:1041000004E000BF51F8042B0260641C9C42F9D308
:10411000002030BD014801F0FDFFFEE74003002014
:104120000020704710B50C468AB201460448FEF7DD
:10413000BFFE10B14FF0FF3010BD204610BD000093
:104140009809002038B52C4C00256168481C606037
:104150000A2906DB294904F10C0000F0E3FC656044
:1041600003E010B1052811D01AE02448CC3000F04B
:10417000DFF92248DFED220ACC3000F0C3FA1F48F5
:1041800084ED050ACC3000F0D9FB09E01B48CC30A7
:1041900000F098FB194884ED040ACC3000F0C8FB0D
:1041A0001849A1F54A7000F013FE144B9FED160A52
:1041B00003F2344202F10C01A1F52F70009501F0D9
:1041C00011FB10490C39A1F5287001F0D7FA0F48FE
:1041D00001F0E8FBF7EE000A9FED0D1A70EE200AE1
:1041E00084ED090ABDE8384081EE200A0749A1F1B3
:1041F0007C0000F0DBBD0000000000202002002059
:104200000AD7A33C500600206F12033BA4030020F2
:10421000BD37863530B51A4893B00025016841F0A6
:1042200080510160006800F08050119015480168CD
:1042300041F4404101600068022400F440401190C4
:104240000120009001908005CDE906400C200890E7
:104250004FF4A870CDE9090407200B906846FDF7DC
:104260003BFE0CA90D2081E831004FF4A0500F90C7
:10427000E002109005210CA8FDF7A8FC13B030BD9A
:10428000403802400070004030B571482DED028B7F
:1042900081B001F027FDF0B16E4D2878032822D0BF
:1042A000042835D005287BD19FED6B8A00216B480F
:1042B000B0EE480A01F0A4FFB0EE480A01216748B9
:1042C00001F09EFFB0EE480A0221644801F098FF19
:1042D000B0EE480AAFE001B06048BDEC028BBDE82B
:1042E000304001F017BFB7EE000A00215B4801F033
:1042F00087FFB7EE000A0121584801F081FFB7EEB1
:10430000000A0221554801F07BFFB7EE000A92E057
:104310004F4801F0E7FC002842D04D49FC31A1F59F
:104320000E7000F06AFF4A4801F053FC9FED4C1AF2
:10433000DFED4C0A40EE010A95ED060A70EEC00A68
:104340009FED491A424800EE810A85ED060A01F008
:1043500075FC464C3E4884ED000A01F089FC84ED72
:10436000010A3B4801F04FFC10EE100A404ADFED15
:10437000410A9FED411A04F57271904202DD70EE20
:10438000600A06E010EE100A3C4B984209D970EE24
:10439000200AC0EE811AD4ED020A71EEA00A07E0ED
:1043A00052E0A868904201DC984203D9D1ED020A9C
:1043B000C4ED020A85ED020A95ED060A304A10EEB8
:1043C000100A304D90420CDCD1ED020AC4ED020A15
:1043D00085ED000A85ED010A85ED020A85ED030AE7
:1043E00009E0224A274B02F572714C3BA1F5EA70B5
:1043F000009500F065FD23491822583901F13C0071
:10440000FCF72DFB1F4840214038FFF78BFE95ED50
:10441000000A0021114801F0F3FE95ED010A012187
:104420000E4801F0EDFE95ED020A02210B4801F065
:10443000E7FE95ED030A01B00321BDEC028B0748AE
:10444000BDE8304001F0DCBE01B0BDEC028B30BDF8
:10445000E0040020000000200000000040030020D5
:104460003333333FCDCCCC3DCDCC4C3E1402002079
:104470000AD7233C0AD7233C000020420AD723BC9A
:104480000BD2CC3D34060020044C0548216801F0D5
:1044900027FC022002F0F2FBF7E70000E801002011
:1044A000E0040020204C4FF4FA75607838B11F48C2
:1044B00001F02AFC01211D4801F016FC2CE02078B7
:1044C00007282DD2DFE800F02C2C050A1521040066
:1044D000EDE70021154801F007FC19E0134801F051
:1044E00019FC0121114801F03DFC104801F018FCB5
:1044F00016E00E4801F014FC01210C4801F032FCDA
:1045000001210A4801F0F0FB0AE0084801F002FC32
:104510000121064801F026FC0121044801F0ECFBD2
:10452000284602F0ABFBC0E7000000207C00002022
:1045300010B5044603234E4A002100F0B3F894ED71
:10454000050AD4ED0B0A20EE200A9FED4A1A20EE50
:10455000012A94ED030A9FED481A454900EE012A0D
:10456000091F81ED022A94ED040A20EE200A9FED36
:10457000431A60EE011A94ED020A9FED411A414A76
:1045800040EE011AC1ED031A94ED0A0A10EE100A6A
:104590009FED3D1A904264DA60EEA00ADFED3B2AFF
:1045A000F6EE003A10EE100A60EEA20AF1EE042ACE
:1045B000384AC1ED070ADFED360A904270EE600A14
:1045C00060EEA00A60EE810AC1ED040A60EEA20A64
:1045D000F5EE002A20EEA33A60EEA20A81ED053A3C
:1045E000C1ED060A18D9B1EE0C4ADFED2B2A70EEA8
:1045F000222A62EEA22A62EE812AC1ED042A02EE8C
:10460000843A81ED053AB2EE063A62EE832A42EE32
:10461000A30A00BFC1ED060AD1ED070A30EE600A19
:1046200084ED0A0A91ED050A72EE400AC1ED020A14
:1046300091ED060A31EEC00A81ED030AD1ED011AAF
:10464000F8EE611A21EE811A21EE000A9FED131A8D
:1046500020EE010AB0EE001A00EEC10A84ED0C0A49
:1046600010BDDFED0F0AC1ED070AC1ED050AD1E764
:1046700084000020000000440000804700008043C8
:10468000000000470000FA440000803700000038B6
:104690000000FA440080BBC40080BB440000803DA1
:1046A000000000002DE9F041804686B00020019016
:1046B0001546134F02908DF8041002464FF4807691
:1046C0001C4631463846FCF7C9FD01200090601CAD
:1046D00083B203AA01A9D8F8000001F088FB0122E7
:1046E00031463846FCF7BAFD002003A903E0221A40
:1046F0008A5C2A54401CA042F9DB06B0BDE8F08178
:10470000000C0240F0B594B06B4901AEB7EE002A40
:10471000F1E80223CDE910233CC986E83C001EC91C
:104720000CAD85E81E00CDED020A00239FED631A53
:10473000634C08AD5FF00002F0EE411A5FF000013B
:1047400001EB430706EB8707D7ED002A02EB410791
:1047500004EB8707491C97ED003A022942EE831AC1
:10476000EEDB02EB430105EB8101521CC1ED001AA7
:10477000022AE1DB5B1C022BDCDB00225FF0000184
:10478000F0EE411A5FF0000303EB420705EB8707E9
:10479000D7ED002A03EB410706EB87075B1C97ED7B
:1047A000003A022B42EE831AEEDB01EB420304EBEC
:1047B0008303491CC3ED001A0229E1DB521C022AC3
:1047C000DCDB00210DF1400301EB410204EB82022E
:1047D00003EB8106D2ED001AD6ED002A491C02290E
:1047E00071EEA21AC2ED001AEEDB354E12AA083E97
:1047F0000021D6ED001AD6ED012A0CAF42EEA01A28
:10480000C6ED001A70EE610A94ED000A70EE021A0D
:1048100004EB810393ED002A02EB810382EE210A6F
:1048200083ED000A06EB810393ED002A00EE202AB7
:1048300083ED002A07EBC103491C93ED002A0229EE
:1048400032EE400A83ED000AE2DB00235FF0000253
:10485000B0EE410A5FF0000101EB430C07EB8C0C5A
:10486000DCED000A02EB410C04EB8C0C491CDCED86
:10487000001A022900EEA10AEEDB02EB430105EB70
:104880008101521C81ED000A022AE1DB5B1C022B34
:10489000DCDB002105EB810292ED000A04EB8102D2
:1048A000491C82ED000A0429F4DB96ED000A80ED34
:1048B0000D0A14B0F0BD0000707E0008000000007A
:1048C000A800002010B504460323134A0021FFF777
:1048D000E9FE1148DFED110A9FED111A90ED000A73
:1048E000B8EE400A20EE200AD4ED060A00EEC10A16
:1048F0009FED0C1A84ED0B0AD4ED070A20EE200A76
:10490000DFED090A40EE010A9FED081AC4ED0A0A1C
:1049100080EE810A10BD000080000020000080377A
:1049200000008043000000440000FA440000C84238
:1049300090F8241041F0400100F07CB890F8241069
:1049400041F0500100F076B82DE9F04104461448DA
:10495000884686B00168002641F0080101600068C1
:10496000012200F008000F4F150205902946384635
:10497000FCF774FC0120CDE900500220CDE9026073
:1049800069463846FCF780FB0820C4F8008084F8AC
:104990002400204600F008F806B0BDE8F0810000D1
:1049A00030380240000C02402DE9F04180462DEDE8
:1049B000028B84B01E2100F03DF81420FCF759FB57
:1049C00000249FED1B8A08F104056E46A02700BF56
:1049D00007EB4400C1B206EB440202234046FFF756
:1049E00061FE36F8140000EE100A05EB8400641C2A
:1049F000B8EE400A082C20EE080A80ED000AE7D342
:104A00004046FFF79BFF0A20FCF733FB4046FFF7C9
:104A100059FF4046FFF78CFF0A20FCF72AFB40466F
:104A2000FFF786FD04B0BDEC028BBDE8F08100000D
:104A30000000803773B50C4E04464FF4807584B087
:104A4000002229463046FCF709FC01200090012392
:104A500001AA05A9206801F0CAF9012229463046B9
:104A6000FCF7FCFB06B070BD000C0240F0B585B051
:104A70000546002003900490C320134F0C468DF888
:104A80000C004FF40066002231463846FCF7E6FB86
:104A900001200090072301AA03A9286801F0A7F9C3
:104AA000012231463846FCF7D9FBBDF8050040BA73
:104AB0002080BDF8070040BAA080BDF8090040BAC8
:104AC000608005B0F0BD0000000C0240F0B585B07C
:104AD00005460020019002901C4641F0400013461C
:104AE0008DF80400224619460DF10500FBF7B7FFCB
:104AF0000B4F4FF40066002231463846FCF7AEFB00
:104B00000120641C0090A3B203AA01A9286801F047
:104B10006EF9012231463846FCF7A0FB05B0F0BD26
:104B2000000C02401CB50C466946FFF79FFFDFED05
:104B30000A0A0020694600BF31F9102000EE102A51
:104B400004EB8002401CB8EEC00A032880EE201A55
:104B500082ED001AF0DB1CBD0040AB442DE9F041B2
:104B600088461549044688B00868002640F00800C9
:104B700008600868114F00F00800CD14069001226B
:104B800029463846FCF76AFB0120CDE90050022097
:104B9000CDE9026069463846FCF776FA08A0C4F809
:104BA000008000680590032305AA00212046FFF736
:104BB0008DFF08B0BDE8F08130380240000C0240A3
:104BC000780000001FB504460F2104E06420FCF7C4
:104BD00050FA0F21204600F039F86928F6D1012259
:104BE0001146204600F0A6F870208DF800007420D1
:104BF0008DF8010044208DF80200602100208DF81E
:104C000004108DF805008DF806008DF803008DF86E
:104C1000070038208DF808008DF809000A236A463D
:104C20001021204600F05EF800220121204600F00D
:104C300081F89FED040A84ED010A9FED030A84EDDB
:104C4000020A1FBD7A22A0399EDE1C3AFEB5044638
:104C500041F080000C4E8DF804004FF400750022E6
:104C600029463046FCF7FAFA01200090022302AAF6
:104C700001A9206801F0BBF8012229463046FCF763
:104C8000EDFA9DF80900FEBD000C02402DE9F0414F
:104C900005468AB041F08000114F90468DF814000F
:104CA0004FF400761C46002231463846FCF7D6FA0F
:104CB00001200090601C83B201AA05A9286801F0B8
:104CC00096F8012231463846FCF7C8FA22460DF123
:104CD00005014046FBF7C3FE0AB0BDE8F0810000C5
:104CE000000C0240F0B589B01C46134605468DF80D
:104CF0000410224619460DF10500FBF7B0FE0C4FDB
:104D00004FF40076002231463846FCF7A7FA01201E
:104D1000641C0090A3B205AA01A9286801F067F8F5
:104D2000012231463846FCF799FA09B0F0BD00007F
:104D3000000C0240FEB50D4E8DF8041004468DF8AF
:104D400005204FF40075002229463046FCF786FA0C
:104D500001200090022302AA01A9206801F047F86F
:104D6000012229463046FCF779FAFEBD000C0240CC
:104D700000290BD09FED060A80ED030A9FED050A7E
:104D800080ED040A9FED040A80ED050A70470000DB
:104D900024977F3D6F1203BE6F9EEA3C10B50A4612
:104DA0000E232021FFF772FF0E2010BD10B5002248
:104DB00000EB820301EB8204D3ED030A94ED001AA9
:104DC000521C032A41EE000AC3ED030AF0DB10BDBA
:104DD0007FB50D4604466946FFF7E0FF00226946AD
:104DE00001EB4200D4ED020AB0F9083004EB820670
:104DF00000EE103A05EB8203521CB8EEC00A032AFB
:104E000020EE200A83ED040AB0F9020096ED030AB1
:104E100000EE900A94ED011AF8EEE00A10EE810A15
:104E200083ED010ADCDB04B0072070BD2DE9F04101
:104E300088461549044686B00868002640F00800F8
:104E400008600868114F00F008004D150590012218
:104E500029463846FCF702FA0120CDE9005002202D
:104E6000CDE9026069463846FCF70EF92046C4F8E1
:104E70000080FFF7A7FE4FF4FA712046FFF778FF96
:104E800006B0BDE8F081000030380240000C02405E
:104E900010EE100A0749DFED080A884202DD30EE05
:104EA000600A704710EE100A04498842F9D930EEC2
:104EB000200A7047DB0F4940DB0FC940DB0F49C0B8
:104EC0002DE9F04F98462DED028BB0EE408A92ED21
:104ED000000AD1ED000A89B00B4681460024149DDA
:104EE00030EE600AFFF7D4FF8DED030A92ED010A60
:104EF000D3ED010A484630EE600AFFF7C9FF8DED99
:104F0000040A92ED020AD3ED020A484630EE600A26
:104F1000FFF7BEFF8DED050A06AA03A9544800F06D
:104F2000C1FBDFF850B1EA4606A800EB840004EBB1
:104F3000C40190ED000A09EB81000746F7EE000A74
:104F400000F018FF0BEB840608EB840086ED030AE3
:104F5000D0ED000A07F16C0030EE600AF7EE000AAF
:104F600000F008FF0AEB8400641C80ED000A86ED67
:104F7000000A032CD8DB3E4800F017FDF2EE040ACD
:104F8000DDED001A80EE201AF7EE000ADDED012AB1
:104F90009DED022A3848DFED393A39499FED393A1B
:104FA00031EE200A20EE081A31EEE20A30EE420A13
:104FB00010EE102A824202D9B0EE630A05E010EE2C
:104FC000102A8A4201DDB0EE430A30EE200A20EEBC
:104FD000010A85ED000AB1EE610A30EE620A30EE98
:104FE000020A10EE102A824202D9B0EE630A05E0EE
:104FF00010EE102A8A4201DDB0EE430A30EE200A9C
:1050000020EE010A85ED010A32EEE10A30EE420A95
:1050100010EE102A824202D9B0EE630A05E010EECB
:10502000102A8A4201DDB0EE430A30EE200A20EE5B
:10503000010A85ED020A31EEA20A30EE020A10EEF4
:10504000102A824202D9B0EE630A05E010EE100A7F
:10505000884201DDB0EE430A30EE200A20EE010A5C
:1050600085ED030A09B0BDEC028BBDE8F08F0000AE
:10507000A4030020F4050020CDCC4CBFCDCC4CBF08
:10508000CDCC4C3FCDCC4C3F9FED280ADFED282AFC
:105090009FED283A9FED281ADFED280ADFED283A28
:1050A0009FED284ADFED284ADFED281A0022B2EEF4
:1050B000002AB7EE005A00BF02EBC20100EB8101EB
:1050C000521C81ED010A81ED000A81ED042A81ED77
:1050D000050AC1ED022A81ED033A81ED061AC1ED00
:1050E000070A81ED080A81ED1C0A81ED1B0AC1ED5A
:1050F0001F3A81ED204AC1ED1D4AC1ED1E1A81ED16
:10510000215AC1ED220A81ED230A032AD4DB80ED66
:10511000162A80ED170A80ED181AC0ED311A80EDBD
:10512000320AB1EE040A80ED330A70470000000035
:10513000CDCCCCBDCDCCCC3D00002042CDCCCC3EA6
:105140000AD7A33C17B7D139CDCC4CBECDCC4C3E01
:105150009FED130A82ED080A82ED040A82ED000A2F
:1051600091ED020AB1EE400A82ED010A91ED010AC9
:1051700082ED020A91ED020A82ED030A91ED000A26
:10518000B1EE400A82ED050A91ED010AB1EE400A46
:1051900082ED060A91ED000A82ED070A70470000D1
:1051A0000000000091ED010AD2ED020A92ED011A11
:1051B00020EE200AD1ED020A00EEC10A83ED000ABA
:1051C00091ED020AD2ED000A92ED021A20EE200AB9
:1051D000D1ED000A00EEC10A83ED010A91ED000A4B
:1051E000D2ED010A92ED001A20EE200AD1ED010A5B
:1051F00000EEC10A83ED020A704770B50D46044601
:1052000090ED0F0A01F0F4F8B1EE400A85ED010AC5
:10521000D4ED110A94ED100A01F080F985ED000A31
:10522000D4ED0C0A94ED120A01F078F985ED020A2A
:1052300094ED010A85ED030A94ED000A85ED040A58
:1052400094ED020AB1EE400A85ED050A70BD00003A
:1052500070B5ADF5167D06460C20ADF84002ADF8F0
:105260005002ADF84802ADF842021446ADF85202C1
:10527000ADF84A02939291911D46CDF854D294AA6A
:1052800092A990A8FBF71CFB92AB90AA94A9304678
:1052900000F028FB5FF0000000EB800101EBC00193
:1052A00004EB810105EB800291ED000AD2ED000ACA
:1052B000401C0C2830EE200A81ED000AECDB0DF5D5
:1052C000167D70BD7EB5F0EE401A0C4606466B4664
:1052D00001F11802FFF766FF00216D4604EB810023
:1052E00005EB810290ED060AD2ED000A491C032964
:1052F00000EEE10A80ED060AF0DB2B4604F1240201
:1053000021463046FFF74EFF5FF0000004EB8001BE
:1053100005EB800291ED090AD2ED000A401C03283A
:1053200000EEE10A81ED090AF0DB002004EB8001C8
:10533000401C91ED000AD1ED030A032800EEA10AFA
:1053400081ED000AF2DB7EBD2DE9F043814689B094
:10535000F0EE400A90460B4600209FED4F0AB7EE54
:10536000001A002100EB400201EB820403EB8404ED
:10537000491C84ED000A0C29F6DB00EB800101EBEF
:10538000C00103EB8101401C81ED001A0C28E8DB11
:105390005FF0000000EB800101EBC00103EB810135
:1053A000401CC1ED030A0328F4DB6A464146484627
:1053B000FFF7CEFE00206C4600F10902002102EB4F
:1053C0004207821D00EB400602EB420501EB85021D
:1053D00006EB010C03EB820204EB8C0C92ED060A47
:1053E0009CED001A01EE600A82ED060A01EB8702CD
:1053F00003EB82029CED001A92ED090A491C032975
:1054000001EE600A82ED090AE0DB401C0328D3DBD1
:10541000224608F118014846FFF79AFE00200021B5
:10542000821D00EB400502EB42026E1804EB86067B
:1054300096ED000A01EB820603EB860620EE200AB9
:10544000491C032986ED000AEFDB401C0328E6DB3C
:105450006A4608F124014846FFF77AFE002000F171
:10546000090202EB4205002100EB4002561804EB52
:10547000860696ED000A01EB850603EB860620EE14
:10548000200A491C032986ED000AEFDB401C032893
:10549000E5DB09B0BDE8F083000000002DE9F04332
:1054A000ADF2644D4FF009084FF00C09ADF8589477
:1054B000CDF85C14ADF85A84BEA9ADF84484ADF8BB
:1054C0003C84CDF84814ADF84684ADF83E84684677
:1054D000CDF840D4002151AC002501EB410701EB90
:1054E000C10600BF05EB870C02EB8C0C9CED000A9B
:1054F00006EB050C04EB8C0C6D1C8CED000A032DE7
:10550000F0DB032505EB870C02EB8C0C9CED030A0A
:1055100006EB050C04EB8C0C6D1C8CED000A092DC0
:10552000F0DB491C0C29D7DB0025002105EB4507E2
:1055300005EBC50601EB870C02EB8C0C9CED000A19
:1055400006EB010C00EB8C0C491C8CED000A0329C6
:10555000F0DB032101EB870C02EB8C0C9CED030AC2
:1055600006EB010C00EB8C0C491C8CED000A0929A0
:10557000F0DB6D1C032DD8DB03210025CE1C01EBD5
:10558000C10706EB460600BF05EB860C02EB8C0C50
:105590009CED000A07EB050C00EB8C0C6D1C8CEDF0
:1055A000000A032DF0DB032505EB860C02EB8C0CC7
:1055B0009CED030A07EB050C00EB8C0C6D1C8CEDCD
:1055C000000A092DF0DB491C0929D6DB5FF0000138
:1055D00001EB810200EBC20203EB810592ED000AB0
:1055E000D5ED000A491C092930EE200A82ED000A97
:1055F000EEDB0DF244410DF23C40FAF7C9FEADF886
:105600003C94ADF83E840DF58B620DF244410DF2F1
:105610003C40CDF84044FBF753F90DF2644DBDE832
:10562000F0832DE9F04191ED070A044604F14803A7
:10563000B1EE400A80ED0F0A91ED060A04F1300246
:105640001F46B1EE400A80ED100A91ED080A15469A
:1056500080ED110A91ED0A0A80ED0C0A91ED090A1C
:1056600080ED0D0A91ED0B0A04F13C010E46B1EEFE
:10567000400A80ED0E0A2046FFF794FD2B46324685
:1056800039462046FFF78EFD2946204600F064F992
:105690003946204600F060F931462046BDE8F04129
:1056A00000F05AB9FEB590ED120A16460446F0EE27
:1056B000C00A90ED0C0A00F130024830B0EEC00A8A
:1056C0000D46F4EEC00AF1EE10FA01DD114601E0DC
:1056D0000146104691ED000A90ED001AC0EE010A55
:1056E0009FED250A8DED000A91ED010A90ED011A5A
:1056F00000EEC10A8DED010A91ED021AD0ED021AF9
:10570000B5EEC00A00EEE11AF1EE10FA8DED021AC4
:1057100007D2B1EE400A8DED010AB1EE410A8DEDDE
:10572000020A6946204600F017F995ED000AD5ED0A
:10573000020A94ED0F1A00EE810A86ED000A95ED3B
:10574000010ADDED010A94ED101A20EE200AD5EDD4
:10575000020A00EE810A86ED010A95ED010ADDEDEF
:10576000020A94ED111A20EE200AD5ED020A00EE8D
:10577000810A86ED020AFEBD00000000D0ED160A87
:10578000D0ED0C1A90ED151A90ED0D2A60EEA11ACD
:1057900090ED170A41EE021A90ED0E2AB1EE400A82
:1057A00040EE021AC1ED001AD0ED121A90ED132A44
:1057B00060EEA11A41EE021A90ED142A40EE021A90
:1057C000C1ED011AD0ED0F1A60EEA10AD0ED101A4A
:1057D00041EE210A90ED111A40EE010AC1ED020AD4
:1057E00070470000F0B50E462DED028BADF2444D32
:1057F000B0EE408A054600240DF5846102EB84007A
:1058000006EB840790ED000A01EB840080ED000AAE
:1058100097ED000A03EB840780ED030A97ED000A79
:10582000641C80ED060A032CE8DB30222946FCA824
:10583000FBF715F9B0EE480AFCAA6CA92846FFF759
:1058400083FD254B254A6CA92846FFF701FD224B15
:10585000224A303369462846FFF720FEB0EE480A58
:10586000FCA92846FFF72EFD6B460DF58462FCA9C6
:10587000284600F059F96A461849284600F0E4F82D
:10588000FCA92846FFF7CDFE9FED150A002285ED05
:10589000180AFCA806EB820191ED000A00EB8201D8
:1058A000D1ED060A05EB8201521C30EE600A032A94
:1058B00081ED150AD5ED180A40EE000AC5ED180A6B
:1058C000E8DB014630222846FBF7C9F80DF2444DCB
:1058D000BDEC028BF0BD0000280000209C060020DB
:1058E00000000000F0B500252DE00024DFED190ACE
:1058F00025E000BFB0EE600A00204F8815E000BF31
:10590000B1F800E0D1F804C005FB0E0E0CEB8E0CD4
:1059100004FB060E9CED001AD2F804C0401C0CEBF0
:105920008E0CDCED001A01EE210A8742E8DC05FB53
:1059300006465868641C00EB860080ED000A168855
:10594000A642D7DC6D1C0888A842CEDC18801088DF
:105950005880F0BD0000000010B59FED110A0C4604
:105960005FF0000004EB8001401CD1ED000A032829
:1059700000EEA00AF6DB00F0F9FEB5EEC00AF1EE8B
:1059800010FA0CD05FF0000004EB8001401CD1ED58
:10599000000A032880EE801A81ED001AF4DB10BDA6
:1059A0000000000090ED180A704790ED0F0AD0ED4E
:1059B000100A20EE000A00EEA00A70472DE9F0431D
:1059C0000D462DED028B85B0002106461C4A1C4673
:1059D000019102910846B7EE000A039102EB8003A1
:1059E000401C83ED000A9028F8DB002205EB8200C2
:1059F00004EB820390ED000A06EB8200521C80ED5E
:105A0000060A93ED000A032A80ED090AEEDB00275F
:105A10009FED0C8A884641F2883900BFB0EE480AF3
:105A2000234601AA29463046CDF80080FFF7DAFE6A
:105A30007F1C4F45F2DB05B0BDEC028BBDE8F08367
:105A40009C0600206F12033BF0B5ADF2AC4D0C206C
:105A5000ADF89804ADF8A004ADF89204ADF89A043E
:105A6000ADF8A204ADF8900490A80D466B46CDF8B1
:105A70009414CDF89CD40024CDF8A404002004EBA9
:105A8000C40604EB4401371802EB870797ED000AC0
:105A900000EB810703EB8707B1EE400A401C87ED5E
:105AA000000A0328EFDB03209FED1E0A00EB8107AD
:105AB00003EB8707401C87ED000A0628F6DB06206B
:105AC000371802EB870717ED030A00EB810703EB9A
:105AD0008707B1EE400A401C87ED000A0C28EFDB77
