:020000040800F2
:10000000305F00205103000859030008810A0008EE
:10001000830A00089D030008FD0A00080000000094
:10002000000000000000000000000000390200088D
:100030009F03000800000000D90200083D030008EB
:100040006B0300086B0300086B0300086B030008D8
:100050006B0300086B0300086B0300086B030008C8
:100060006B0300086B0300086B0300086B030008B8
:100070006B0300086B0300086B0300086B030008A8
:100080006B0300086B0300086B0300086B03000898
:100090006B0300086B0300086B0300086B03000888
:1000A0006B0300086B0300086B0300086B03000878
:1000B0006B0300086B0300086B0300086B03000868
:1000C0006B0300086B0300086B0300086B03000858
:1000D0006B0300086B0300086B0300086B03000848
:1000E0006B0300086B0300086B0300086B03000838
:1000F0006B0300086B0300086B0300086B03000828
:100100006B0300086B0300086B0300086B03000817
:100110006B0300086B0300086B0300086B03000807
:100120006B0300086B0300086B0300086B030008F7
:100130006B0300086B0300086B0300086B030008E7
:100140006B0300086B0300086B030008A50A000896
:100150006B0300086B0300086B0300086B030008C7
:100160006B0300086B0300086B0300086B030008B7
:100170006B0300086B0300086B030008000000001D
:100180006B0300086B0300086B0300086B03000897
:100190006B0300086B0300086B0300086B03000887
:1001A00000000000000000006B030008DFF81CD016
:1001B00000F0E0F800F0A4FD0021034800F0F4FD99
:1001C00000F0B0FDFEE7000004000020305F0020DA
:1001D00080F309887047EFF309807047684680F321
:1001E000098804480078C00714BF0220032080F368
:1001F000148870471C1D0008DFF818C0EFF3058352
:100200001B0618BF6047EFF31483DB0708BF604786
:1002100000DF7047570E0008DFF818C0EFF30583C2
:100220001B0618BF6047EFF31483DB0708BF604766
:1002300000DF704735100008EFF30980816911F87D
:10024000021C99BB90E80F1010B5E047BDE81040C4
:10025000EFF3098C8CE807001C4B93E806009142F1
:1002600008BF704781B11EF0100F06BF2CED108A39
:100270000120002081F825002CE9F00FC1F828C0EA
:100280000CB401F0CFF90CBC1A60D2F828C0BCE85D
:10029000F00F92F8250000281ABFBCEC108A6FF00E
:1002A000120E6FF0020E8CF30988704710B5084AE1
:1002B0001268914209D8074C54F8214090E80F1079
:1002C000A047EFF3098C8CE80F0010BD3C00002024
:1002D000980300089803000810B501F067F8BDE81E
:1002E0001040154B93E80600914208BF7047EFF3AA
:1002F000098C1EF0100F06BF2CED108A0120002083
:1003000081F825002CE9F00FC1F828C00CB401F0E9
:1003100089F90CBC1A60D2F828C0BCE8F00F92F83A
:10032000250000281ABFBCEC108A6FF0120E6FF087
:10033000020E8CF3098870473C00002010B501F0D4
:1003400039FACCE710B500F085FD01F033FAC6E7C5
:100350000648804706480047FEE7FEE7FEE7FEE75F
:10036000FEE7FEE7FEE7FEE7FEE7FEE7A90A000874
:10037000AD010008064C074D06E0E06840F00103BF
:1003800094E8070098471034AC42F6D3FFF712FF09
:100390006C1D00088C1D000800000000FEE7FEE751
:1003A00001480068704700001C0000200B4810B591
:1003B000016841F400710160016841F480610160ED
:1003C000016841F480710160032000F03BF80F20C8
:1003D00000F006F800F015F8002010BD003C0240C7
:1003E00010B5044600F046F94FF47A71B0FBF1F015
:1003F00000F032FB00222146501E00F003F80020DE
:1004000010BD7047F0B40E4B1B680C46C3F30223BB
:10041000C3F10705042D00D90425191D072901D2B0
:10042000002300E0DB1E012606FA05F1491E2140EB
:1004300099409E40761E16403143F0BC00F022BB2E
:100440000CED00E0064900F0070208684FF6FF03D4
:10045000184040EA0220034A104308607047000039
:100460000CED00E00000FA052DE9F05FDFF8FCA1DB
:1004700004460F46DAF80000DFF8F48100F00F01BF
:100480007B4807F0FF0941F2883508F10808B942B6
:1004900062D28AF80090DAF8001001F00F01B94238
:1004A0007ED12178890707D5D8F80020A36822F0EB
:1004B000F0021A43C8F800202178C9072ED06168DD
:1004C00001291AD002291BD0032919D000688007FE
:1004D000002865DAD8F80000464620F003000843FB
:1004E000C8F80000FFF75CFF07466068012810D0DD
:1004F00002281AD003281ED029E000688003E7E70D
:1005000000688001E4E700BFFFF74AFFC01BA84274
:1005100059D83068C0F381000128F5D189E000BFC7
:10052000FFF73EFFC01BA8424DD83068C0F38100E2
:100530000228F5D17DE03068FFF732FFC01BA842EA
:10054000F9D940E0FFF72CFFC01BA8423BD8306828
:1005500010F00C0FF6D16CE02178890707D5D8F898
:100560000020A36822F0F0021A43C8F80020217886
:10057000C9074CD06168012928D0022929D0032954
:1005800027D000688007002849DAD8F8002022F038
:1005900003020A43C8F80020FFF702FF064600E006
:1005A0003DE0606801281DD0022829D0032838D0FA
:1005B000AB464546286810F00C0F28D0FFF7F0FE38
:1005C000811B5945F6D90320BDE8F09F00688003E0
:1005D000D9E700688001D6E7FFF7E2FE811B5945A5
:1005E00002D9F0E7AB4645462868C0F381000128F0
:1005F000F2D10CE0FFF7D4FE811B594502D9E2E7A6
:10060000AB4645462868C0F381000228F2D18AF83B
:100610000090DAF8000000F00F00B84209D0012085
:10062000D2E744462068FFF7BBFE801BA842F9D9F9
:10063000C9E72078400707D5D8F80010E26821F410
:10064000E0511143C8F800102078000708D5D8F809
:100650000010226921F4604141EAC201C8F800108B
:100660000F20FFF7BDFE0020AEE70000003C024077
:100670000038024010B500F017F808490968F02268
:1006800092FAA2F201F0F001B2FA82F2D140044AE9
:10069000515CC8400349086010BD000008380240A2
:1006A0005A1D00082000002030B51948006810F0DD
:1006B0000C01184812D0184C04290ED008290DD16D
:1006C0001349091F0A6802F03F030A68550247F6FA
:1006D000C07204D5B4FBF3F003E0204630BDB0FB9C
:1006E000F3F00B680968134092FAA2F2B2FA82F2B0
:1006F000D34058434FF4403292FAA2F201F4403111
:10070000B2FA82F2D140491C4900B0FBF1F030BD91
:10071000083802400024F400001BB7002DE9F84F10
:1007200004460078DFF81CA3C74DC0074FF0000651
:100730004BD0DAF800105046C1F38101012908D0EE
:100740000068C0F3810002280AD1281D0068400219
:1007500006D52868800338D56068002871D034E059
:10076000DFF8E49209F1020989F80060FFF718FE4A
:10077000804641F2883705E0FFF712FEA0EB080043
:10078000B8427DD828688003F6D4207989F8000023
:10079000606868B1FFF704FE804605E0FFF700FEE1
:1007A000A0EB0800B842ECD828688003F6D50CE02E
:1007B000FFF7F6FD804605E0FFF7F2FDA0EB08002D
:1007C000B842DED828688003F6D420789F4F80078F
:1007D0004FF0010B45D5DAF80010504611F00C0F20
:1007E0004FF0F80909D00068C0F3810002280BD14E
:1007F0009448001F0068400206D42868800714D57A
:10080000E06801281DD110E0E068D8B1C7F800B059
:10081000FFF7C6FD804605E0FFF7C2FDA0EB08002C
:100820006428AED828688007F6D5286899FAA9F216
:100830002169B2FA82F220F0F80091400843286062
:100840000FE0FCE03E60FFF7ABFD804606E000BF36
:10085000FFF7A6FDA0EB0800642811D828688007E0
:10086000F6D42078000729D5DFF8D8917848616957
:1008700009F16C0999B1C0F800B0FFF791FD00E0F3
:1008800086E0804606E000BFFFF78AFDA0EB080087
:1008900064287DD8D9F800008007F5D50EE0066001
:1008A000FFF77EFD804605E0FFF77AFDA0EB08002C
:1008B00064286DD8D9F800008007F5D42078400767
:1008C0005AD560483830016841F0805101600068B5
:1008D000DFF8809100F080500090D9F8001041F4CA
:1008E0008071C9F80010FFF75BFD804606E000BF8D
:1008F000FFF756FDA0EB0800642849D8D9F800009E
:10090000C005F5D5DFF83C8108F1680888F800607B
:10091000FFF746FD41F28839009005E0FFF740FD02
:100920000099411A494533D8D8F800008007F5D41A
:10093000207A88F80000A06878B1FFF731FD0090B8
:1009400006E000BFFFF72CFD0099411A49456ED81B
:10095000D8F800008007F5D50EE0FFF721FD0090E4
:1009600006E000BFFFF71CFD0099411A49455ED81B
:10097000D8F800008007F5D4A069E8B3DAF80010D1
:10098000C1F3810102295AD002283E6605D000E059
:100990004DE0FFF705FD04464CE0FFF701FD06467C
:1009A00005E000BFFFF7FCFC801B64283FD82868E7
:1009B0008001F7D4D4E90701084347F6C07292FAE0
:1009C000A2F2616AB2FA82F29140A26A4FF0FF335A
:1009D00003EB52024FF4403393FAA3F3B3FA83F3D9
:1009E0009A40114308434FF0706292FAA2F2E16A12
:1009F000B2FA82F2914000E01FE008431149091F5A
:100A00000860C7F860B0FFF7CBFC044605E000BF04
:100A1000FFF7C6FC001B642809D828688001F7D5B9
:100A20000BE000BFFFF7BCFC001B642802D90320C9
:100A3000BDE8F88F28688001F4D40020F8E7012091
:100A4000F6E7000008380240003802400000474244
:100A5000800E47420070004010B5401EB0F1807F0C
:100A600001D3012010BD4FF0E02460610F21601719
:100A700000F008F80020A06107202061002010BDD0
:100A8000FEE7FEE70907090E002806DA00F00F006E
:100A900000F1E02080F8141D704700F1E02080F89C
:100AA00000147047704700001048016841F470015D
:100AB00001600F48016841F0010101600C4A00210A
:100AC0000832116002680B4B1A400260031D0A4A8B
:100AD0001A60026822F48022026005480C3001602E
:100AE00002495806803908607047000088ED00E030
:100AF00000380240FFFFF6FE10300024FEE7000041
:100B00001A4810B5016892B041F080510160006848
:100B100000F0805011901648016841F44041016096
:100B20000068022400F440401190012000900190E0
:100B30008005CDE90640192008904FF4A870CDE952
:100B4000090407200B906846FFF7E8FD0D20CDE96A
:100B50000C0400200E904FF4A0500F90E002109073
:100B600005210CA8FFF780FC12B010BD40380240F0
:100B70000070004002E008C8121F08C1002AFAD124
:100B800070477047002001E001C1121F002AFBD10D
:100B9000704710B5002A06DA22F00042D21D22F07A
:100BA0000703102203E0D21C22F003030C2213B12E
:100BB0009C188C4201D9012010BD0244014483607D
:100BC000C0E90021C91AD018884202D81060024634
:100BD000F9E70020106010BD08480068C0010BD57F
:100BE00007480068C00707D005488038006800281B
:100BF00002DA04490120087070470000FCED00E0B3
:100C0000800E00E0500000204FF06042D36F002BB8
:100C1000FCD0036BD367D36F002BFCD0C07840EAC5
:100C20000120A2F87C0070474FF06041CA6F002A93
:100C3000FCD081F87C0070470EB5802200B109B16C
:100C400010460AE001780129FAD101A900F020F844
:100C5000042801D0002000E01020DDE9011203B0DB
:100C600000BD70B50D46040003D012B920780128EC
:100C700001D0802070BD204600F096FA28B12946A8
:100C8000204600F02EF8002070BD812070BD0000CD
:100C900010B504468089002822D0608904EB8000CA
:100CA000006908606078022805D10021204600F024
:100CB000CBFB00F0B9FB04F10C0000BFD0E85F1FD4
:100CC000491E8AB2C0E8512F0029F7D16089401C23
:100CD00080B26081E189884201D1002060810420D6
:100CE00010BD10B500F0B0FBBDE8104000F09CBB9B
:100CF00010B5FFF75BFBFFF703FF002010BD0000FE
:100D0000EFF3058008B182207047EFF31480C0072D
:100D100003D0DFF80CC000DF704700F0CFBE00004A
:100D2000BD1A000888B0EFF3058010B1822008B02A
:100D30007047EFF3148010F00301134806D0012927
:100D40001BD0022911D0032919D113E008A981F37E
:100D500009880078C0070BD05FF0020080F3148888
:100D6000BFF34F8FBFF36F8F09E00078C00706D144
:100D70000320F3E70078C00701D0FF20D7E7DFF8B2
:100D80000CC000DFD3E700001C1D00082D1B00086D
:100D9000EFF305820AB1FFF74FBFDFF808C000DFAD
:100DA00070470000991B0008EFF305820AB100208C
:100DB0007047EFF31482064B02F001025B781A438E
:100DC00003D0DFF810C000DF704700F003BF000061
:100DD00034000020D51B0008DFF80CC000DFDFF86E
:100DE0000CC000DFFEE70000451C0008611C000885
:100DF000DFF804C000DF7047991C0008094C4FF071
:100E0000FF3529462068FFF7C3FF02460846102A2F
:100E1000F7D1FFF7EDFF0028F3D0024608469047D0
:100E2000EFE7000018000020FEE7FEE70748016832
:100E30004FF0E020416100218161072101610448F8
:100E4000016841F07F41016040177047181D00089C
:100E500020ED00E0704750E8001F31B10B6840E81A
:100E60000032002AF7D108467047BFF32F8FFAE708
:100E700010B568B161B10B3121F00302016844681B
:100E80000B1A1B1B934205D2084609680029F5D1AD
:100E9000002010BD210007D021180368C1E90032ED
:100EA000016001F1080010BD4260083010BD000073
:100EB00070B50D46002812D04FF6FF71084C8842DD
:100EC00004D222680146104600F0ECFA2068457012
:100ED000044800F0D3F8BDE8704000F0B5BB70BD29
:100EE0003C000020FC3E00200F4810B50D49426830
:100EF0000E480B680068934204D00A60CB88421EFB
:100F00001A448A808A8880B282420AD1002008600E
:100F1000054800F0B3F80146BDE81040024800F073
:100F2000E5BA10BD54000020FC3E00204C0000201B
:100F300070B5194DE86800282CD0A88A401EA882F8
:100F4000002621E0A06838B161684160606810B196
:100F5000A16881606660A6600F482146183800F0DD
:100F6000C5FAA08AA8826078042804D10B49E08AD7
:100F700009880844A08201206070E068E860E068A9
:100F800008B10561E6602661A88A002802D1EC68F4
:100F9000002CD7D170BD0000143F00204C00002071
:100FA00070B504000FD00D4DA17801262868827815
:100FB00091420CD900F0B6FA286846702046BDE888
:100FC000704000F041BB064800F058F8F7E7667043
:100FD0002146BDE87040024800F088BA3C0000207D
:100FE000FC3E002010B50446008B08432083627845
:100FF000618B062A18D0052A19D1084217D001EAB8
:101000000002628388432083204600F0C5FA012055
:101010006070628B0821204600F0B6FA2146BDE8D8
:101020001040034800F062BA31EA0002EAD010BD75
:10103000FC3E0020814202D342688A4201D801204E
:10104000704750E8002F0A6040E80012002AF8D1EB
:101050000020704768B161B10022083902E0024601
:10106000006830B18842FAD12AB1006810600020CF
:1010700070470120704700214160F8E70146406851
:1010800042684A600B780022022B05D0012B03D066
:10109000032B01D04260704743680BB199604260F6
:1010A00082607047810700D00020704770B5044609
:1010B00000201546207001226270A17084F824106F
:1010C0006060A060E06020612062A082E0822083F6
:1010D000608384F82500E08C18B90548FFF7BBFE53
:1010E000E06229462046BDE8704000F01DB80000CF
:1010F000F801002008B1082901D2012070470144FD
:10110000091F002201600A6042601046704700001B
:1011100003480021016003490988C180704700002D
:1011200054000020141D000870B5C28C1C4D93089B
:1011300002D12A88C2F38D03C26A02EB83025407EC
:1011400000D5121F4FF0807442E902140024264695
:10115000B2F1400242F82460641C0E2CFAD3C46938
:101160001462826201632968C90014D5112B12D957
:101170004FF0FF31103B11EB53014FF0CC3305D052
:1011800042F8043C42F8083D491EF9D1C16A121FD9
:101190008A4200D91360C06A0249016070BD000034
:1011A000101D0008A52E5AE2C1898089081A7047CF
:1011B00001220270002242708270426002814281EC
:1011C000103982818908C181704700002DE9F04102
:1011D000044640680E464FF0000804F10C05E8B3E1
:1011E0006078012701283ED0022813D003285CD163
:1011F0000846FFF730FE050057D02046FFF73EFFB8
:101200000446294600F0BAF96770204600F0C4F998
:10121000214621E02046FFF731FF0646002100F07D
:10122000ADF92189F06904EB81010861D5E85F0F10
:10123000401C81B2C5E8501F0028F7D12089401C0E
:1012400080B22081E189884201D1A4F808807770BA
:10125000304600F0A1F93146174800E00CE0BDE847
:10126000F04100F043B92046FFF708FF044632463C
:10127000102100F089F9C7E7A089E189884216D2D8
:10128000208904EB80000661D5E85F0F401C81B225
:10129000C5E8501F0028F7D12089401C80B220816A
:1012A000E189884201D1A4F80880BDE8F081BDE859
:1012B000F0410320FFF7B8BDFC3E002070B50446A6
:1012C000808915460026C0B3608904EB8000006960
:1012D00008606089401C80B26081E189884200D149
:1012E0006681606810B1607802280BD014F10C049C
:1012F000D4E85F0F401E81B2C4E8501F0028F7D128
:10130000002070BD2046FFF7B9FE0546002100F021
:1013100035F92189E86904EB810108612089401CC5
:1013200080B22081E189884200D12681284600F0E0
:1013300033F92846FFF734FEE2E7FFE73DB10B48FB
:10134000626801682AB1204600F0D0F808E0012068
:1013500070BD616001684E6000688460012060704B
:1013600008212846FFF7A4FDF1E700003C0000201B
:10137000411C13D00B4A4FF6FE7190420CD800EB83
:101380004002C2EBC0120848036803EBC202521EBF
:10139000B2FBF3F0884200D9084670474FF6FF7061
:1013A0007047000000093D00281D000870B51B486B
:1013B000012102685170006800F0B4F8184D6C7893
:1013C00018E000BF05EBC40148680278EAB1012AC1
:1013D00020D000F00DF9E878641C844200D100248C
:1013E0000F48801CD0E84F1F491EC9B2C0E8421FF9
:1013F000002AF7D1A8780028E4D16C700948FFF7DB
:101400003DFEBDE8704000F01FB9098989B2FFF7C1
:10141000E9FDE0E78968FFF7D9FEDCE73C00002042
:10142000283E0020FC3E00200548017811B1012132
:101430004170704703494FF08050086070470000CA
:101440004400002004ED00E0F0B4154DAB1CEE7834
:101450004FEA0507D3E84F2FB24202D1BFF32F8FD7
:1014600011E0521CD4B2C3E8424F002AF2D100BFAF
:10147000D7E84F2F541CB44200D10024E4B2C7E88F
:10148000434F002BF4D1EB78934205D905EBC20210
:10149000C2E90101F0BC7047F0BC0220FFF7C4BCF8
:1014A000283E0020104A10B5D368ABB113469B8A82
:1014B00003E08CB12246A48A2344D4688B42F8D33B
:1014C000C460D0600261C46804B12061591A81828D
:1014D000908A401A908210BD0024C460D060C91A5E
:1014E00002619182848210BD143F002030B50278E1
:1014F0000023022A03D0012A01D0032A00D10123AC
:101500008C7800E01046426812B19578A542F9D275
:101510004A6041601BB102B19160886030BD00201B
:10152000FBE7000003494A6842600022826048608D
:1015300070470000FC3E002010B5836804462BB9BC
:10154000607801280ED1084B03E09B6818780028CA
:10155000FBD0204600F034F82146BDE81040184684
:10156000FFF7C4BF10BD0000FC3E002090F825101E
:10157000806A09B1603070472030704710B50C4662
:10158000FFF7F4FF046010BD70B515460C46FFF779
:10159000EDFFC0E9004570BD10B5016900290ED00E
:1015A000C268CA60C36800223BB18B8A848A234424
:1015B0008B82C3681961C26000E08A82026110BD3B
:1015C000816839B142684A604168002901D0806869
:1015D00088607047054906E04A68824202D1406847
:1015E0004860704711460029F6D17047FC3E002044
:1015F00010B5416881B1FFF741FD0446FFF7CCFF0C
:101600000120607001462046FFF7B8FF2146BDE883
:1016100010400348FFF76ABF4188491C418010BD54
:10162000FC3E002006480068D0E90A10814203D33E
:1016300000680449884202D00120FFF7F5BB7047DB
:101640003C000020A52E5AE2074902224860427061
:10165000064A1278002A05D006C98A4202D0C0780C
:10166000FFF7E2BA704700003C0000205000002065
:1016700070B5FFF7B1FA00200446204A204902E085
:1016800042F82040401C0B889842F9D31D48342270
:1016900001881D48FFF77DFA1C48008880B240F0A1
:1016A00000421B4801681B48FFF773FA1A480822DA
:1016B00001881A480068FFF76CFA194DFF20194A93
:1016C000E870EC8400212846FFF7F0FC164804215E
:1016D0000170446015480170C4600461848214483C
:1016E000154905600220687012480470447009783A
:1016F000C170BDE87040FFF70BBD0000AC3E00209C
:101700000C1D0008301D00087C000020101D000882
:10171000341D0008F8010020581D000800000020BA
:10172000C83E00202B0E0008FC3E0020143F002085
:101730003C000020283E00203C1D00081B4810B53E
:10174000016841F47F01016000684FF07F4101EAC8
:1017500000201649C0431439B0FA80F00968C0F17E
:101760000800C1F30221814200DB481C0F49091F18
:101770000B686FF08072824063F317020A60FFF714
:1017800055FB0B49002808600EDB00F1E021FF2229
:1017900081F8002400F01F020121914040118000D7
:1017A00000F1E020C0F8001110BD000020ED00E0C5
:1017B000480000200C4810B50268012151700068F3
:1017C000FFF7B0FEFFF790FB08480168491C016075
:1017D000FFF7AEFB00F06CFA0548FFF74FFCBDE8E1
:1017E0001040FFF731BF00003C0000204C000020FB
:1017F000FC3E0020002805D0810702D10178002995
:1018000000D000207047000030B50B4C0023626808
:1018100005E095688D4204D813461268491B002ADA
:10182000F7D10260816012B19568691A91600BB1BD
:10183000186030BD606030BD340000202DE9F041FB
:101840001E46174680460C4611F0FF0F00D14C1C77
:101850001648FFF700FB050026D0200AEF62E88457
:10186000E1B242462846EE61FFF720FC0124104811
:10187000104905E000EB840252F8042C22B1641CEC
:101880000A889442F6D9002400EB840040F8045CF6
:101890000948EC70007818B101212846FFF7B4F927
:1018A0002846FFF77DFB2046BDE8F0817C00002044
:1018B000AC3E00200C1D0008500000202DE9F05F18
:1018C000564DDFF850A1DFF8509129684FF000081D
:1018D000012618B1CA78AB46824241D1474681F809
:1018E0000180FEF778FC29688862FFF79BFE286874
:1018F000B046046A1AE06068B8B12046FFF7BEFB44
:1019000006460021FFF73AFE3046FFF745FE86F80F
:10191000018031464248FFF7E9FDA4F80280A66045
:10192000316AE1603462E46800E0E468002CE2D1EE
:101930002868C27809EB820141F8047CC16A394801
:10194000FFF778FB2868C7629AF8001011B10021F0
:10195000FFF75AF934482968FFF76CFB2F6053E012
:101960003249098888420DD809EB800757F8045C92
:1019700045B12846FFF724FE2846FFF70DFEB14685
:101980002C6A1DE0FF20BDE8F09F6068B8B12046DA
:10199000FFF774FB06460021FFF7F0FD3046FFF726
:1019A000FBFD86F8019031461D48FFF79FFDA4F826
:1019B0000290A660316AE1603462E46800E0E468A5
:1019C000002CE2D147F8048C44461648E96AFFF738
:1019D00031FBEC629AF8000018B100212846FFF7AD
:1019E00013F929461048FFF725FB0D48DBF80010D6
:1019F00040688B7882789A4209D981F8019008482A
:101A0000DBF80010FFF772FD0020FFF7C9FA002095
:101A1000B9E7000050000020AC3E00203C00002050
:101A2000FC3E0020F80100207C0000200C1D000876
:101A300070B51A4D80B11A4A128890421FD8194ABF
:101A400002EB800050F8044CCCB1A17084F8241053
:101A50002868A04205D014E028688170286880F8C2
:101A60002410114840688078884215D90E482968AA
:101A7000FFF73CFD29680120487000200AE0FF20A4
:101A800070BD2046FFF758FD6078012804D1064854
:101A9000FFF7F4FAFFF784FA002070BD3C00002045
:101AA0000C1D0008AC3E0020FC3E002002480068EF
:101AB000002800D0C07870473C00002010B5134CBF
:101AC000207860B91248400705D1124801681048D3
:101AD000FFF710FB08B1852010BDFFF7C9FD0E49C7
:101AE000FF2009688870207858B900210B4800F061
:101AF00041F80B49086000210A4800F06BF80A49D8
:101B00000860012020700020607010BD34000020AB
:101B1000081A0020381D00083C000020501D000855
:101B200018000020401D00081400002070B50F4D63
:101B3000687808B1002070BD0D4C206890F8241022
:101B40000020FFF775FF2068C178FF2903D1816A63
:101B5000203181F30988616811B96060002020603C
:101B6000FFF7ECFD01206870E4E70000340000207E
:101B70003C00002010B5040005D0216819B1606850
:101B800008B102780AB1002010BD8900103189B275
:101B9000FFF70EFB606810BD3EB504000D464FF028
:101BA000800012D0217801290FD12846FFF7E0FBF1
:101BB00082B2204601A9FFF781FB012801D0102045
:101BC00003E00DB1402000E00020DDE9011203B088
:101BD00030BD000070B50E4604002BD0206848B31D
:101BE000B4F9040010F1030F24DB032822DCE168C0
:101BF00029B11148FFF73CF905001BD000E0002592
:101C0000B4F90400E168001D40EA012133462A4688
:101C10002068FFF713FE40B1084901EB8000084936
:101C200050F8040C826A516370BD1DB12946024808
:101C3000FFF710FA002070BD081A0020AC3E00200B
:101C4000D90D000810B5FFF731FF002804D0034973
:101C500001EB800050F8040C10BD0000AC3E0020E9
:101C600010B5FFF7C7FD18B1C18C19B1C46A02E005
:101C7000802010BD0024C078FFF720FEFF2806D08A
:101C80001CB121460348FFF7E5F9002010BD812073
:101C900010BD0000081A002010B5FFF703FA20B1AC
:101CA00041690A680169104610BD0020014610BD57
:101CB0002DE9F041134E7468002C1CD0A068124F1F
:101CC000401E4FF00108A06012E0254624687460B1
:101CD000002229463868FEF7C4FF10B10420FFF740
:101CE000A3F86879012808D085F80480002C02D078
:101CF000A0680028E9D0BDE8F0812846E968FFF730
:101D000083FDF3E7340000201800002007000000E6
:101D100000040201050001003F90020001000000E4
:101D2000020001004E000400E80300000000000073
:101D300078010000101800002024000010000000AE
:101D4000FD0D00080200000001000000001000006E
:101D5000040000005C000020000000000000010200
:101D60000304010203040607080900008C1D000893
:101D7000000000205C000000740B0008E81D000853
:101D80005C000020D45E0000840B0008000000000E
:101D9000F10C00080000000001000000001000002D
:101DA0000000000000000000000000000024F4001B
:101DB00000000000000000000102030406070809FB
:101DC0000000000000000000000000000000000013
:101DD0000000000000000000000000000000000003
:081DE0000000000000000000FB
:04000005080001AD41
:00000001FF
