:020000040800F2
:10400000F8080020D5400008C1570008AD5200084C
:1040100000000000000000000000000000000000A0
:1040200000000000000000000000000065590008CA
:1040300000000000000000003D5800087D5A000804
:10404000E740000800000000E7400008E7400008E3
:10405000E7400008E7400008E74000089D440008EA
:1040600000000000E7400008E7400008F9430008AE
:10407000E7400008E7400008E740000800000000B3
:10408000E7400008E7400008E7400008E740000874
:10409000E7400008E7400008E7400008E740000864
:1040A000E7400008E7400008E7400008E740000854
:1040B000E7400008E740000800000000E740000873
:1040C0000348854600F078F900480047C1600008C1
:1040D000F80800200448804704480047FEE7FEE750
:1040E000FEE7FEE7FEE7FEE7FD5A0008C1400008D4
:1040F00030B50B46014600202022012409E00D4680
:10410000D5409D4205D31D469540491B2546954007
:1041100040191546521E002DF1DC30BDF8B502469F
:104120004A40D40F42004B0052085B089A4202D228
:104130000246084611464A0023D0C30D4A00DDB2AC
:10414000120EAD1A202D35DA49020126490AF6056C
:104150008A19002C00D0524220214F1B1146B94031
:104160002A411018C20D9A4221D0002C17D0012DDF
:1041700008DCDA05801AD20F8019D207DBB200F012
:10418000E1F8F8BDDA05801A012340001B06C018CB
:1041900080185A428018CA0F1043490007E04908A6
:1041A000C2071143DA05801A80194008801800F010
:1041B000C1F8F8BD61000122511A001BF7E7012286
:1041C000D2075140AAE70122D2075040A6E7024693
:1041D00070B54A40D30FDB0740002DD04A002AD0EB
:1041E000010E140E000212020919400A520A841824
:1041F000E50104465443000A120A2E045043A41950
:104200004219200CC543AA18120C0125AD03521CFB
:10421000521912047F39240400D0521C104301D4D7
:104220004000491EC2B20C06C0092018401C4008BC
:10423000802A02D003E0002070BD40084000002921
:1042400000DA0020184370BD70B502464A40D50F11
:1042500040004A00ED0740085208002814D0002A08
:1042600012D0C40DD30D41020120C0055202490AEB
:10427000520AE41A091812187D34914201D3641CC1
:1042800000E04900002C01DA002070BD00239142BB
:1042900001D3891A0343400849000028F7D10029B7
:1042A0000AD0914202D10121C90705E0914201D211
:1042B000012101E00121C943E005C018401900F0C7
:1042C00039F870BDC217C10F504010B54018CA0769
:1042D0009623002100F036F810BDC20F41004002C5
:1042E0000123400ADB05D207090EC0187F2901DA35
:1042F00000207047962903DC9623591AC84001E034
:1043000096398840002AF4D0404270470122D207F3
:10431000002800DB101A002900DB511A8142704787
:104320000122D207002800DB101A002900DB511AF5
:1043300088427047002904DA401C490001D1400836
:104340004000704770B40024050C05D1102400040F
:1043500002D1002921D01124050E01D10002083418
:10436000050F01D10001241D850F01D18000A41C7F
:10437000002801DB4000641C002908D020252E1BEA
:104380000D46F540A14000D0012129430843010614
:104390001B1B000ADB1D02D5002070BC7047DB052B
:1043A000181880180029F8DA401C4900F5D170BCB3
:1043B0004008400070470000064C0125064E05E00D
:1043C000E36807CC2B430C3C98471034B442F7D336
:1043D000FFF77AFE4462000864620008012003E0EF
:1043E0006021044A1154401CFF2122318842F7DB2E
:1043F000704700006C03002010B501F0A5FD10BD52
:1044000010B50446054A2168881A1421FFF770FE8A
:104410008000206401480838E06310BD08000240B5
:1044200010B51B48406980210840002813D0802027
:10443000174948614021174800F060F9002805D06D
:1044400015480068401E1449086004E012480068DE
:10445000401C114908600E484069012109030840C9
:10446000002813D008460A4948614110094800F065
:1044700045F9002805D008484068401C06494860B6
:1044800004E005484068401E0349486010BD000034
:1044900000040140000800481001002010B5FFF79B
:1044A000BFFF10BD00BFFEE770B504460025002C1D
:1044B00001D1012070BD022121200155206805682D
:1044C00011480540A16860680843E1680843216914
:1044D000084361690843A1690843E169084305434A
:1044E000206805602046FFF78BFF0020A062E06295
:1044F00020636063A0630121212001550021202059
:1045000001550020D6E700000FC0FFFF78B5034635
:10451000002200240020DEE0012696400D68354090
:104520002C46002C7ED04D68022D02D04D68122DF5
:1045300015D1D508AE001D462035A8595507EE0EF9
:104540000F25B5400646AE4330465607F60E0D69B8
:10455000B5402843D508AD001E4620367051186876
:1045600056000325B5400646AE4330460D79AD07EB
:10457000AD0F5600B540284318604D68012D08D096
:104580004D68022D05D04D68112D02D04D68122DB9
:1045900018D1986856000325B5400646AE4330460C
:1045A0005600CD68B540284398605868012595406D
:1045B0000646AE43304610264D6835402D099540DD
:1045C00028435860D86856000325B5400646AE43D8
:1045D000304656008D68B5402843D860012636071E
:1045E0004D683540B54275D100BF3E4DAD690126DD
:1045F00035433C4EB5613546AD69ED07ED0F00958D
:1046000000BF00BF384D9608B600A85995072E0F79
:104610000F25B5400646AE4330460925ED06AB42B0
:1046200003D100E056E000250FE0304DAB4201D150
:1046300001250AE02E4DAB4201D1022505E02D4DAA
:10464000AB4201D1032500E005259607360FB540A2
:104650002843254D9608B600A851274D28680546E1
:10466000A5432846012636044D683540B54202D19F
:10467000054625432846204D286068680546A54321
:104680002846012676044D683540B54202D10546DC
:1046900025432846184D6860A8680546A543284666
:1046A000012636054D683540B54202D10546254301
:1046B0002846114DA860E8680546A543284601260E
:1046C00076054D683540B54202D10546254328465A
:1046D000094DE860521C0D68D540002D00D01BE745
:1046E00078BD0000001002400800014000040048AE
:1046F00000080048000C004800040140024613690D
:104700000B40002B01D0012000E0002070474269DF
:104710004A4042617047002A01D0816100E0816215
:104720007047000001480068704700000001002049
:1047300002480068401C01490860704700010020E1
:1047400010B506480068102108430449086000209D
:1047500000F006F800F018F8002010BD002002401C
:1047600070B5044600F012F906467D21C900FFF736
:10477000BFFC054600F0A0FC00222146501E00F0C0
:1047800031F8002070BD000008B500BF0E488069F8
:10479000012108430C49886108468069C007C00FA1
:1047A000009000BF00BF00221146501F00F01AF811
:1047B00000221146901E00F015F800221146501EEE
:1047C00000F010F808BD00000010024000BFC20653
:1047D000D20E01219140024A116000BF70470000D3
:1047E00000E100E070B504460D4616462946204615
:1047F00000F0E8FF70BD000070B504460D460026CD
:104800005D480068C007C00FA8420ED25A48006831
:104810004008400028435849086008460068C0071F
:10482000C00FA84201D0012070BD022120680840BD
:10483000022807D151484068F0218843A168084305
:104840004E4948602078C007C00F00285FD06068DC
:10485000012808D14948006801214904084000287E
:1048600015D10120E0E76068022808D143480068BC
:10487000012149060840002809D10120D4E73F481A
:10488000006802210840002801D10120CCE73B4804
:104890004068800880006168084338494860FFF735
:1048A00041FF0646606801280FD107E0FFF73AFF95
:1048B000801B3349884201D90320B5E72F4840685F
:1048C0000C2108400428F1D121E0606802280FD1B2
:1048D00007E0FFF727FF801B2949884201D9032001
:1048E000A2E7264840680C2108400828F1D10EE0D4
:1048F00007E0FFF717FF801B2149884201D90320F9
:1049000092E71E4840680C2108400028F1D11A485F
:104910000068C007C00FA8420ED9174800684008B9
:10492000400028431449086008460068C007C00FCB
:10493000A84201D0012077E704212068084004281C
:1049400008D10E484068072109028843E1680843FE
:104950000A49486000F020F808494968F0221140EF
:104960000909084A515CC840074908600020FFF760
:10497000F7FE002058E7000000200240001002402F
:10498000881300002C6200084001002001480068E4
:104990007047000040010020F0B589B025A0014615
:1049A0000EC9C06805AC0EC4089026A001460EC909
:1049B000C06801AC0EC40490002400260027002526
:1049C00000200090234844680C20204000282AD072
:1049D000042802D0082825D102E01F48009025E0D5
:1049E0000F2080042040800C05A90D5C1948C06A86
:1049F0000007000F01A90E5C0320C0032040012125
:104A00000904884206D131461348FFF771FB684319
:104A1000074605E031461148FFF76AFB6843074641
:104A2000009703E000BF0D48009000BF00BF009852
:104A300009B0F0BD02030405060708090A0B0C0DB6
:104A40000E0F10100102030405060708090A0B0CDB
:104A50000D0E0F10001002400024F40000127A0026
:104A6000F8B5044600252078C007C00F002872D092
:104A7000FA4840680C21084004280CD0F7484068E8
:104A80000840082813D1F54840684903084001212F
:104A9000090488420BD1F14800680121490408400B
:104AA00000286BD06068002868D10120F8BD00BFE5
:104AB0006068012807D1E94800680121090408431A
:104AC000E649086031E0606800280ED1E3480068DC
:104AD000012109048843E149086008460068012172
:104AE00089048843DD4908601FE0606805280ED10D
:104AF000DA480068012189040843D849086008465B
:104B00000068012109040843D44908600DE0D34836
:104B10000068012109048843D049086008460068FC
:104B2000012189048843CD49086000BF60680028DE
:104B300012D0FFF7F7FD054606E0FFF7F3FD401B37
:104B4000642801D90320B1E7C44800680121490461
:104B500008400028F1D011E0FFF7E4FD054606E02B
:104B6000FFF7E0FD401B642801D903209EE7BB4806
:104B700000680121490408400028F1D10221206881
:104B80000840022862D1B54840680C21084000283E
:104B90000CD0B2484068084008281CD1AF48406893
:104BA000490308400121C903884214D1AB48006879
:104BB00002210840002804D0E068012801D001202B
:104BC00074E7A6480068F82188432169C9000843B2
:104BD000A24908603AE0E068002820D09F480068B9
:104BE000012108439D490860FFF79CFD054606E04A
:104BF000FFF798FD401B022801D9032056E797488C
:104C00000068022108400028F2D094480068F8218A
:104C100088432169C90008439049086016E08F481D
:104C20000068400840008D490860FFF77BFD05469D
:104C300006E0FFF777FD401B022801D9032035E786
:104C400086480068022108400028F2D10821206827
:104C50000840082831D1E069002817D07F48406A11
:104C6000012108437D494862FFF75CFD054606E0E7
:104C7000FFF758FD401B022801D9032016E77748AB
:104C8000406A022108400028F2D016E07348406ACA
:104C90004008400071494862FFF744FD054606E0C0
:104CA000FFF740FD401B022801D90320FEE66B48B8
:104CB000406A022108400028F2D1042120680840FF
:104CC000042871D100266548C0698906084000287B
:104CD0000DD100BF6148C06908436049C8610846FA
:104CE000C06909040840009000BF00BF01265C486D
:104CF0000068FF2101310840002816D1584800689B
:104D0000084357490860FFF70DFD054606E0FFF729
:104D100009FD401B642801D90320C7E650480068FC
:104D2000FF21013108400028F1D000BFA068012810
:104D300006D14A48006A01210843484908622BE02D
:104D4000A06800280CD14548006A4008400043494B
:104D500008620846006A04218843404908621BE053
:104D6000A06805280CD13D48006A042108433B494E
:104D700008620846006A01210843384908620BE0CE
:104D80003648006A40084000344908620846006A14
:104D9000042188433149086200BFA068002813D06D
:104DA000FFF7C0FC054608E029E0FFF7BBFC401B0D
:104DB0002C49884201D9032078E62848006A02215C
:104DC00008400028F1D011E0FFF7ACFC054607E0F1
:104DD000FFF7A8FC401B2349884201D9032065E660
:104DE0001E48006A022108400028F1D1012E05D199
:104DF0001A48C069310788431849C86100BF1021AB
:104E00002068084010285FD1606901282CD1134820
:104E1000406B04210843114948630846406B012157
:104E200008430E494863FFF77DFC054606E0FFF79F
:104E300079FC401B022801D9032037E60748406B64
:104E4000022108400028F2D00448406BF821884332
:104E5000A169C90008430149486335E000100240D8
:104E600000700040881300006069401D00280FD1C9
:104E70004E48406B042188434C4948630846406BC8
:104E8000F8218843A169C9000843484948631BE0E9
:104E90004648406B04210843444948630846406B38
:104EA000400840004863FFF73DFC054606E0FFF779
:104EB00039FC401B022801D90320F7E53B48406B31
:104EC000022108400028F2D1206A00286CD037481F
:104ED00040680C210840082864D0206A022847D185
:104EE0003248006801210906884330490860FFF70D
:104EF00019FC054606E0FFF715FC401B022801D906
:104F00000320D3E52948006801214906084000280C
:104F1000F1D100BF2548C06A00090001E16A0843D9
:104F20002249C862616AA06A0843204949687B2215
:104F3000D203914308431D49486000BF08460068FA
:104F400001210906084319490860FFF7EBFB0546F4
:104F500006E0FFF7E7FB401B022801D90320A5E587
:104F6000124800680121490608400028F1D01BE0E2
:104F70000E4800680121090688430C490860FFF7C4
:104F8000D1FB054606E0FFF7CDFB401B022801D907
:104F900003208BE5054800680121490608400028E8
:104FA000F1D101E0012081E500207FE50010024001
:104FB00070B50446002C01D1012070BD606A002844
:104FC00000D100BF0021A1625D20005D002804D156
:104FD0005C200155204600F059F802215D20015562
:104FE0002068006840218843216808600721090281
:104FF000E068884201D9002501E001252D030F2139
:105000000902E068884206D007210902E068884268
:1050100001D00021A162206B002809D107210902DB
:10502000E068884202D90221216301E00121216365
:10503000A168606808432169084361690843012247
:105040005202A16911400843E1690843216A0843FB
:10505000A16A084321680860A069000C0421084087
:10506000616A0843616B0843E1680843284321688B
:1050700048602068C069910088432168C8610020A9
:10508000206601215D200155002096E77047000051
:10509000042806D10649096904221143044A116112
:1050A00005E00349096904229143014A11617047EF
:1050B00000E000E07047000070B504462546681E19
:1050C0000949884201D901200CE0681E074948615E
:1050D0000321081F00F076FB0020044988610720A7
:1050E0000861002070BD0000FFFFFF0000E000E04D
:1050F00010B5FFF7DFFF10BD10B50446002C01D13D
:10510000012010BD3D20005D002805D100213C207C
:105110000155204600F00CF802213D200155211DCB
:10512000206800F02BFD01213D2001550020E8E71B
:10513000704770B504460D46164600BF3C20005D22
:10514000012801D1022070BD01213C20015500BF82
:1051500002213D200155002E06D0042E1BD0082E22
:1051600033D00C2E62D147E02946206800F064FD60
:105170002068806908210843216888612068806967
:10518000042188432168886120688069296908436F
:10519000216888614BE02946206800F0A7FD20685F
:1051A00080690121C90208432168886120688069FB
:1051B0000121890288432168886120688069296902
:1051C000090208432168886131E02946206800F01F
:1051D000F1FD2068C069082108432168C861206882
:1051E000C069042188432168C8612068C0692969B1
:1051F00008432168C8611AE02946206800F03CFE97
:105200002068C0690121C90208432168C86120687B
:10521000C0690121890288432168C8612068C0698A
:105220002969090208432168C86100E000BF00BF86
:1052300001213D20015500BF00213C20015500BF48
:10524000002080E730B504460D460122294620683B
:1052500000F0E4FC1149206888420BD01049206816
:10526000884207D00F492068884203D00E49206841
:10527000884201D1012000E00020002806D02068EB
:10528000406C0121C9030843216848642068006814
:105290000121084321680860002030BD002C014036
:1052A00000400140004401400048014000BFFEE7CB
:1052B00000B587B000BF174840690121C904084301
:1052C00014494861084640690121C9040840019019
:1052D00000BF00BF2120C00102900F4803900020B2
:1052E000049002A90D48FFF711F9012200210720BF
:1052F000FFF778FA0720FFF769FA21208001029072
:1053000000200390049002A90448FFF7FFF807B0BB
:1053100000BD00000010024000001110000800480D
:1053200000B59DB000BF60484069012149040843B1
:105330005D494861084640690121490408400090E0
:1053400000BF00BF00BF5848406989000843564964
:105350004861084640690121C9040840009000BF27
:1053600000BF00BF50488069091208434E49886158
:1053700008468069C9140840009000BF00BF00BF04
:105380004948C069022108434749C8610846C069C5
:1053900002210840009000BF00BF002209024348DC
:1053A000FFF7B9F90022FF2101310920C006FFF7FC
:1053B000B2F90022012189023C48FFF7ACF9002232
:1053C000012189020920C006FFF7A5F90320400248
:1053D000019001200290002003900320049001A975
:1053E0003248FFF793F80520000201900120029057
:1053F000002003900320049001A90920C006FFF7B4
:1054000085F80120400201900220029000200390C4
:1054100004900220059001A90920C006FFF776F844
:10542000FF200130019002200290002003900490A0
:10543000059001A91D48FFF769F81D480D901D4909
:105440001D480068FEF754FE401E0E9000210F918B
:10545000FF210131109100211191129113910DA89A
:10546000FFF74AFE60200690002008900A900990FD
:105470000B900C900790042206A90DA8FFF759FE87
:1054800004210DA8FFF7DEFE0C480D900DA8FFF7D4
:1054900033FE082206A90DA8FFF74BFE08210DA830
:1054A000FFF7D0FE1DB000BD00100240000800480C
:1054B000002C0140001027004001002000040040A3
:1054C00000B500200C49486008600C49486008603D
:1054D0000B4908600B4908600B49486008600B499C
:1054E000486008600A49486008607F22D20509497F
:1054F000094800F099FA00BD100100203801002091
:10550000300100203401002028010020200100206B
:1055100018010020CDCCCC3E9A99193F08B500BFA8
:105520000748406901218905084305494861084643
:105530004069012189050840009000BF00BF08BDF7
:105540000010024010B5FFF7BBFFFFF7B1FEFFF7F9
:10555000E7FE10BDFEB500249BE0A200504B995819
:10556000A200504B9858FEF72AFE054614206043CF
:105570004D4A801841682846FEF729FE0746142048
:105580006043494A801801693846FEF7C7FD142177
:105590006143454A891808611421614389180869E3
:1055A0004249FEF7B3FE01D240480FE014216143A7
:1055B0003D4A891808693E49FEF7B2FE01D23C48CF
:1055C00004E0142060433849401800691421614305
:1055D000354A89180861142060438018C16828463C
:1055E000FEF7EDFD0090142060432F4A801881687B
:1055F0000098FEF7ECFD0746142161432A4A5058F3
:105600002946FEF7E4FD009014206043264A8018E6
:1056100001690098FEF782FD39460190FEF77EFD94
:1056200006461420604320494018C560A100214A65
:10563000515808463238FEF745FE07463146FEF718
:105640006FFE07D2A1001B4A515808463238FEF7B8
:1056500039FE14E0A100174A515808463230FEF7CF
:1056600031FE07463146FEF751FE07D2A100114A2E
:10567000515808463230FEF725FE00E03046064617
:105680003046FEF72AFE07463946204600F06CF900
:10569000641C022C00DA60E7012007490860FEBDA7
:1056A00028010020200100204403002000007FC3C7
:1056B00000007F431801002030010020FEB5FFF7F5
:1056C00031F839490968441A052C6CDBFFF72AF8D0
:1056D00035490860E1006118302251430846FEF761
:1056E000F1FD324902900968314A1268891A7D2217
:1056F000D20051430846FEF7E5FD2E490090FEF723
:1057000066FD01900299FEF79FFD07462A48016851
:105710003846FEF754FD064601218907FEF794FD41
:105720000546254801682846FEF7F8FC224908602E
:10573000E1006118302251430846FEF7C3FD1B49C2
:10574000029049681A4A5268891A7D22D200514350
:105750000846FEF7B7FD17490090FEF738FD0190A7
:105760000299FEF771FD0746134841683846FEF777
:1057700026FD064601218907FEF766FD05460E480F
:1057800041682846FEF7CAFC0B4948600748006894
:1057900007490860054840684860084800680128D3
:1057A00001D1FFF7D7FEFEBD34010020100100201B
:1057B0003801002000007042280100203001002044
:1057C0007047000010B5002819DA1A4A03071B0FAA
:1057D000083B9B089B00D2588307DC0EFF23A340A5
:1057E0009A438B071B0E8407E40EA3401A43114B08
:1057F0000407240F083CA408A4001A5118E00E4A1C
:1058000003231B02D21883089B00D2588307DC0EA7
:10581000FF23A3409A438B071B0E8407E40EA3408B
:105820001A43054B032424021B198408A4001A51AF
:1058300010BD00001CED00E000E100E0704700003A
:1058400000B597B000BF4148C069012189030843F2
:105850003E49C8610846C06901218903084000909B
:1058600000BF00BF00BF39484069490108433749BC
:105870004861084640690121C9040840009000BF02
:1058800000BF00BF31484069012108432F494861EA
:1058900008464069C007C00F009000BF00BF082045
:1058A0000190022002900020039003200490012028
:1058B000059001A92648FEF729FE264826490860DA
:1058C00010212548C1610021816001214161002131
:1058D000016181620721C16203214902C160002187
:1058E000016201214902816100214162416301633A
:1058F000FF200530184948600846FFF759FB174854
:105900000690102007900021089180210991002124
:105910000A910B910C9141020D910020119006A863
:10592000FEF7C2FD0B484068022108430949486060
:1059300008460068402108430649086000210848DD
:105940004170FF382138017017B000BD00100240CF
:105950000008004800380040900400205800024031
:105960008C0400207047000070B505460C460020EE
:1059700028490860FE20C043844200DA04E0FF2C7E
:1059800001DDFF2000E020460446002D20D1224802
:105990000460002C0DDA64420022012149021F48F4
:1059A000FEF7B9FE012211020920C006FEF7B3FE80
:1059B0000BE0012251021948FEF7ADFE0022FF2143
:1059C00001310920C006FEF7A6FE1548C4631FE09A
:1059D00011484460002C0DDA644200220121890242
:1059E0000E48FEF798FE012291020920C006FEF73C
:1059F00092FE0BE0012291020848FEF78CFE002285
:105A0000012189020920C006FEF785FE054884634E
:105A100070BD00003001002018010020000800487F
:105A200000040040002C014010B5064B586118607E
:105A300099615960DA619A6000241C62DC605C62E2
:105A40001C6110BD440300200948806940084000E3
:105A500007498861FF202330C8610648486206482C
:105A6000086208468069012108430149886170473E
:105A7000400002406C0300200C38004010B5FEF7D7
:105A800057FEFFF735FB10BD30B591B001200590F2
:105A90000690089002200D90C1030E910521C904C3
:105AA0000F910321109105A8FEF7DAFF002801D01D
:105AB000FEF7F8FC072001900220029000200390DE
:105AC0000490012101A8FEF797FE002801D0FEF7FF
:105AD000E9FCFEF75BFF05467D21C900FEF708FBE8
:105AE0000446FFF7E9FA0420FFF7D2FA0022114634
:105AF000501EFEF777FE11B030BD00001C48006854
:105B0000012108431A4908600846406819490840BD
:105B1000174948600846006817490840144908605A
:105B20000846006801218904884311490860084635
:105B300040683F21090488430D4948600846C06A0F
:105B400000090001C8620846006BFF2194318843B8
:105B5000074908630846006B80210843044908632D
:105B60000846406B4008400048630020886070474A
:105B7000001002400CB8FF08FFFFF6FE10B500222F
:105B80000268204B984202D01F4B984205D17024E6
:105B90001346A3431A464B681A431A4B98420ED039
:105BA000194B98420BD0194B984208D0184B984289
:105BB00005D0184B984202D0174B984206D10324C7
:105BC00024021346A3431A46CB681A438024134683
:105BD000A3434C6923431A4602608B68C3620B6877
:105BE0008362084B984208D0094B984205D0094B74
:105BF000984202D0084B984201D10B6903630123FC
:105C0000436110BD002C0140000400400020004012
:105C100000400140004401400048014030B50023ED
:105C200001248C402346046A9C430462046A15469E
:105C30008D402C43046230BD70B500240022002347
:105C4000056A6D086D000562026A43688469702602
:105C50002546B5432C46A408A4000D682C43022613
:105C60001546B5432A468D682A431C4DA84200D1EB
:105C70000BE01B4DA84200D107E01A4DA84200D10D
:105C800003E0194DA8420AD100BF08261546B543C6
:105C90002A46CD682A4304261546B5432A460F4DA9
:105CA000A84208D00E4DA84205D00E4DA84202D001
:105CB0000D4DA8420CD1FF2601361D46B5432B469B
:105CC00076001D46B5432B464D692B438D692B430A
:105CD000436084614D684563026270BD002C0140E1
:105CE00000400140004401400048014070B50024DC
:105CF00000220023056A1026B5430562026A436844
:105D00008469072636032546B5432C46032636020A
:105D10002546B5432C460D682D022C4320261546FA
:105D2000B5432A468D682D012A431E4DA84200D155
:105D30000BE01D4DA84200D100BF1C4DA84200D170
:105D400000BF1B4DA8420BD10AE080261546B54383
:105D50002A46CD682D012A4340261546B5432A46DA
:105D6000104DA84208D0104DA84205D00F4DA842B2
:105D700002D00F4DA8420ED10126B6021D46B543F2
:105D80002B4676001D46B5432B464D69AD002B438F
:105D90008D69AD002B43436084614D688563026269
:105DA00070BD0000002C0140004001400044014053
:105DB0000048014070B5002400220023056AFF2638
:105DC0000136B5430562026A4368C46970262546F8
:105DD000B5432C46A408A4000D682C430126760286
:105DE0001546B5432A468D682D022A431E4DA8420A
:105DF00000D10BE01D4DA84200D100BF1C4DA842B0
:105E000000D100BF1B4DA8420CD10BE00126F602C9
:105E10001546B5432A46CD682D022A43761015460D
:105E2000B5432A46104DA84208D0104DA84205D0CF
:105E30000F4DA84202D00F4DA8420ED101263603C5
:105E40001D46B5432B4676001D46B5432B464D698E
:105E50002D012B438D692D012B434360C4614D6897
:105E6000C563026270BD0000002C0140004001408B
:105E7000004401400048014070B500220023002486
:105E8000056A01263603B5430562036A4468C269A0
:105E9000072636031546B5432A460326360215461D
:105EA000B5432A460D682D022A43012676031D4676
:105EB000B5432B468D682D032B430D4DA84208D0CA
:105EC0000C4DA84205D00C4DA84202D00B4DA84263
:105ED00007D10126B6032546B5432C464D69AD01D1
:105EE0002C434460C2614D680564036270BD0000CC
:105EF000002C0140004001400044014000480140A6
:105F00000F4A5268520852000D4B5A601A4691606F
:105F100010610C4ADA601A4652680A231A43084B89
:105F20005A601A46526801231A43054B5A60054AC3
:105F3000283A926880231A43024B283B9A607047A4
:105F4000400002402844004000B50F2000032449CF
:105F50004860244800682449096888420ED12048D6
:105F600040304068400840001D49403148601F48AB
:105F70008068802188431D4988602FE01A480068A6
:105F800018490968884215DD174A1268154B1B68C5
:105F9000D11A174A134B1B68D018FFF7B1FF1348EB
:105FA000806880210843114988600F4800680D49C6
:105FB000086013E00B4A1268FF230133991A0C4A58
:105FC000084B1B68D018FFF79BFF084880688021AA
:105FD00008430649886000200249086000BD0000AF
:105FE000000002400801002004010020004400409D
:105FF0004402002070B503460A4618461824604340
:10600000411C002038E00F24251A0124AC40144024
:10601000002C04D078240D18194E745503E0602428
:106020000D18174E74551724251A0124AC4014403E
:10603000002C06D078250C4608342418104E35550F
:1060400005E060250C46083424180D4E355507240C
:10605000251A0124AC401440002C06D078250C46AB
:1060600010342418064E355505E060250C461034D2
:106070002418034E3555401C0828C4DB70BD0000B1
:106080006C03002030B47446641E2578641CAB4257
:1060900004D3635D5B00E31830BC18471D46F8E786
:1060A00002E008C8121F08C1002AFAD170477047E1
:1060B000002001E001C1121F002AFBD1704700003F
:1060C00086B0002662B6FEF73BFBFFF7DDFCFFF76C
:1060D00025FA00BF4A48406901214904084348495C
:1060E000486108464069012149040840009000BF0A
:1060F00000BF88100190112002900120039003201E
:10610000049001A90920C006FEF700FA00BF3C4830
:1061100040690121890408433949486108464069BA
:10612000012189040840009000BF00BF8811019040
:1061300011200290012003900320049001A931480E
:10614000FEF7E4F9012211032E48FEF7E4FAFFF707
:10615000F9F9FFF775FBFEF741F9FFF775FC4DE024
:10616000FFF7ACFAFEF7DEFA801B7D21C9008842FA
:1061700044D3FEF7D7FA06467D21C9003046FDF725
:10618000B7FF04460D21FDF7B3FF0D460C2D02D1DC
:10619000FEF724F929E02B00FFF774FF0C070A0D26
:1061A0000F11131517191B1D1F210F24240416E0AE
:1061B0000F24240213E00F2411E0134C0FE0134CC2
:1061C0000DE0134C0BE0134C09E0134C07E0134CAB
:1061D00005E0134C03E0134C01E0134C00BF00BF7B
:1061E00021462846FFF706FF00BFFFF72DFC0121DF
:1061F000C9030920C006FEF78AFA00BFB0E7000015
:1062000000100240000400480101010002020200E7
:1062100004040400080808001010100020202000CA
:106220004040400080808000FFFFFF000000000031
:106230000000000001020304060708090000000036
:106240000102030464620008000100204400000011
:10625000A0600008A862000844010020B407000004
:10626000B060000800000000000000000000000016
:10627000000000000000000000000000000000001E
:10628000000000000000000000000000000000000E
:1062900000000000000000000000000000000000FE
:0862A0000000000000127A006A
:04000005080040C1EE
:00000001FF
