:020000040800F2
:10000000D8140020A1010008A5130008A1130008BE
:1000100000000000000000000000000000000000E0
:10002000000000000000000000000000A91300080C
:100030000000000000000000A7130008AB13000838
:10004000B301000800000000B3010008B30100087C
:10005000B3010008B3010008B3010008B3010008B0
:1000600000000000B301000869040008B3010008A3
:10007000B3010008B3010008B3010008000000004C
:10008000B3010008B3010008B3010008B301000880
:10009000B3010008B3010008B3010008B301000870
:1000A000B3010008B3010008B3010008B301000860
:1000B000B3010008B301000800000000B30100080C
:1000C00000F002F800F040F80CA030C808382418FE
:1000D0002D18A246671EAB4654465D46AC4201D180
:1000E00000F032F87E460F3E0FCCB6460126334272
:1000F00000D0FB1AA246AB46334318474C250000FC
:100100006C250000103A02D378C878C1FAD852079B
:1001100001D330C830C101D504680C6070470000BD
:100120000023002400250026103A01D378C1FBD813
:10013000520700D330C100D50B6070471FB500F0E7
:100140004DF91FBD10B510BD00F05AF91146FFF76B
:10015000F5FF02F0F7F900F072F903B4FFF7F2FFD0
:1001600003BC00F079F9000070B505460C46164650
:1001700002E00FCC0FC5103E102EFAD2082E02D38B
:1001800003CC03C5083E042E07D301CC01C5361F9E
:1001900003E021782970641C6D1C761EF9D270BDB5
:1001A0000748804707480047FEE7FEE7FEE7FEE70F
:1001B000FEE7FEE704480549054A064B7047000084
:1001C000B9130008C1000008D80E0020D814002080
:1001D000D8100020D810002010B5202A04DB0846D3
:1001E000203AD040002110BD0B462024D340D040FF
:1001F000A21A91400843194610BDF8B5042A2CD321
:10020000830712D00B78491C0370401C521E8307D1
:100210000BD00B78491C0370401C521E830704D07E
:100220000B78491C0370401C521E8B079B0F05D096
:10023000C91ADF002023DE1B08C90AE0FFF794FF7C
:10024000F8BD1D4608C9FD401C46B4402C4310C0F3
:10025000121F042AF5D2F308C91A521EF0D40B78E3
:10026000491C0370401C521EEAD40B78491C0370D1
:10027000401C012AE4D409780170F8BD002203096A
:100280008B422CD3030A8B4211D300239C464EE0B1
:1002900003460B433CD4002243088B4231D303096D
:1002A0008B421CD3030A8B4201D394463FE0C3091F
:1002B0008B4201D3CB01C01A524183098B4201D337
:1002C0008B01C01A524143098B4201D34B01C01A22
:1002D000524103098B4201D30B01C01A5241C3089A
:1002E0008B4201D3CB00C01A524183088B4201D309
:1002F0008B00C01A524143088B4201D34B00C01AF5
:100300005241411A00D201465241104670475DE009
:10031000CA0F00D04942031000D34042534000228C
:100320009C4603098B422DD3030A8B4212D3FC2235
:10033000890112BA030A8B420CD3890192118B42B4
:1003400008D3890192118B4204D389013AD09211CA
:1003500000E08909C3098B4201D3CB01C01A524185
:1003600083098B4201D38B01C01A524143098B424E
:1003700001D34B01C01A524103098B4201D30B0137
:10038000C01A5241C3088B4201D3CB00C01A52415C
:1003900083088B4201D38B00C01A5241D9D2430843
:1003A0008B4201D34B00C01A5241411A00D2014680
:1003B000634652415B10104601D34042002B00D5EA
:1003C0004942704763465B1000D3404201B50020AC
:1003D000C046C04602BD70477047704770B5064CB6
:1003E0007C44064D7D4403E0206800198047241DAD
:1003F000AC42F9D170BD00008422000084220000CC
:10040000754600F025F8AE46050069465346C0081B
:10041000C000854618B020B5FFF7CCFE60BC0027B1
:100420004908B6460026C0C5C0C5C0C5C0C5C0C5C0
:10043000C0C5C0C5C0C5403D49008D46704710B518
:100440000446C046C0462046FFF787FE10BD0000A8
:1004500000487047780E002001491820ABBEFEE727
:10046000260002007047000010B5024801F01EFA95
:1004700010BD0000380A002070B5044600F06CFA88
:1004800005460BE0601C002808D0002C04D000F0CA
:1004900063FA401BA04201D9032070BD0F48C06819
:1004A000C007C00F0028EDD10C48C06820210840CB
:1004B000202801D10949C8600848C06810210840B7
:1004C000102805D00548C06804210840042803D13D
:1004D00001F0B2FB0120E0E70020DEE7002002404F
:1004E00070B504460025002C01D1012070BD022109
:1004F000212001552068056811480540A168606801
:100500000843E16808432169084361690843A16918
:100510000843E1690843054320680560204601F06F
:100520007BFB0020A062E06220636063A063012186
:10053000212001550021202001550020D6E7000090
:100540000FC0FFFFF8B504460D4616461F460020B3
:10055000009000BF2020005D012801D10220F8BDDD
:1005600001212020015500BF2120005D012817D165
:100570000221212001550020A06320680068400866
:100580004000216808603B4632462946204601F07B
:100590002DFB20680068012108432168086006E0FF
:1005A00000BF00212020015500BF022000900098CC
:1005B000D5E70000F8B504460E460127002500BF28
:1005C0002448007E012801D10220F8BD01202149E4
:1005D000087600BF2068012811D11F48FFF74CFFA3
:1005E000002830D101F098FB1B48FFF745FF074674
:1005F0001A480069042188431849086123E0164815
:10060000FFF73AFF00281ED1401E3060656813E0F6
:10061000284601F0D5F81048FFF72EFF07460F488F
:100620000069022188430D490861002F01D035601F
:1006300008E00120C0022D18A068C00261684018BF
:10064000A842E5D800BF00BF00200249087600BFDD
:100650003846BAE71002002050C3000000200240D4
:100660000348006980210843014908610020704760
:1006700000200240F0B51FB486B0074615461E465E
:100680000120039000240020029000BF2548007E36
:10069000012802D102200BB0F0BD012021490876CB
:1006A00000BF2148FFF7E8FE03900398002831D1EE
:1006B000012F02D10120029006E0022F02D1022078
:1006C000029001E00420029000241FE0220128464D
:1006D000314604960595FFF77FFD80B261000190D9
:1006E000079808180090019901F0CAFA0E48FFF720
:1006F000C3FE03900D480069400840000B490861A3
:100700000398002800D004E0601CC4B20298844220
:10071000DCDB00BF00BF00200249087600BF039861
:10072000B9E700001002002050C300000020024082
:100730000748006980210840002805D00548044981
:1007400048600548486001E0012070470020FCE750
:100750000020024023016745AB89EFCD78B5034601
:10076000002200240020DEE0012696400D6835407E
:100770002C46002C7ED04D68022D02D04D68122DE3
:1007800015D1D508AE001D462035A8595507EE0EE7
:100790000F25B5400646AE4330465607F60E0D69A6
:1007A000B5402843D508AD001E4620367051186864
:1007B00056000325B5400646AE4330460D79AD07D9
:1007C000AD0F5600B540284318604D68012D08D084
:1007D0004D68022D05D04D68112D02D04D68122DA7
:1007E00018D1986856000325B5400646AE433046FA
:1007F0005600CD68B540284398605868012595405B
:100800000646AE43304610264D6835402D099540CA
:1008100028435860D86856000325B5400646AE43C5
:10082000304656008D68B5402843D860012636070B
:100830004D683540B54275D100BF3E4DAD690126CA
:1008400035433C4EB5613546AD69ED07ED0F00957A
:1008500000BF00BF384D9608B600A85995072E0F67
:100860000F25B5400646AE4330460925ED06AB429E
:1008700003D100E056E000250FE0304DAB4201D13E
:1008800001250AE02E4DAB4201D1022505E02D4D98
:10089000AB4201D1032500E005259607360FB54090
:1008A0002843254D9608B600A851274D28680546CF
:1008B000A5432846012636044D683540B54202D18D
:1008C000054625432846204D286068680546A5430F
:1008D0002846012676044D683540B54202D10546CA
:1008E00025432846184D6860A8680546A543284654
:1008F000012636054D683540B54202D105462543EF
:100900002846114DA860E8680546A54328460126FB
:1009100076054D683540B54202D105462543284647
:10092000094DE860521C0D68D540002D00D01BE732
:1009300078BD00000010024008000140000400489B
:1009400000080048000C004800040140002A01D0C3
:10095000816100E0816270470148006870470000D3
:100960000001002002480068401C014908607047EF
:100970000001002010B50648006810210843044912
:100980000860002000F006F800F017F8002010BD05
:100990000020024070B5044600F0F0F806467D21C4
:1009A000C900FFF76BFC054600F020FC0022214641
:1009B000501E00F00FF8002070BD704700BFC20647
:1009C000D20E01219140024A116000BF7047000021
:1009D00000E100E070B504460D4616462946204663
:1009E00001F05EF970BD000070B504460D460026AA
:1009F0005D480068C007C00FA8420ED25A48006880
:100A00004008400028435849086008460068C0076D
:100A1000C00FA84201D0012070BD0221206808400B
:100A2000022807D151484068F0218843A168084353
:100A30004E4948602078C007C00F00285FD060682A
:100A4000012808D1494800680121490408400028CC
:100A500015D10120E0E76068022808D1434800680A
:100A6000012149060840002809D10120D4E73F4868
:100A7000006802210840002801D10120CCE73B4852
:100A80004068800880006168084338494860FFF783
:100A900063FF0646606801280FD107E0FFF75CFF9F
:100AA000801B3349884201D90320B5E72F484068AD
:100AB0000C2108400428F1D121E0606802280FD100
:100AC00007E0FFF749FF801B2949884201D903202D
:100AD000A2E7264840680C2108400828F1D10EE022
:100AE00007E0FFF739FF801B2149884201D9032025
:100AF00092E71E4840680C2108400028F1D11A48AE
:100B00000068C007C00FA8420ED917480068400807
:100B1000400028431449086008460068C007C00F19
:100B2000A84201D0012077E704212068084004286A
:100B300008D10E484068072109028843E16808434C
:100B40000A49486000F032F808494968F02211402B
:100B50000909084A515CC840074908600020FFF7AE
:100B600019FF002058E7000000200240001002405A
:100B700088130000302600080802002001480068A1
:100B8000704700000802002000B5FFF7F7FF054995
:100B90004968072212021140090A034A515CC84001
:100BA00000BD00000010024040260008F0B589B0EA
:100BB00025A001460EC9C06805AC0EC4089026A049
:100BC00001460EC9C06801AC0EC404900024002682
:100BD0000027002500200090234844680C20204076
:100BE000002829D0042802D0082826D102E01F4876
:100BF000009025E00F2080042040800C05A90D5CAA
:100C00001948C06A0007000F01A90E5C0320C00349
:100C1000204001210904884206D131461348FFF7DC
:100C20002DFB6843074605E031461148FFF726FBD8
:100C300068430746009703E000BF0D48009000BFDF
:100C400000BF009809B0F0BD0203040506070809BB
:100C50000A0B0C0D0E0F1010010203040506070805
:100C6000090A0B0C0D0E0F10001002400024F400B6
:100C700000127A00F8B5044600252078C007C00F9E
:100C8000002872D0FA4840680C21084004280CD093
:100C9000F74840680840082813D1F54840684903E0
:100CA00008400121090488420BD1F1480068012164
:100CB0004904084000286BD06068002868D10120F2
:100CC000F8BD00BF6068012807D1E948006801212C
:100CD00009040843E649086031E0606800280ED145
:100CE000E3480068012109048843E1490860084697
:100CF0000068012189048843DD4908601FE06068BD
:100D000005280ED1DA480068012189040843D84932
:100D1000086008460068012109040843D4490860B6
:100D20000DE0D3480068012109048843D0490860D8
:100D300008460068012189048843CD49086000BF46
:100D40006068002812D0FFF707FE054606E0FFF7AF
:100D500003FE401B642801D90320B1E7C4480068A2
:100D60000121490408400028F1D011E0FFF7F4FD0B
:100D7000054606E0FFF7F0FD401B642801D903207B
:100D80009EE7BB4800680121490408400028F1D1D2
:100D9000022120680840022862D1B54840680C2131
:100DA000084000280CD0B2484068084008281CD1F0
:100DB000AF484068490308400121C903884214D163
:100DC000AB48006802210840002804D0E0680128F0
:100DD00001D0012074E7A6480068F8218843216902
:100DE000C9000843A24908603AE0E068002820D022
:100DF0009F480068012108439D490860FFF7ACFD4A
:100E0000054606E0FFF7A8FD401B022801D9032094
:100E100056E797480068022108400028F2D094481D
:100E20000068F82188432169C90008439049086097
:100E300016E08F480068400840008D490860FFF7C1
:100E40008BFD054606E0FFF787FD401B022801D910
:100E5000032035E786480068022108400028F2D1C7
:100E6000082120680840082831D1E069002817D0FF
:100E70007F48406A012108437D494862FFF76CFDC5
:100E8000054606E0FFF768FD401B022801D9032054
:100E900016E77748406A022108400028F2D016E0A1
:100EA0007348406A4008400071494862FFF754FDAA
:100EB000054606E0FFF750FD401B022801D903203C
:100EC000FEE66B48406A022108400028F2D1042166
:100ED00020680840042871D100266548C069890649
:100EE000084000280DD100BF6148C069084360492F
:100EF000C8610846C06909040840009000BF00BFEF
:100F000001265C480068FF2101310840002816D105
:100F100058480068084357490860FFF71DFD05461B
:100F200006E0FFF719FD401B642801D90320C7E63E
:100F300050480068FF21013108400028F1D000BF6F
:100F4000A068012806D14A48006A0121084348499F
:100F500008622BE0A06800280CD14548006A4008D0
:100F60004000434908620846006A0421884340491A
:100F700008621BE0A06805280CD13D48006A0421E6
:100F800008433B4908620846006A01210843384982
:100F900008620BE03648006A4008400034490862A5
:100FA0000846006A042188433149086200BFA068EE
:100FB000002813D0FFF7D0FC054608E029E0FFF732
:100FC000CBFC401B2C49884201D9032078E62848F5
:100FD000006A022108400028F1D011E0FFF7BCFCB4
:100FE000054607E0FFF7B8FC401B2349884201D9BA
:100FF000032065E61E48006A022108400028F1D15E
:10100000012E05D11A48C069310788431849C861C3
:1010100000BF10212068084010285FD160690128B6
:101020002CD11348406B04210843114948630846FA
:10103000406B012108430E494863FFF78DFC0546CC
:1010400006E0FFF789FC401B022801D9032037E6A0
:101050000748406B022108400028F2D00448406B4A
:10106000F8218843A169C90008430149486335E074
:101070000010024000700040881300006069401DAD
:1010800000280FD14E48406B042188434C494863E7
:101090000846406BF8218843A169C90008434849C4
:1010A00048631BE04648406B0421084344494863B9
:1010B0000846406B400840004863FFF74DFC05467A
:1010C00006E0FFF749FC401B022801D90320F7E5A1
:1010D0003B48406B022108400028F2D1206A0028DA
:1010E0006CD0374840680C210840082864D0206A3A
:1010F000022847D132480068012109068843304957
:101100000860FFF729FC054606E0FFF725FC401BB9
:10111000022801D90320D3E52948006801214906A6
:1011200008400028F1D100BF2548C06A000900012D
:10113000E16A08432249C862616AA06A08432049FB
:1011400049687B22D203914308431D49486000BF90
:101150000846006801210906084319490860FFF79D
:10116000FBFB054606E0FFF7F7FB401B022801D911
:101170000320A5E51248006801214906084000281F
:10118000F1D01BE00E4800680121090688430C4994
:101190000860FFF7E1FB054606E0FFF7DDFB401BBB
:1011A000022801D903208BE5054800680121490682
:1011B00008400028F1D101E0012081E500207FE511
:1011C00000100240042806D106490969042211438F
:1011D000044A116105E00349096904229143014A67
:1011E0001161704700E000E07047000070B50446F0
:1011F0002546681E0949884201D901200CE0681E75
:10120000074948610321081F00F04AFD00200449F6
:10121000886107200861002070BD0000FFFFFF000B
:1012200000E000E010B5FFF7DFFF10BD10B5044689
:10123000002C01D1012010BDA069002800D000E0E1
:1012400000BF6920005D002805D1002168200155FC
:10125000204600F02CF82421692001552068006800
:101260004008400021680860204600F06DF9012820
:1012700000D1E0E7606A002802D0204600F0DCF8E8
:10128000206840680121C9028843216848602068BD
:1012900080680821884321688860206800680121EF
:1012A000084321680860204600F03EF9C3E7704714
:1012B000FEB504460D4616461F46002001906920E3
:1012C000005D20286AD1002D01D0002E01D101201F
:1012D000FEBD01210903A068884208D120690028C9
:1012E00005D1E807C00F002801D00120F0E700BFBA
:1012F0006820005D012801D10220E9E70121682072
:10130000015500BF0020E066212169200155FFF74B
:1013100023FB0190502006535220065325E0522013
:10132000005B401E81B252200153009700228021B1
:101330002046019B00F00AFA002801D00320C7E7ED
:1013400001210903A06888420BD12069002808D137
:101350000295029D2888C005C00D21680885AD1C36
:1013600003E028786D1C216808855220005B002866
:10137000D5DC0097002240212046019B00F0E6F9D1
:10138000002801D00320A3E720216920015500BFD8
:1013900000216820015500BF002099E7022097E74F
:1013A00000BFFEE770477047704710B5FFF7DAFAE5
:1013B000FFF738FF10BD00001C48006801210843FA
:1013C0001A490860084640681949084017494860AA
:1013D0000846006817490840144908600846006834
:1013E00001218904884311490860084640683F216B
:1013F000090488430D4948600846C06A0009000195
:10140000C8620846006BFF2194318843074908638E
:101410000846006B80210843044908630846406B76
:101420004008400048630020886070470010024078
:101430000CB8FF08FFFFF6FE818CC907C90F002911
:1014400008D001684968012252049143826A11431D
:10145000026851600222416A1140002907D00168E8
:101460004968D2039143C26A114302685160042261
:10147000416A1140002907D001684968120491436C
:10148000026B1143026851600822416A1140002931
:1014900007D00168496812039143426B1143026807
:1014A00051601022416A1140002907D00168896803
:1014B00012029143826B1143026891602022416ABB
:1014C0001140002907D00168896812029143C26B5C
:1014D0001143026891604022416A1140002915D0F1
:1014E0000168496892039143026C1143026851609C
:1014F00001221205016C914208D10168496803225A
:1015000052059143426C1143026851608022416A46
:101510001140002907D00168496812039143826C89
:10152000114302685160704701460020C8662022BE
:10153000692042546A20425400BF0022682042546D
:1015400000BF002070470000FEB5044600251026AD
:1015500000270020029001902169A068084361697A
:101560000843E16908430546206800686E49084061
:1015700028432168086020684068032109038843E4
:10158000E168084321684860216AA069084305466C
:10159000206880680B2109028843284321688860FD
:1015A00000BF62492068884217D16148006B8007FC
:1015B000800F002806D0012808D0022808D0032870
:1015C00008D101E0002607E0022605E0042603E03A
:1015D000082601E0102600BF12E056492068884224
:1015E00001D100260CE054492068884201D1002630
:1015F00006E052492068884201D1002600E010260A
:1016000000BF0121C903E069884249D1042E20D0DE
:1016100004DC002E07D0022E33D111E0082E25D095
:10162000102E2ED12CE0FFF7AFFA40006168490878
:10163000401800906168FEF721FE80B2029023E01E
:1016400061684A083E4BD018FEF718FE80B202903F
:101650001AE0FFF7ABFA40006168490840180090B3
:101660006168FEF70BFE80B202900DE061684A08E7
:1016700001231B04D018FEF701FE80B2029003E0A4
:1016800000BF0120019000BF00BF2E490298084012
:10169000074602980007400F07432068C76040E0F4
:1016A000042E21D004DC002E07D0022E35D111E00B
:1016B000082E26D0102E30D12EE0FFF765FA616893
:1016C0004908401800906168FEF7D8FD80B2216893
:1016D000C86025E061684A081B4BD018FEF7CEFDB4
:1016E00080B22168C8601BE0FFF760FA61684908B2
:1016F000401800906168FEF7C1FD80B22168C860A3
:101700000EE061684A080123DB03D018FEF7B6FD3E
:1017100080B22168C86003E000BF0120019000BFD3
:1017200000BF0198FEBD0000F369FFEF00380140E3
:10173000001002400044004000480040004C0040BF
:101740000024F400F0FF000000127A00FFB581B021
:1017500004460D4617460A9E24E0701C002821D03E
:10176000002E05D0FFF7F8F80499401AB04219D9B5
:1017700020680068FF21A131884321680860206843
:101780008068400840002168886020216920015558
:101790006A20015500BF00216820015500BF0320C9
:1017A00005B0F0BD2068C0692840A84201D10120E1
:1017B00000E00020B842D0D00020F1E700BFFEE7F3
:1017C0000021084AD1610849096902221143064AE9
:1017D000116111464861096940221143024A1161B1
:1017E00070470000100200200020024030B591B088
:1017F000012005900690089002200D90C1030E91E3
:101800000521C9040F910321109105A8FFF732FAB1
:10181000002801D0FFF7D2FF07200190022002909C
:10182000002003900490012101A8FFF7DDF80028B3
:1018300001D0FFF7C3FFFFF7A1F905467D21C900DD
:10184000FEF71CFD0446FFF7D1FC0420FFF7BAFCAD
:1018500000221146501EFFF7BDF811B030BD000048
:1018600010B5104BDB695B085B000E4CE36123464F
:101870001A6299620C4B63622346DB690A24234394
:10188000084CE3612346DB6901242343054CE361F3
:10189000054B283B9B6880242343034C283CA360D2
:1018A00010BD0000000002402838014010B5044679
:1018B000F0202A4948609D2080000159001F0059EE
:1018C00081420CD12548C069400840002349C861C5
:1018D0002348806880218843214988603CE0272094
:1018E00000010159001D005981421BDD2720000124
:1018F0000359001D00591A1A9D20800003592046E3
:10190000FF30713019182046FFF7AAFF144880688D
:101910008021084312498860272000010159001DD9
:10192000015119E09D2080000059FF2301331A1A4C
:101930009D20800003592046FF3071301918204641
:10194000FFF78EFF064880688021084304498860BD
:1019500000219D208000015110BD000000000240C8
:101960000038014030B5A9B004460D4600BF4448D8
:1019700080690121890308434149886108468069DB
:10198000012189030840019000BF00BF00BF3C480F
:101990004069C90008433A49486108464069012145
:1019A00049040840019000BF00BF00BF34484069AF
:1019B000012108433249486108464069C007C00F09
:1019C000019000BF00BF0320400224900220259018
:1019D00001202690032027900120289024A9092087
:1019E000C006FEF7BBFE2748206065600021A160AD
:1019F000E1602161A1610C2161610021E1610020B0
:101A000060622046FFF712FC1F48029000200390FE
:101A10000021049180210591002106910791202148
:101A20000891090209910D9002A8FEF759FD164888
:101A300014381390102014900021159180211691D4
:101A400000211791189119911A9100201E900122DE
:101A50000A20FEF7BFFF0A20FEF7B0FFFF23013385
:101A6000224670320749243102A8FEF76BFD054873
:101A70008068402108430349886029B030BD0000D8
:101A8000001002400038014030000240FEB504461C
:101A90000F4615462A48406BFF210131081A019074
:101AA0004F20C00001590198461A002E02DAFF3675
:101AB000013603E0002E01D10020FEBDAE4200DA67
:101AC00035464F20C0000159019881420ADA4F2063
:101AD000C00002592046703011182A463846FEF7D9
:101AE0008CFB18E04F20C0000059FF210131081A7B
:101AF00000904F20C000025920467030111838461F
:101B0000009AFEF77AFB00996A1A7818214670311C
:101B1000FEF773FB00BF4F20C000005941194F2052
:101B2000C00001510059FF2807DD4F20C0000059B7
:101B3000FF3801384F21C90008512846BDE7000091
:101B40000000024070B505460E461446A2B264235A
:101B500031462846FFF7ACFB002070BD00234F2222
:101B6000D2001350121F1350121F13507047FFB5AD
:101B700083B00E461C46029605980190002512E09F
:101B800001980768029841193A4600230220FEF79F
:101B900071FD002803D00020C04307B0F0BD0198BC
:101BA000001D01902D1DA542EADB2046F5E710B58A
:101BB0000446FEF7BDFD10BD7FB506460C46154632
:101BC00000200090019002940395694601A8FEF759
:101BD000F1FC002802D0009804B070BD0020FBE7A3
:101BE00010B50446FEF73CFD10BD704730B501242A
:101BF000056CAC40C56B6C60046863604468102C75
:101C000004D10468A2600468E16003E00468A16094
:101C10000468E26030BD000010B50446054A216842
:101C2000881A1421FEF72AFB800020640148083836
:101C3000E06310BD0800024000200F49C96810226F
:101C40001140102907D10D49C969022211430B4ADD
:101C5000D161102108430849C968042211400429B0
:101C600007D10649C96901221143044AD1610421FF
:101C700008430149C860704700200240100200205C
:101C80000022054BDA61054A126901231A43034B0E
:101C90001A610180704700001002002000200240FD
:101CA00010B5002819DA1A4A03071B0F083B9B08D6
:101CB0009B00D2588307DC0EFF23A3409A438B0777
:101CC0001B0E8407E40EA3401A43114B0407240F94
:101CD000083CA408A4001A5118E00E4A03231B0272
:101CE000D21883089B00D2588307DC0EFF23A34041
:101CF0009A438B071B0E8407E40EA3401A43054B3F
:101D0000032424021B198408A4001A5110BD0000EA
:101D10001CED00E000E100E000200749C861074831
:101D2000006904210843054908610846006940210B
:101D30000843024908617047100200200020024059
:101D40000246014908687047C4400008024601493C
:101D500008687047C0400008F8B505460C461646AE
:101D60001F46802C02DB0020C043F8BD210148192A
:101D70003A463146FEF741FA0020F6E702460120D6
:101D8000C002101801600020704730B502460023E1
:101D90001446002003E0850065596B40401C8D0807
:101DA0008542F8D8184630BD7CB504460D466846D5
:101DB000FFF71BFF6846FFF7FAFE0120C00220185C
:101DC000012201686846FFF7F7FE0120C0022018D3
:101DD0002B46224601686846FFF7C9FE6846FFF7B2
:101DE000FFFE00207CBD000010B501460120C002AE
:101DF0000818436800220120C002081840680068E3
:101E00001B4CA04201D0501E10BD002003E08400F6
:101E10001C596240401C0528F9D30120C002081853
:101E200040684069904202D00020C043ECE70120A6
:101E3000C0020818406843680022002003E08400C4
:101E40001C596240401C0124E4020C196468A46817
:101E5000A4088442F3D80120C00208184068006931
:101E6000904202D00020C043CEE70020CCE7000023
:101E70005A5AAA55FEB505460C4600262746134871
:101E80002060002003E0810079584E40401C052866
:101E9000F9D366616846FFF7A8FE6846FFF787FE3C
:101EA0000120C0022818012241686846FFF784FE1D
:101EB0000120C00228181823224641686846FFF70F
:101EC00056FE6846FFF78CFE0020FEBD5A5AAA5502
:101ED000F3B581B00646284C3046FFF785FF002851
:101EE00002D00020C043FEBD0120C002301840686F
:101EF000FF22013241685005FEF77FF90298012860
:101F000007D16920207002206070FD20A07096200B
:101F1000E070012040070568476872B61748C0693D
:101F20000121490488431549C861084640690121D7
:101F30004904884311494861084640694008400007
:101F4000486100BF85F3088800BF00BF0C480068E7
:101F5000800880000A490860084600680321084399
:101F60000749086000BF074800694008400005496C
:101F70000861B8470020B6E7C40000200010024006
:101F80000000014000E000E002490A14821851609C
:101F9000704700000038000870B506460D46154829
:101FA000016A406A814201D1002070BD1148406A37
:101FB000142148430F49803940188078C006C00E6C
:101FC000041D0C48406A142250430A4681182246D8
:101FD0002846FEF712F90748406A401C0549486246
:101FE0000846406A082802D1002102484162204682
:101FF000DBE70000500E0020F7B50D461646042E14
:1020000001DA0020FEBDA878C406E40E102C01DD24
:102010000120F7E7201DB04201DD0020F2E7E81CB7
:102020000719E21C2946009800F050FA39788842D6
:1020300001D1201DE6E70120E4E70000FFB581B0F3
:102040000E4617460A9D1448006A14214843124957
:10205000803944181048006A401C803108620846E4
:10206000006A082802D100210B480162EA20207092
:10207000677070012843A0702A46E01C0499FEF79F
:10208000BCF8EA1C2146019800F020FAE11C4855F2
:10209000281D05B0F0BD0000500E002070B588B0BE
:1020A00005460C46A0784611330000F02BFA0805CF
:1020B00006183C576E9CD1D6CFE001216848FFF747
:1020C00007FF401C002809D101200790009062788A
:1020D00007AB00212846FFF7B1FF00BFBDE000209D
:1020E00007900422E11C07A8FEF787F85C480799CF
:1020F000FFF744FE401C002809D101200690009003
:10210000627806AB00212846FFF798FF0AE000201E
:10211000069001200090627806AB00212846FFF768
:102120008DFF00BF99E061781023E21C4C48FFF757
:1021300013FEFF200530405D00280AD000200790E4
:1021400001200090627807AB00212846FFF776FF58
:1021500003E06178284600F01BF97EE0002005903E
:10216000069007903E48FFF7F1FD05903C48FFF7C9
:10217000E7FD06900120079009200090627805ABEA
:1021800004212846FFF75AFF67E0002007900690D9
:102190000422E11C06A8FEF730F80422E11D07A87E
:1021A000FEF72BF82E480699FFF7EFFD07998842B6
:1021B00009D0012005900090627805AB00212846E7
:1021C000FFF73CFF0EE026480699FFF7EDFD0020E3
:1021D000059001200090627805AB00212846FFF7AA
:1021E0002DFF00BF39E00422E11C03A8FEF705F82B
:1021F0000422E11D04A8FEF700F8042221460B3159
:1022000005A8FDF7FAFF042221460F3106A8FDF7C5
:10221000F4FF02A91248FFF72DFE1148FFF7E4FD75
:10222000002809D0012001900090627801AB0021C4
:102230002846FFF703FF0AE00020019001200090EC
:10224000627801AB00212846FFF7F8FE00BF04E0EA
:102250002146284600F006F800BF00BF08B070BD58
:102260003002002070B586B005460C46E0780028A4
:1022700004D0012814D0022833D120E02179284647
:1022800000F06FF8002005900021FF200530415537
:1022900001200090627805AB2846FFF7CFFE20E0D2
:1022A0000121FF20053041550020059001200090BC
:1022B000627805AB00212846FFF7C0FE11E002203E
:1022C000694608720F220931284600F00DF80646CB
:1022D000701C0090627802AB07212846FFF7AEFE23
:1022E00000BF00BF06B070BDF7B582B003460C4614
:1022F0000020FF220932D258D11DCA17520F52189E
:10230000D2100192002127E01A46FF320D32525CB2
:10231000FF2A20D000221CE0CD00AD180095FF253B
:102320000935EE58009DAE4202DD049DA84201D160
:1023300005B0F0BD1D46FF350D356D5C012696409C
:102340003540002D04D1009DEEB20546401C665577
:10235000521C082AE0DB491C019A9142D4DB00BFE1
:10236000E6E730B5CA1DD417640FA418E310FF22A6
:1023700009321150102B00DD1023002205E000254A
:102380000446FF340D34A554521C9A42F7DB30BD8D
:1023900030B50A46CD176D0FAD18EB10CD176D0F88
:1023A000AD18ED10ED004C1B0246FF320D32D25C31
:1023B0000125A5402A43D5B20246FF320D32D5543D
:1023C00030BDF7B584B00446069E7BE00020039044
:1023D000FF2001300059FF2101310F1ABE4214DDE8
:1023E000069A05988018811BFF20013000590319B7
:1023F0003A461846FDF701FFFF2001300059C11988
:10240000FF2001300151F61B13E0069A0598801851
:10241000811BFF2001300059031932461846FDF791
:10242000ECFEFF20013000598119FF2001300151DD
:10243000002600252DE004E0605DEA2800D105E0DB
:102440006D1CFF2001300059A842F5DC00BFFF20C1
:1024500001300059A84200D11CE060190190FF2012
:1024600001300059421B20460199FFF7C5FD03903A
:102470000398002800D10DE00398042802DA03989D
:102480002D1805E020460199FFF708FE03982D1846
:1024900000BFD0E700BF002D01D107B0F0BDFF2085
:1024A00001300059401B0290002003E02918615CB4
:1024B0002154401C02998842F8DBFF210131029827
:1024C000085100BF002E81DC00BFE6E770B504466E
:1024D00000230D46002002E02E5C7340401C904219
:1024E000FADB184670BD00000022FF2101310A50BE
:1024F00003494A620A620122FF2105310A547047EA
:10250000500E002030B47446641E2578641CAB4223
:1025100004D3635D5B00E31830BC18471D46F8E741
:1025200010B50548FFF730FD00210448FFF716FB02
:102530000348FFF7D9FF10BD30020020380A002001
:10254000B40C002086B0324CFEF714FA00BF3148BC
:102550004069E11208432F49486108464069E11289
:102560000840009000BF00BFC810019001200290F9
:10257000002003900320049001A92748FEF7EEF8FD
:10258000002026490870207896280BD1A178607821
:10259000FF225040814205D1E078692802D160785D
:1025A0001E490870FFF722F91C480078012803D063
:1025B00000211B48FFF78CFC0122D1031648FEF7CF
:1025C000C5F9E12149021748FFF7CCF91FE0FF22C6
:1025D000013215491348FFF759FA0546002D04DD6D
:1025E0002A4611491148FFF7ECFE0DE00E490F484D
:1025F000FFF7D2FC0546002D05DD2A460A490948A9
:10260000FFF7A0FA00E000E0F0E700BF00BFDEE760
:10261000C400002000100240000400480402002012
:1026200030020020380A002004010020B40C0020F1
:102630000000000000000000010203040607080972
:1026400000000000010203046C26000800010020C5
:102650000C01000004010008782700080C0200208B
:10266000CC12000020010008B9FEFFFF00000000AE
:10267000000102030405060708090000000000002D
:10268000000000000000000000000000000000004A
:10269000000000000000000000000000000000003A
:1026A000000000000000000000000000000000002A
:1026B000000000000000000000000000000000001A
:1026C000000000000000000000000000000000000A
:1026D00000000000000000000000000000000000FA
:1026E00000000000000000000000000000000000EA
:1026F00000000000000000000000000000000000DA
:1027000000000000000000000000000000000000C9
:1027100000000000000000000000000000000000B9
:1027200000000000000000000000000000000000A9
:102730000000000000000000000000000000000099
:102740000000000000000000000000000000000089
:102750000000000000000000000000000000000079
:102760000000000000000000000000000000000069
:082770000000000000127A00D5
:04000005080000C12E
:00000001FF
